:020000040800F2
:10000000200800207902000811350008F12D0008B1
:100010000D3500088104000835410008000000008B
:100020000000000000000000000000007D35000816
:10003000190500080000000041350008B13500082E
:10004000930200089302000893020008930200083C
:10005000930200089302000893020008930200082C
:100060009302000893020008930200088504000828
:10007000930200089302000893020008930200080C
:1000800093020008000000007104000893020008B9
:1000900093020008930200089302000893020008EC
:1000A0009302000835360008930200089302000806
:1000B00093020008930200089302000893020008CC
:1000C00093020008930200089302000893020008BC
:1000D00093020008254100089302000893020008DB
:1000E000930200089302000893020008930200089C
:1000F0009302000893020008930200080000000029
:1001000000000000930200080000000093020008B5
:100110009302000800000000930200089302000808
:10012000930200089302000893020008930200085B
:100130009302000800000000000000009302000885
:100140009302000893020008000000000000000075
:10015000000000000000000000000000000000009F
:1001600000000000000000000000000093020008F2
:1001700093020008000000000000000000000000E2
:1001800000000000930200080000000000000000D2
:10019000000000000000000000000000000000005F
:1001A0000000000000000000930200089302000815
:1001B0009302000893020008930200080000000068
:1001C0000000000093020008000000000000000092
:1001D000930200089302000800F002F800F03CF8D7
:1001E0000AA090E8000C82448344AAF10107DA4592
:1001F00001D100F031F8AFF2090EBAE80F0013F0A8
:10020000010F18BFFB1A43F0010318471840000004
:1002100038400000103A24BF78C878C1FAD8520795
:1002200024BF30C830C144BF04680C607047000070
:100230000023002400250026103A28BF78C1FBD8EF
:10024000520728BF30C148BF0B6070471FB503F08D
:10025000BCFF1FBD10B510BD00F0D0F81146FFF770
:10026000F5FF03F0A3FF00F0EEF803B4FFF7F2FF91
:1002700003BC00F0F5F80000094880470948004732
:10028000FEE7FEE7FEE7FEE7FEE7FEE7FEE7FEE746
:10029000FEE7FEE704480549054A064B70470000A3
:1002A00021360008D9010008200200202008002083
:1002B000200400202004002053EA020C00F0698092
:1002C0002DE9F04B4FF00006002B1FBFB3FA83F56A
:1002D00003FA05F424FA05F65E4012BF1643B2FA9B
:1002E00082F502FA05F4C5F120051EBF22FA05FCCD
:1002F00044EA0C04203556EA044C4FEA144418BF73
:10030000641C4FF000084FF00009904271EB030CA1
:1003100039D3002919BFB1FA81F701FA07F6B0FA0B
:1003200080F700FA07F6C7F120071EBF20FA07FC86
:1003300046EA0C062037B6FBF4FCA7EB0507103F96
:1003400007F01F0BCBF120062CFA06F60CFA0BFB7C
:1003500044BFB3460026202FA4BF5E464FF0000BDB
:100360005BEA060C08BF4FF0010B19EB0B0948EBD9
:100370000608ABFB027C06FB02CC0BFB03CCC01BCC
:1003800071EB0C01C1E70B46024641464846BDE809
:10039000F08B13B5084318BF4FF0FF300146AFF3A1
:1003A0000080BDE81C4070474FF0000200B51346C6
:1003B00094469646203922BFA0E80C50A0E80C5085
:1003C000B1F12001BFF4F7AF090728BFA0E80C5036
:1003D00048BF0CC05DF804EB890028BF40F8042B2F
:1003E00008BF704748BF20F8022B11F0804F18BF9C
:1003F00000F8012B7047704770477047754600F052
:100400002BF8AE4605006946534620F007008546A6
:1004100018B020B5FFF73EFFBDE820404FF00006C2
:100420004FF000074FF000084FF0000BAC46ACE86F
:10043000C009ACE8C009ACE8C009ACE8C00921F0CB
:1004400007018D46704710B50446AFF30080204683
:10045000BDE81040FFF709BF0048704710000020BA
:1004600001491820ABBEFEE72600020070470000DD
:1004700080B540F27000C2F2000000F02FFC80BD99
:10048000FEE7000080B540F2DC00C2F2000000F0A0
:1004900045FF80BD80B501686FF007024CF6CD4383
:1004A00052FA81F2CCF6CC43A2FB032340F2084E71
:1004B000D0F844C00622C4F2020E02EB13127145BA
:1004C0000EF5836138BF1A0938BF0EF57E712CF026
:1004D000030303EB010C02F01F0201210EF58F63F1
:1004E0009140C0E912C3016580BD0000416840F63B
:1004F000001201F07F010139C4F2020202EB810314
:1005000002F1400C01F01F01012202FA01F1C0E9E1
:10051000153CC1657047000070470000EFF3108084
:1005200072B600BFFEE70000704700002DE9F043FF
:1005300081B004460020009094F85800012802D1B0
:100540004FF0020910E260690D46012184F858104D
:1005500010B1296A012919D16868092840D1286891
:10056000A96A4FF4785202EA504021B1EA6A01F0D8
:100570007C0111430843216844F20003CA6CC0F2B5
:1005800010431A400243CA64606629E0A06E002846
:100590004FF000000AD1AA6A6066A1F10100A166CD
:1005A00022B102F07C01EA6A08431043D5E9002138
:1005B00001F01F01C2F3846202FA01F10843D4E999
:1005C0001921013940EA0200C4E9190108D1216862
:1005D00044F20003CA6CC0F210431A401043C864CE
:1005E000206802F049FC98B92068C16895F8252078
:1005F00095F8263021F44011002A4FEA435201D0E9
:10060000114304E095F82430114341EA0351C160DD
:10061000206802F051FC21680646084602F02CFCD6
:10062000304302D04FF00009EEE0A86A60B1E86AFA
:1006300050B195F8250001280FD1E06D4FF0010968
:1006400040F02000E0650FE0206895F82520C168A3
:10065000012A04D141F0007103E02068C16821F053
:1006600000714FF00009C160206895F830200169E1
:10067000012A08D1D5E90D2321F4FF711143194353
:1006800041F0020101E021F002010161AB6829683B
:1006900003F10040B0FA80F047092068B3F100424E
:1006A00018BF1A46FF0702F039FC2068394602F0ED
:1006B000EBFC206829696B69C268042940F08E80D0
:1006C0004FF6FF780021C0F2070802F0CBFB21684B
:1006D00007460846002102F0C5FB7A0390FAA0F114
:1006E0002A68B1FA81F108BFC0F3846192FAA2F0DE
:1006F000B0FA80F0530308BFC2F38460814203D193
:100700002068002102F0B2FC2068012102F0AAFB5F
:10071000216807460846012102F0A4FB90FAA0F1E7
:100720002A68B1FA81F117EA080F08BFC0F38461A3
:1007300092FAA2F0B0FA80F012EA080F08BFC2F3F2
:100740008460814203D12068012102F08FFC20687F
:10075000022102F087FB216807460846022102F0C9
:1007600081FB90FAA0F12A68B1FA81F117EA080F2B
:1007700008BFC0F3846192FAA2F0B0FA80F012EAE6
:10078000080F08BFC2F38460814203D120680221B0
:1007900002F06CFC2068032102F064FB216807462C
:1007A0000846032102F05EFB90FAA0F12A68B1FA34
:1007B00081F117EA080F08BFC0F3846192FAA2F032
:1007C000B0FA80F012EA080F08BFC2F384608142D9
:1007D0001AD12068032102F049FC15E0062707EA38
:1007E00092072A68BB4002F007FC20682969AA69C1
:1007F00002F02CFC2A7F2068013AB2FA82F22969C1
:100800005209520602F012FC206802F049FB00284F
:100810004DD120682968EA6802F0A8FBE868002149
:10082000C4F27F01884242D1D5F800E04FF08061E8
:100830009EFAAEF27346B2FA82F76FF3DF433A469E
:100840002068002B08BF4FEA9E62561C01EB8261B4
:1008500006F01E0C01F0F84206F01F010126BCF163
:10086000090F06FA01F60DD842EA0601002B08BF6F
:100870004FEA9E677A1C02F01F0202EB420241EA35
:10088000025111E0002B08BF4FEA9E67791C01F06E
:100890001F01002301EB4101CFF6206303EB01515F
:1008A0003243114341F00071AA6802F037FB6888B7
:1008B00048F20801084254D002F0B6FA2968002232
:1008C000CCF22132914204D01022C9F2C0029142EE
:1008D00022D1020220D42168B1F1A04F41D140F4CD
:1008E000000002F06DFB40F20000C2F20000006860
:1008F00042F663518009C0F23E51A0FB0101880914
:1009000000EB4000182101EB800000BF0090009830
:1009100038B300980138F9E70022CCF252729142C4
:1009200008BF10F0807211D00022CCF684329142C0
:1009300008BF10F4800114D1216840F20012C5F202
:10094000000291420DD040F4800008E0216840F29E
:100950000012C5F20002914203D040F0807002F014
:100960002FFB002084F85800484601B0BDE8F08312
:10097000704700007047000070470000704700009B
:10098000F0B581B004460020009094F8580001288A
:1009900002D1022001B0F0BD20680D46012184F88B
:1009A000581002F085FA48B1E06D40F02000E06593
:1009B0000120002184F8581001B0F0BD2068D5E96D
:1009C000002102F085FA206802F072FA21680646DA
:1009D000084602F04DFA304340F0B880AB68296811
:1009E00003F10040B0FA80F047092068B3F10042FB
:1009F00018BF1A46FE0702F07FFA2068314602F05F
:100A00003DFB206829696B69C268042940F0888031
:100A10004FF6FF770021C0F2070702F01DFA2168A8
:100A200006460846002102F017FA720390FAA0F178
:100A30002A68B1FA81F108BFC0F3846192FAA2F08A
:100A4000B0FA80F0530308BFC2F38460814203D13F
:100A50002068002102F002FB2068012102F0FCF96D
:100A6000216806460846012102F0F6F990FAA0F145
:100A70002A68B1FA81F13E4208BFC0F3846192FA5C
:100A8000A2F0B0FA80F03A4208BFC2F3846081421B
:100A900003D12068012102F0E1FA2068022102F06E
:100AA000DBF9216806460846022102F0D5F990FAE2
:100AB000A0F12A68B1FA81F13E4208BFC0F3846117
:100AC00092FAA2F0B0FA80F03A4208BFC2F3846012
:100AD000814203D12068022102F0C0FA206803217C
:100AE00002F0BAF9216806460846032102F0B4F97B
:100AF00090FAA0F12A68B1FA81F13E4208BFC0F332
:100B0000846192FAA2F0B0FA80F03A4208BFC2F3D0
:100B1000846081421AD12068032102F09FFA15E017
:100B2000062707EA92072A68BB4002F053FA2068BA
:100B30002969AA6902F082FA2A7F2068013AB2FA8A
:100B400082F229695209520602F068FA206802F01E
:100B5000A3F900284DD120682968EA6802F0F0F96D
:100B6000E8680021C4F27F01884242D1D5F800E054
:100B70004FF080619EFAAEF27346B2FA82F76FF3DD
:100B8000DF433A462068002B08BF4FEA9E62561C9E
:100B900001EB826106F01E0C01F0F84206F01F0125
:100BA0000126BCF1090F06FA01F60DD842EA06014A
:100BB000002B08BF4FEA9E677A1C02F01F0202EB6F
:100BC000420241EA025111E0002B08BF4FEA9E6742
:100BD000791C01F01F01002301EB4101CFF62063D6
:100BE00003EB01513243114341F00071AA6802F056
:100BF00083F9688848F20801084232D002F00CF903
:100C00002A680021CCF221318A42014604D010200A
:100C1000C9F2C000824207D1080205D42068B0F1B1
:100C2000A04F2DD00020C4E60020CCF252708242AA
:100C300008BF11F0807016D00020CCF684308242BC
:100C40004FF0000008BF11F480027FF4B2AE2068BC
:100C500040F20012C5F20002904236D041F480000A
:100C60000AE00020A5E6206840F20012C5F200026A
:100C7000904228D041F0807002F098F9002098E668
:100C800041F4000002F092F940F20000C2F20000CC
:100C9000006842F663518009C0F23E51A0FB010199
:100CA000880900EB40000C2101EB800000900098C7
:100CB00068B100BF009801380090009800284FF0FC
:100CC0000000F7D175E6002073E6002071E60020F1
:100CD0006FE6000070470000704700002DE9F0410A
:100CE000044600680568466802F0AEF806EA0507A3
:100CF000B90705460CD5E06DC00603D4E06D40F49D
:100D00000060E0652046FFF70FFC206802210160CB
:100D100040F200187807C5F2000858BF5FEA077074
:100D200044D5E06DC00603D4E06D40F40070E0658A
:100D3000206802F0C5F898B320680146404508BF16
:100D40004FF0A041814218BF0946002D08BF01465F
:100D5000052D08BF0146092D08BF0146C968890451
:100D60001ED4016809071BD502F0A2F840B1E06D5E
:100D700040F01000E065206E40F0010020660FE0BA
:100D80002068416821F00C014160E06D20F4807022
:100D9000E065E06DC00403D4E06D40F00100E06563
:100DA0002046FFF797FF20680C210160B80658BF66
:100DB0005FEA476050D5E06DC00603D4E06D40F4B3
:100DC0000050E065206802F05BF82168064608469E
:100DD00002F076F8216825F001030A46414508BF74
:100DE0004FF0A0428A4218BF1246002D08BF0A46A3
:100DF000062B08BF0A46D26846B3930103D528B331
:100E000012F4005022D1086892021FD410F0400062
:100E10001CD0084602F02CF840B1E06D40F0100004
:100E2000E065206E40F0010020660FE02068416818
:100E300021F060014160E06D20F48050E065E06DDC
:100E4000C00503D4E06D40F00100E0652046FFF7E7
:100E50008FFD206860210160380606D4F80510D4A3
:100E6000B8051BD4F8063AD525E0E06D40F4803093
:100E7000E065204600F03AF9206880210160F8051D
:100E8000EED5E06D40F40030E0652046FFF774FDDC
:100E900020684FF480710160B805E3D5E06D40F43F
:100EA0008020E0652046FFF769FD20684FF400715F
:100EB0000160F80613D5E06B18B12DB301F0BCFF4B
:100EC00050B1E06D40F48060E065206E40F00200BB
:100ED00020662046FFF700FF20681021016078059A
:100EE00058BFBDE8F0812068E16D41F48041E165C3
:100EF000216E41F0080121664FF4806101602046B7
:100F0000FFF738FDBDE8F0812068C06800F00100FF
:100F10000028D6D1E0E7000070B582B0044600207A
:100F20000190CCB1E06D30B9204600F0E1F800202E
:100F3000206684F85800206801F0AAFF10B12068EC
:100F400001F058FF206801F0AFFF38B1206801F0D0
:100F5000ABFFF0B1002525E00125C3E0206801F0DA
:100F600051FF40F20000C2F20000006842F66351F7
:100F70008009C0F23E51A0FB01018809022101EB6A
:100F8000400000BF019001980028DFD0019801388F
:100F9000F8E7E06D012540F01000E065206E40F0BC
:100FA00001002066206801F083FFE16D01F010016F
:100FB0000843E06D03D040F01000012591E020F4DB
:100FC00081700230E065206801F066FF78B94FF06B
:100FD000A04001F061FF064640F20010C5F200009B
:100FE00001F05AFF304302D1606801F0D5FF607F05
:100FF000E16B41EA4030D4E90221084394F824101F
:101000001043012940EA014106D1A06A0022CFF62F
:10101000FE7202EB40400143E06A28B100F47870B0
:10102000226B084340EA02012068626BC36844F205
:101030000706CFF6F07633401943C160016921F00D
:1010400040611143016101F013FFD8BB94F83800EF
:10105000217F400040EA813220682169C36844F260
:101060000206B3431A43C260026949B142F48032B6
:101070000261D0F8C02043F6FF739A43114307E0A2
:1010800022F480310161D0F8C01043F6FF72914321
:10109000C0F8C01094F840200169012A0FD140F235
:1010A000FD7204F1440621EA020C4CCE216D42EAA5
:1010B0000C021A433243114341F0010101E021F0D7
:1010C0000101016120686169026B012922F00F01B1
:1010D00002D1226A013A11430163E06D012161F3FB
:1010E0000100E065284602B070BD000070470000B6
:1010F0002DE9F04397B0044600201690CDE9140086
:10110000CDE9120001A84421FFF74EF9206840F212
:101110000011C5F20001884202D017B0BDE8F0838B
:101120004FF4004001904FF00050109001A800F0E3
:1011300097FB002818BFFFF7F1F941F24C00C4F209
:101140000200016812AD41F40051016001684FF0E6
:10115000030901F40051009100990168002741F052
:1011600001010160016801F001010091009901682D
:1011700041F004010160016801F00401009100994F
:10118000016841F0020101600068294600F0020098
:1011900000900098502012904FF09040CDF84C9065
:1011A000149700F07FF940F20046C4F600064FF0B5
:1011B000200806F580602946CDE91289149700F0D1
:1011C00071F948F20400CDE9120930462946149716
:1011D00000F068F940F2DC050820C2F20005C4F214
:1011E000020024214FF4807385E8830005F1140088
:1011F00080224FF4806680E848012846C5E90372E2
:101200002F6200F0E1F8002818BFFFF787F91220DD
:10121000002100226565AC6200F08CFA122000F01B
:1012200085FA17B0BDE8F083002804BF012070479D
:1012300080B590F82510022924D10168D0E910CE9C
:10124000826C0B6823F001030B600B6823F00E0324
:101250000B60116821F4807111600EF01F010122F2
:1012600002FA01F1CCF80410D0E913215160416D6C
:1012700031B10A6822F480720A60D0E916124A601D
:10128000002102E00421C1630121012280F8252010
:10129000002280F82420BDE8804008467047000006
:1012A00080B590F8251002292DD10168D0E910CE23
:1012B000826C0B6823F001030B600B6823F00E03B4
:1012C0000B60116821F4807111600EF01F02012182
:1012D00001FA02F2CCF80420D0E913325A60426DD0
:1012E00032B1136823F480731360D0E9162353607E
:1012F00080F82510826B002180F824100AB19047F5
:101300000021084680BD0421C1630121002280F82C
:10131000251080F82420084680BD0000B0B5026882
:10132000D0E910C4DCF80050136804F01F0E590710
:1013300012D5042101FA0EF414EA05010CD011684B
:10134000890603D4116821F004011160CCF804402F
:10135000016BB9B38847B0BD990718D5022101FACE
:101360000EF414EA050112D01168890606D411683A
:1013700021F00A011160012180F82510CCF8044009
:10138000C16A002280F82420E1B18847B0BD190766
:1013900058BFB0BD082101FA0EF1294012D01168E2
:1013A00021F00E011160012101FA0EF2CCF80420A7
:1013B000C16380F82510416B0022002980F82420A9
:1013C00018BF8847B0BD0000002804BF0120704747
:1013D0002DE9F04140F2000C0446C4F2020C006812
:1013E0004FF6F8330CF58162CBF6FD73904238BFAF
:1013F00003F5806303EB00024CF6CD43CCF6CC43FF
:10140000A2FB032304F1080E0CF580616FF00305C5
:101410009EE804413CBF0021C4F2020105EA9303A7
:10142000C4E91013022184F82510016847F6F0730F
:10143000994304F114071143E8CF41EA080141EA56
:101440000E01194329433143394301602046FFF718
:1014500021F8A06804F14803B0F5804F04BF0020D4
:10146000606060680ECB00F07F07013803280F60D2
:10147000536009D82046FFF739F804F1540207CA2F
:10148000002303604A6003E00020C4E91500E06522
:1014900000200121E06384F8251084F82400BDE8D1
:1014A000F08100002DE9F04F83B00D68002D00F0B1
:1014B000C88000F138424FEAB22241F2004701925F
:1014C000C4F600070622002600244FF00108B842A7
:1014D00008BF0522009209E00D68043435FA08F2CD
:1014E00008F1010806F1020600F0AB80A8F1010C3A
:1014F000012202FA0CFB15EA0B09EDD0D1F804A089
:101500000AF00305A5F1010EBEF1010F11D887689D
:101510000322CB68B24027EA0202B3401A4382603A
:101520004268CAF3001322EA0B0203FA0CF31A43CF
:101530004260032D02D18A68012A08D0C2680323C1
:101540008F68B3409A4307FA06F31A43C260022D2C
:1015500011D16FF0030202EA5C02024404F01C079E
:101560000F23D2F820E003FA07F50B692EEA0505F0
:10157000BB402B431362026803234F68B3409A4376
:1015800007F00303B3401A4317F4403F0260A3D0AF
:1015900041F26003C4F202031A6840F2004E42F0C6
:1015A00001021A601A68C4F2010E02F001020292EE
:1015B000029A2CF003024FF6084A7244CFF6FF7AE3
:1015C00052F80A3004F00C070F25BD4023EA050C41
:1015D000019B009D052B38BF1D4605FA07F747EA1A
:1015E0000C0342F80A30DEF808204B6842EA09078B
:1015F00040F20C4CDD0258BF22EA0907CEF8087011
:10160000C4F2010CDCF800209D0242EA090758BF31
:1016100022EA0907CCF80070DEF804209D0342EAB4
:10162000090758BF22EA0907CEF80470DEF8002047
:10163000DB0342EA090758BF22EA0907CEF8007027
:101640004AE703B0BDE8F08F1823002A08BF28231B
:10165000C150704740F21C20C2F200000068704781
:1016600040F2040040F21C21C2F20000C2F200016C
:1016700000680A68104408607047000080B50320C5
:1016800000F068F80F2000F009F800281CBF0120C6
:1016900080BD00F02FF8002080BD0000B0B540F202
:1016A0000401C2F20001096801B3044640F20000DF
:1016B000C2F200004FF47A720068B2FBF1F1B0FBA5
:1016C000F1F000F0B9FD0F2C4FF001050CD858B91E
:1016D0004FF0FF3021460022002500F02BF840F2A9
:1016E0000800C2F2000004602846B0BD012528466B
:1016F000B0BD000080B582B041F25800C4F20200D3
:10170000816841F001018160816801F0010101916E
:101710000199016841F080510160006800F080503B
:101720000090009800F092F802B080BD80B502F001
:1017300003FD80BD70B514460D46064602F00CFD53
:101740002946224601F0E6FE0146304602F00CFD35
:1017500070BD000080B502F019FD80BDB0F5007FBE
:1017600035D0002866D147F20000C4F200000168BD
:10177000D0F8802001F4C06122F48072B1F5806F4E
:10178000C0F8802021D10168012262F34A21016062
:1017900040F20001C2F200010968322359434DF6BC
:1017A0008363C4F21B33A1FB031302EB934100BF1D
:1017B00043694A1E8A4203D213F480611146F7D16D
:1017C0004069400544BF032070470020704747F23E
:1017D0000000C4F200000168D0F8802001F4C0616C
:1017E00042F48072B1F5806FC0F88020EDD10168BD
:1017F000012262F34A21016040F20001C2F20001BD
:101800000968322359434DF68363C4F21B33A1FBAD
:10181000031302EB934100BF43694A1E8A4203D27D
:1018200013F480611146F7D14069400544BF03209D
:101830007047CAE747F20000C4F2000001680222C4
:1018400062F34A21016000207047000047F208005F
:10185000C4F20000016841F480410160704700005B
:101860002DE9F04381B08146807841F28807000776
:10187000C4F2020701D4002565E057F8300C10F0DF
:1018800080580BD157F8300C40F0805047F8300C9E
:1018900057F8300C00F080500090009847F2000498
:1018A000C4F20004206840F480702060FFF7D2FE8C
:1018B000054600BF206810F4807607D1FFF7CAFE06
:1018C000401B0328F6D3032516B933E000258EB359
:1018D000B86810F4407012D0D9F8401088420BD08C
:1018E000B868B96820F4407041F48031B960B968D3
:1018F00021F48031B960B860C00703D111E0002045
:10190000C0070ED0FFF7A6FE064641F2893400BF9D
:10191000B868800705D4FFF79DFE801BA042F7D36F
:1019200003253DB9B868D9F8401020F44070084349
:101930000025B860B8F1000F05D157F8300C20F041
:10194000805047F8300CD9F80000C10712D1810748
:1019500019D4410720D4010727D481062ED441068B
:1019600035D401063CD4C10543D481054AD4410590
:1019700051D460E03968D9F8042021F00301114303
:1019800039608107E5D53968D9F8082021F00C01C4
:10199000114339604107DED53968D9F80C2021F0B0
:1019A0003001114339600107D7D53968D9F81020C3
:1019B00021F0C001114339608106D0D53968D9F8CA
:1019C000142021F44061114339604106C9D53968BA
:1019D000D9F8182021F44051114339600106C2D5CD
:1019E0003968D9F81C2021F4404111433960C10500
:1019F000BBD53968D9F8202021F440311143396032
:101A00008105B4D53968D9F8242021F44021114347
:101A1000396041050FD53968D9F8282021F44011E3
:101A20001143B2F5801F396005D157F87C1C41F491
:101A3000801147F87C1C01050FD53968D9F82C2096
:101A400021F440011143B2F5800F396005D157F8F8
:101A50007C1C41F4801147F87C1CC1040FD5396807
:101A6000D9F8302021F040711143B2F1807F396004
:101A700005D157F87C1C41F4801147F87C1C810487
:101A80000FD53968D9F8342021F040611143B2F103
:101A9000006F396005D157F87C1C41F4801147F87C
:101AA0007C1C41040FD53968D9F8382021F04061F9
:101AB0001143B2F1006F396005D157F87C1C41F435
:101AC000801147F87C1C00040FD53868D9F83C1009
:101AD00020F040500843B1F1805F386005D157F8DD
:101AE0007C0C40F4803047F87C0C284601B0BDE8FF
:101AF000F08300002DE9F047002800F0CA8042F290
:101B0000000AC4F2020A0446DAF800000D4600F0AA
:101B10000F0088420DD2DAF8000020F00F002843B1
:101B2000CAF80000DAF8000000F00F00A84240F008
:101B3000B080207841F20808C007C4F202080CD136
:101B40004FF00009206881072BD4B9F1800F41D1F3
:101B5000D8F8000020F0F0003AE06068022800F0B9
:101B60008C80032840F0918058F8080C800140F1E7
:101B7000908001F0E7FC4BF20041C0F2C441884282
:101B80000CD9D8F8000010F0F00F00F08E8020780B
:101B9000800703D5A068002800F087804FF0000977
:101BA0008CE0410705D5D8F8001041F4E061C8F891
:101BB0000010000706D5D8F80000072161F30D20BA
:101BC000C8F80000D8F80000A16820F0F000084331
:101BD000C8F80000DAF8000000F00F00A84219D998
:101BE000DAF8000020F00F002843CAF80000FFF7E1
:101BF00031FD064641F28837DAF8000000F00F00A8
:101C0000A84207D0FFF726FD801BB842F4D9032075
:101C1000BDE8F0872068410707D5D8F80010E268D2
:101C200021F4E0611143C8F80010000708D5D8F886
:101C30000000216920F4605040EAC100C8F80000AB
:101C400000F08AF8D8F8001044F2E412C1F303114E
:101C5000C0F60002515C40F2000201F01F0120FAC0
:101C600001F140F20800C2F200000068C2F2000276
:101C70001160FFF713FDBDE8F08758F8080C8003EA
:101C80005CBF0120BDE8F08706E058F8080C40056D
:101C900002D40120BDE8F08700F05EF84BF200416D
:101CA000C0F2C44188427FF679AFD8F8000008211D
:101CB00061F307104FF08009C8F80000D8F8000061
:101CC000616820F003000843C8F80000FFF7C2FC79
:101CD000064641F2883700BFD8F80000616800F07E
:101CE0000C00B0EB810F3FF42DAFFFF7B3FC801B6E
:101CF000B842F1D90320BDE8F087000040F20000AF
:101D0000C2F200000068704780B5FFF7F7FF41F2AC
:101D10000801C4F20201096844F2F412C1F302217D
:101D2000C0F60002515C01F01F01C84080BD0000F8
:101D300080B5FFF7E3FF41F20801C4F20201096830
:101D400044F2F412C1F3C221C0F60002515C01F06A
:101D50001F01C84080BD000041F20C01C4F2020125
:101D600051F8040C00F00C00042842F20040C0F2CC
:101D7000F40008BF704751F8042C02F00C02082A46
:101D80001AD051F8042C02F00C020C2A1CBF0020BF
:101D900070470A680A680B68C2F303120132B0FB8D
:101DA000F2F00968C3F306225043C1F341610222F5
:101DB00002EB4101B0FBF1F0704700002DE9F0416A
:101DC00082B0002800F001810446007841F200064C
:101DD000C007C4F2020654D12078800772D420785C
:101DE000000700F195802078400700F1B38020784B
:101DF000800600F10081E569002D00F01882B068CE
:101E000000F00C000C2840F05981012D00F0DD801D
:101E1000F068216A00F003028A4240F0D680626ACC
:101E20006FF00F0300F0F00103EB0212914240F05B
:101E3000CC80A16A00F4FE42B2EB012F40F0C580D5
:101E4000E16A00F07842B2EBC16F40F0BE80226BD5
:101E50000023CFF6E07303EB025200F4C0016FF3EE
:101E60001402914240F0B180616B4FF07E4202EB70
:101E7000016100F0C06001F07E41884240F0A58021
:101E8000D5E1B06800F00C01F068082959D00322B0
:101E900081F00C0122EA00000844B0FA80F0400909
:101EA0004FD16568B5F5A02F00F0D380B5F5803F20
:101EB00000F0D380306820F480303060306820F447
:101EC0008020CDE0B068F16800F00C00042866D0F6
:101ED00001F0030180F00C0081F002010844B0FA27
:101EE00080F040095BD1E1683068002900F0D380C0
:101EF00040F480703060FFF7ADFB05463068400568
:101F000000F1FE80FFF7A6FB401B0228F6D930E166
:101F10006169D6F89400002900F0898040F0010042
:101F2000C6F89400FFF796FB054600BFD6F894006C
:101F300080073FF558AFFFF78DFB401B0228F5D90E
:101F400017E1306880037FF547AF606800287FF4B1
:101F500043AF3AE0B06D10F0805808D1B06D40F05A
:101F60008050B065B06D00F080500190019847F24C
:101F70000007C4F200073868C0052AD4386840F466
:101F800080703860FFF766FB054600BF3868C00503
:101F90001FD4FFF75FFB401B0228F7D9E9E0306848
:101FA000400501D5E06880B17068216920F0FE40ED
:101FB00040EA0160706040F20800C2F20000006870
:101FC000FFF76CFB00283FF40AAF012002B0BDE828
:101FD000F081A568052D00F0B080012D00F0B380E0
:101FE000D6F8900020F00100C6F89000D6F89000D6
:101FF00020F00400ABE0A169D6F89800002900F0B9
:10200000878040F00100C6F89800FFF723FB0546E3
:10201000D6F8980080073FF5EEAEFFF71BFB401B9C
:1020200002284FF00300F3D902B0BDE8F08120F0A0
:102030000100C6F89400FFF70DFB0546D6F89400A2
:1020400080077FF5D0AEFFF705FB401B0228F5D9CE
:102050008FE0306840F480203060306840F4803099
:102060003060FFF7F7FA002D054610D03068800386
:102070003FF5B2AEFFF7EEFA401B6428F6D978E0E0
:10208000FFF7E8FA401B64284FF00300CCD8306813
:102090008003F5D4A0E620F480703060FFF7DAFA10
:1020A000054600BF306840057FF599AEFFF7D2FACC
:1020B000401B02284FF00300F4D9B5E7306820F048
:1020C00080703060FFF7C6FA022D05460CD100BFC4
:1020D0003068800167D5FFF7BDFA401B02284FF03A
:1020E0000300F5D9A0E700BF3068800140F1988077
:1020F000FFF7B0FA401B02284FF00300F4D993E732
:102100007068216920F0FE4040EA0160706066E678
:1021100020F00100C6F89800FFF79CFA054600BFC2
:10212000D6F8980080077FF566AEFFF793FA401B5C
:1021300002284FF00300F3D976E7D6F8900040F07C
:102140000400C6F89000D6F8900040F00100C6F8F0
:102150009000FFF77FFA002D054641F2883715D031
:10216000D6F89000800715D4FFF774FA401BB842E8
:10217000F6D9032002B0BDE8F08100BFFFF76AFA8C
:10218000401BB8424FF003003FF64EAFD6F8900028
:102190008007F3D4B8F1000F7FF429AEB06D20F0C2
:1021A0008050B06523E6F06848F20C01C0F29F1140
:1021B00004F1200700EA010C8ECF6FF00F00D4E984
:1021C0000C5400EB02100022CFF6E07241EA0C0141
:1021D00002EB055208436FF314024FF07E4540EACC
:1021E000032005EB0465104305F07E4540EAC76017
:1021F0002843F060306840F080703060F06840F054
:102200008070F060FFF726FA0446306880010ED433
:10221000FFF720FA001B02284FF00300F5D903E76F
:10222000F0684FF6FC71CFF6EE610840F0600020D8
:1022300002B0BDE8F081000080B501F0A1F980BDD9
:10224000704700007047000070470000B0B590F87C
:102250003C20012A04BF0220B0BD012280F83C20AE
:10226000D1E90232D1E900CE22F47C5223F470533A
:1022700043EA020448F2FF73CEF6F0730EEA03025B
:10228000224303F5006404EA0C0442EA040C0C69DE
:1022900003F5C05222404C6942EA0C02224303F586
:1022A000605422400C6B03F5F04323401A438B69C2
:1022B00040F2000CCC69CEF6FF7C0CEA03431443D9
:1022C000D0F800C043F20042C4F20102944543EA50
:1022D000040305D042F60042C4F20102944516D12F
:1022E0004FF6FF72CDF60F421A40D1E9083ED1E910
:1022F0000A410025CDF6F04505EA0454224323F0B7
:1023000008531A432EF000531A4342EA01030021F6
:10231000CCF8443080F83C100846B0BD704700004F
:10232000704700007047000070B590F83C20012A0B
:102330004FF002024AD0012380F83C3080F83D2063
:10234000026843F2004C54689368C4F2010C42F6F0
:10235000004E6245C4F2010E01D0724503D14D68B2
:1023600024F470042C434FF68F75CFF6FF550E689A
:102370002C4042F6FF35C4F201053443AA425460B2
:102380000FDCB2F1804F16D040F20046C4F20006D6
:10239000B24210D040F60006C4F20006B2420AD0A3
:1023A0000EE0724507D044F20006C4F20106B242C4
:1023B00001D0624504D1896823F0800319439160FC
:1023C0000121002280F83D1080F83C20104670BDAD
:1023D00070470000002804BF0120704710B5044674
:1023E00090F83D0028B9002084F83C00204600F019
:1023F00023F8022084F83D002068211D01F022F915
:10240000012084F8480084F83E0084F83F0084F8F6
:10241000400084F8410084F8420084F8430084F8C6
:10242000440084F8450084F8460084F8470084F8A6
:102430003D00002010BD000080B582B0006842F66B
:102440000041C4F20101884201D002B080BD41F2D6
:102450006000C4F202000168002241F400610160E2
:102460000068002100F40060019001981920FFF736
:1024700061F91920FFF75AF902B080BD10B5044682
:1024800090F83C0001284FF0020008BF10BD0B4639
:10249000012184F83C1084F83D002068882281687E
:1024A000CFF6CE721140816019686F290DDD1F22B1
:1024B000C0F21002914217DCB1F5005F26DA7029F4
:1024C00040D0B1F5805F5BD03AE02F2918DD4F296D
:1024D00021DC302952D0402932D15968DA6801F024
:1024E000CFFA2068402149E03F22C0F21002914219
:1024F0001CDC2022C0F2100291423FD030221BE0AF
:10250000E1B310293AD0202938D019E025D0B1F113
:10251000101F33D014E050292AD0602910D15968F7
:10252000DA6801F0D1FA2068602127E04022C0F289
:102530001002914222D07022C0F2100291421DD0AE
:1025400001201EE0D3E90121DB6801F001F92068D8
:10255000816841F07701816012E0D3E90121DB68F5
:1025600001F0F6F82068816841F48041816007E05D
:102570005968DA6801F084FA2068502101F0F4F813
:102580000020012184F83D10002184F83C1010BD8A
:1025900070470000F0B581B004460068C76806695E
:1025A00006EA0705A90731D4680700F185802807E6
:1025B00000F19B80E80600F1B080E80706D02068B3
:1025C0006FF001010161204600F086F917F08007E5
:1025D00018BF16F4025006D020686FF40251016152
:1025E0002046FFF72FFE002F18BF16F4807019D178
:1025F000680620D4A80627D4E8022ED4A80235D431
:1026000068023CD4280243D401B0F0BD6FF002014F
:102610000161012121778069800742D02046FFF7C0
:10262000B7FF44E020686FF4807101612046FFF736
:1026300007FE6806DED520686FF040010161204684
:1026400000F04CF9A806D7D520686FF02001016191
:102650002046FFF7F9FDE802D0D520686FF480111D
:1026600001612046FFF75CFEA802C9D520686FF41F
:10267000001101612046FFF751FE6802C2D52068B3
:102680006FF4800101612046FFF74CFE2802BBD5A4
:1026900020686FF4000101612046FFF799FE01B048
:1026A000F0BD204600F082F8204600F013F900202B
:1026B000207768077FF57BAF20686FF00401016128
:1026C00002212177806910F4407F03D02046FFF774
:1026D0005FFF05E0204600F069F8204600F0FAF8B8
:1026E0000020207728077FF565AF20686FF008018C
:1026F000016104212177C069800703D02046FFF7DC
:1027000047FF05E0204600F051F8204600F0E2F8CF
:1027100000202077E8067FF550AF20686FF01001A9
:10272000016108212177C06910F4407F03D0204661
:10273000FFF72EFF05E0204600F038F8204600F0B5
:10274000C9F800202077E8077FF439AF3EE70000A2
:1027500080B586B0006842F60042C4F20102002152
:102760009042CDE90411CDE90211019101D006B0EA
:1027700080BD41F24C00C4F20200026842F0040243
:102780000260006800F00400009000980F200190A3
:102790000220CDE90201CDE9041040F60000C4F6A4
:1027A000000001A9FEF77EFE06B080BD7047000064
:1027B000B0B5044690F83C00012804BF0220B0BD2B
:1027C0000D464FEAB2010120052984F83C0048D8A3
:1027D000DFE801F0030B131B23332068294600F0C8
:1027E000CFFF206850F8181F1EE02068294601F02E
:1027F00009F8206850F8181F26E02068294601F0E3
:102800004BF8206850F81C1F0EE02068294601F0A4
:102810008DF8206850F81C1F16E02068294601F04A
:10282000CFF8206850F8501F41F00801016001689E
:1028300021F00401016029690FE02068294601F0B8
:10284000EFF8206850F8501F41F400610160016802
:1028500021F4806101602969090202681143016065
:102860000020002184F83C10B0BD0000002804BF07
:102870000120704710B5044690F83D0028B90020AB
:1028800084F83C00204600F023F8022084F83D0044
:102890002068211D00F0D6FE012084F8480084F84D
:1028A0003E0084F83F0084F8400084F8410084F83A
:1028B000420084F8430084F8440084F8450084F81A
:1028C000460084F8470084F83D00002010BD000059
:1028D000704700007047000070470000704700001C
:1028E00090F88410012904BF022070472421C0F809
:1028F000881002681168136823F00103136021F047
:1029000000530021416613602022C0F8882080F81F
:1029100084100846704700007047000070470000B0
:10292000B0B5044690F88400012804BF0220B0BD71
:10293000012084F884002420C4F8880020680568F9
:10294000026822F001020260826822F06062114394
:102950008160204601F0DCF8206805602020C4F882
:102960008800002084F88400B0BD0000B0B50446A3
:1029700090F88400012804BF0220B0BD012084F833
:1029800084002420C4F8880020680568026822F0CA
:1029900001020260826822F0604211438160204699
:1029A00001F0B6F8206805602020C4F888000020F7
:1029B00084F88400B0BD000070470000704700003C
:1029C0007047000070B503680446D96940F62F00CF
:1029D0001E68D3F808E0084020280CD106F020003B
:1029E0000EF08052801806D0616F002900F0AE8092
:1029F0002046884770BD40F60F00084000F08E80EA
:102A00000120C1F200000EEA000C40F22010C0F2DA
:102A10000040304010EB0C0000F08080C80718BF69
:102A200016F4807007D001201862D4F8900040F0AE
:102A30000100C4F8900088070EF0010208D53AB1F1
:102A400002201862D4F8900040F00400C4F890000E
:102A5000480708D53AB104201862D4F8900040F035
:102A60000200C4F8900008070CD506F0200050EAD8
:102A70000C0007D008201862D4F8900040F008003D
:102A8000C4F8900008050BD516F0806008D04FF40C
:102A900000601862D4F8900040F02000C4F8900064
:102AA000D4F89000002851D011F020001EBF06F08D
:102AB00020000EF0805110EB010040F0FE802068F5
:102AC000D4F89010806801F0280100F04000401810
:102AD00000F0EC80204601F01FF920688068400675
:102AE00040F1C980206850E8020F216820F04000C2
:102AF00041E80202002AF5D1D4F88000002800F055
:102B0000BA8043F60D51C0F600018163FEF7C8FBA1
:102B1000E0B1D4F88000816B884770BDE06E06EAB2
:102B20000102D5063FD501283DD1102018629868D2
:102B3000400644D4B4F85C00B4F85E10B4F85E20EB
:102B4000002A1CBF401A5FEA004101D170BD00BFDE
:102B5000216851E8001F226821F4907142E80013B7
:102B6000002BF5D14FF6FE71CEF6FF71226852E8C8
:102B7000022F23680A4043E80226002EF6D12021C6
:102B8000C4F88C100021E166616700BF216851E83C
:102B9000001F226821F0100142E80013002BF5D13C
:102BA0000221216755E0C80258D51EF4800055D097
:102BB0004FF4801018622046FFF700FF70BDD4F874
:102BC0008000006841688AB2002A58D0B4F85C30AE
:102BD0009A4254D2A4F85E100068800632D400BF36
:102BE000206850E8000F216820F4807041E800025E
:102BF000002AF5D1206850E8020F216820F001007A
:102C000041E80202002AF5D1206850E8020F21684D
:102C100020F0400041E80202002AF5D12020C4F84B
:102C20008C000020E06600BF206850E8000F21689B
:102C300020F0100041E80002002AF5D1D4F880000D
:102C4000FEF7F2FA02202067B4F85C00B4F85E10D8
:102C5000401A81B22046FFF75FFE70BD08061AD504
:102C600006F080000EF40003C01814D0A16F0029F4
:102C70007FF4BEAE6AE72046FFF7A2FE70BDB4F84F
:102C80005C1091427FF462AF006880067FF55EAF12
:102C900002202067DEE7500616D4080218D516F089
:102CA000804015D02046FFF787FE70BD2046FFF715
:102CB00087FE0020C4F8900070BD616F00293FF4CA
:102CC000FEAE20468847FAE6204601F053F870BD74
:102CD000C8017FF53BAFB6F1FF3FC8BF70BD2046CE
:102CE000FFF71CFE70BD000010B5D8B10446D0F847
:102CF000880028B9002084F88400204600F026F8D7
:102D00002420C4F888002068A16A026822F0010229
:102D1000026011B1204600F025FF204601F03EF888
:102D2000012801D1012010BD2068416821F49041A3
:102D30004160816821F02A018160016841F0010150
:102D40000160204600F082FF10BD0000B0B598B0D1
:102D50000446002502A844211795CDE91555CDE973
:102D60001355FDF721FB206843F60001C4F2010171
:102D7000884201D018B0B0BD0120CDE9020502A8FB
:102D8000FEF76EFD002818BFFDF7C8FB41F24C00AE
:102D9000C4F20200416941F480414161416901F49A
:102DA000804101910199016841F0020101600068D0
:102DB00013A900F0020001900198C0201390022096
:102DC00014900020CDE915000720179040F2004034
:102DD000C4F60000FEF766FB252000210022FEF766
:102DE000A9FC2520FEF7A2FC18B0B0BD704700007A
:102DF000FEE7000081684FF6C072C5F6FF72114011
:102E00008160704781684FF6C072C6F6FF7211404C
:102E100001F180518160704740F20830C5F2000036
:102E2000006800F0E070704740F20830C5F2000022
:102E3000006800F0E070704740F20830C5F2000012
:102E4000006800F46040704740F20830C5F20000AE
:102E5000006800F01F00704700EB8100006E00F07A
:102E6000F840704700EB8100006E00F0F8407047BA
:102E70008068C0F3C00070478068C0F3C00070472E
:102E8000C06C00F4C070B0FA80F0400970470000D8
:102E90008068C0F340707047806800F001007047A0
:102EA000806800F0010070478068C0F300707047D0
:102EB0008068C0F3800070478068C0F3800070476E
:102EC000C06800F44060B0FA80F04009704700002C
:102ED000C1F3012300EB8300D0F830C001F01F01E3
:102EE0001F238B40C2F384622CEA030302FA01F130
:102EF0001943016370470000C1F3406300EB830096
:102F0000D0F814C0C1F3045107238B402CEA03030B
:102F100002FA01F11943416170470000C1F34063B7
:102F200000EB8300D0F814C0C1F3045107238B4099
:102F30002CEA030302FA01F11943416170470000D2
:102F400080B54FF6FF7ECB43D0F8B0C0C0F2070E7D
:102F500002F0180263EA0E032EFA02F203EA0C03EF
:102F600011401943C0F8B01080BD000080B54FF685
:102F7000FF7ECB43D0F8B0C0C0F2070E02F01802BB
:102F800063EA0E032EFA02F203EA0C03114019431E
:102F9000C0F8B01080BD000040F20831C5F2000159
:102FA0000A6822F47C1210430860704740F208312E
:102FB000C5F200010A6822F0E07210430860704711
:102FC00040F20831C5F200010A6822F0E0721043B5
:102FD0000860704700EB8100D0F860C04FF200013C
:102FE000C0F2FF3102F0F84201EA0C011A4311432A
:102FF00041F000410166704700EB8100D0F860C0ED
:103000004FF20001C0F2FF3102F0F84201EA0C0178
:103010001A43114341F000410166704700EB810003
:10302000016E21F0007111430166704700EB8100D1
:10303000016E21F0007111430166704700EB8100C1
:10304000016E21F0807111430166704700EB810031
:10305000016E21F0807111430166704700EB810021
:10306000016E21F0004101667047000000EB810015
:10307000016E21F00041016670470000426922F0B4
:103080000042114341617047426922F000421143FE
:1030900041617047B0B598B0002401A83C21CDE94A
:1030A0001644CDE91444CDE91244CDE91044FDF7AE
:1030B0007BF940F2700040F20011C2F20000C5F24C
:1030C00000014FF4403280E816004FF48071012374
:1030D000042581830321C0E90344C0E90535016269
:1030E00080F82440C0E90B4480F83830C46380F88D
:1030F0004040FDF711FF002818BFFDF70FFA40F61A
:103100000000C2F630601090062011900520129049
:103110007F20CDE9130540F27000C2F2000010A933
:103120001594FDF72DFC002818BFFDF7F7F941F2C3
:103130000000C3F2602010900C20119040F270004B
:10314000C2F2000010A9FDF71BFC002818BFFDF714
:10315000E5F948F20000C3F6F060109012201190DB
:1031600040F27000C2F2000010A9FDF709FC00282F
:1031700018BFFDF7D3F90820C0F690400190092050
:103180007F210290002004910421CDE90510022145
:1031900003900991ADF828008DF82A0080218DF860
:1031A000340040F27000CDE90B11C2F2000001A919
:1031B000FDF7BCF9002818BFFDF7B0F90020C4F2F4
:1031C0005270019040F20F10029040F27000C2F273
:1031D000000001A9FDF7AAF9002818BFFDF79EF924
:1031E00018B0B0BD80B582B041F24800C4F2020010
:1031F0000168002241F004010160016801F004014E
:1032000001910199016841F001010160006800210C
:1032100000F00100009000980B20FEF78BFA0B20C5
:10322000FEF784FA02B080BD2DE9F04387B0002795
:1032300041F24C000697CDE90477CDE90277C4F25C
:103240000200016840F2004941F004010160016898
:10325000C4F6000901F0040101910199016809F522
:10326000806441F0200101600168002201F020012A
:103270000191019901684FF4604641F0010101603C
:10328000016801F0010101910199016841F0020119
:10329000016000684FF4604100F002000190019865
:1032A0002046FEF7D1F94FF09040072100224FF061
:1032B0000708FEF7C9F94846012100220125FEF75B
:1032C000C3F9CDE9026502AE20463146CDE9047767
:1032D000FEF7E8F84FF090403146CDE90285CDE9A0
:1032E0000477FEF7DFF848463146CDE90255CDE9CF
:1032F0000477FEF7D7F84FF48050CDE9020748462F
:1033000031460497FEF7CEF84FF40070CDE902077E
:10331000204631460497FEF7C5F807B0BDE8F083B4
:1033200010B59CB0002401A83421CDE91A44CDE9A0
:103330001844CDE91644CDE91444CDE91244CDE951
:103340001044CDE90E44FDF72FF840F23C1042F650
:103350000041C2F20000C4F201012022C0E90014C1
:1033600000F1080141F29A034FF0010C4FF0800E7A
:1033700081E81C50FFF72EF8002818BFFDF7CEF8A3
:103380004FF48050189040F23C10C2F2000018A98F
:10339000FFF774F8002818BFFDF7C0F840F23C10A2
:1033A000C2F20000FFF762FA002818BFFDF7B6F876
:1033B0002020159040F23C100024C2F2000015A914
:1033C000CDE91644FEF7B0FF002818BFFDF7A6F8B8
:1033D0007020CDE90E0440F23C10C2F200000EA9AC
:1033E0000022CDE91044CDE912441494FFF7E0F92E
:1033F000002818BFFDF792F840F23C10C2F200001E
:103400000EA90422FFF7D4F9002818BFFDF786F8AB
:1034100040F23C10C2F200000EA90822FFF7C8F9E2
:10342000002818BFFDF77AF840F23C10C2F2000005
:103430000EA90C22FFF7BCF9002818BFFDF76EF8A3
:1034400000204FF40051CDE906104FF000710590B7
:10345000CDE90300CDE90100CDE90800CDE90A106E
:10346000CDE90C0040F23C10C2F2000001A9FEF7C9
:10347000EDFE002818BFFDF751F840F23C10C2F2F3
:103480000000FFF765F91CB010BD000080B540F2E8
:10349000881043F60001C2F20000C4F201010023CB
:1034A0004FF00C0C4FF4E13280E80E00C0E903331A
:1034B000C0E905C3C0E90733C0E90933FFF714FCCD
:1034C000002818BFFDF72AF840F28810C2F2000069
:1034D0000021FFF74BFA002818BFFDF71FF840F254
:1034E0008810C2F200000021FFF71AFA002818BF66
:1034F000FDF714F840F28810C2F20000FFF7F0F96F
:10350000002818BFFDF70AF880BD0000FEE70000A4
:10351000FEE7000000F0070080F00703042B28BF3F
:1035200004234FF0FF3C03380CFA03F338BF0020AC
:10353000994381400CFA00F022EA000008437047EA
:103540007047000041F20C00C4F2020001680168FB
:1035500042F20042C1F303110131C0F2F4020368E8
:10356000B2FBF1F10068C3F306225143C0F341609E
:10357000022202EB4000B1FBF0F070477047000000
:10358000B0B501380024B4EB106F1CBF0120B0BDF2
:103590004EF21005CEF2000568604FF0FF300F21AB
:1035A00000F0E2FD0720AC6028602046B0BD0000BE
:1035B00080B5FEF755F880BD70B594B006AC2046D6
:1035C0003821FCF7F1FE002500200595CDE90355D3
:1035D000CDE90155FEF7C2F8012006904FF4803086
:1035E0000421079002200F9155210D900326CDE96B
:1035F0001010CDE9120020460E96FEF7DFFB68B9E9
:103600000F20CDE9010601A80421CDE90355059558
:10361000FEF770FA002804BF14B070BDFCF77EFFFF
:103620004EF68850CEF20000016841F4700101604E
:103630007047000080B540F23C10C2F20000FEF777
:10364000A9FF80BD80B540F2FF7ED0F800C0C4F273
:10365000000E704512DD40F60002C4F200029042F6
:1036600015D043F20042C4F2010290420FD042F65C
:103670000042C4F20102904209D00DE0B0F1804F47
:1036800005D040F20042C4F20002904204D14A68E0
:103690002CF0700342EA030C43F2FF32C4F2010241
:1036A000904209DC704516DCB0F1804F28D040F222
:1036B0000042C4F2000221E044F2FF32C4F20102EF
:1036C000904211DC43F20042C4F20102904217D052
:1036D00044F2000210E040F60002C4F20002904200
:1036E0000ED042F6004207E044F60002C4F20102A6
:1036F000904205D044F20042C4F20102904204D14B
:10370000CA682CF4407342EA030C8A680B68D1F84B
:1037100014E0C262A0F18042A2F596324FEAB222D2
:10372000072A836207D8012303FA02F212F0E50F99
:103730001CBF0969016302682CF0800142F0040299
:1037400041EA0E01026001224261016080BD000079
:10375000D0F808C011432CF47F4C41EA032141EA20
:103760000C0181607047000082684FF68873CFF6C5
:10377000CF731A40114341F0070181607047000088
:10378000B0B5036A026AA0F1804422F0010202622D
:103790004268D0F818C08D68A4F59634D1F800E0DE
:1037A00023F002034FEAB424072C43EA05030CD8A4
:1037B0000125A54015F0E50F07D0056A23F00803A1
:1037C00025F004050562CD682B43072C0BD8012595
:1037D00005FA04F414F0E50F1FBF22F44072D1E99A
:1037E000054522432A434FF68C74CFF6FE740CEA4B
:1037F000040545EA0E05426085614968416303623C
:10380000B0BD0000B0B5036A026A43F2004422F082
:1038100010020262C4F201044268D0F818C0A0424B
:103820008C68D1F800E023F0200343EA041305D0AC
:1038300042F60044C4F20104A04208D1046A23F015
:10384000800324F040040462CC6843EA0413A0F12E
:103850008044A4F596344FEAB424072C0DD80125F2
:1038600005FA04F414F0E50F1FBF22F44062D1E919
:10387000054542EA840242EA850248F6FF44CFF653
:10388000FF640CEA040545EA0E254260856149683B
:1038900081630362B0BD0000B0B5036A026A43F2FF
:1038A000004422F480720262C4F201044268D0F83B
:1038B0001CC0A0428C68D1F800E023F4007343EAF6
:1038C000042305D042F60044C4F20104A04208D10A
:1038D000046A23F4006324F480640462CC6843EA3D
:1038E0000423A0F18044A4F596344FEAB424072CB5
:1038F0000DD8012505FA04F414F0E50F1FBF22F4DA
:103900004052D1E9054542EA041242EA05124FF657
:103910008C74CFF6FE740CEA040545EA0E0542608D
:10392000C5614968C1630362B0BD0000B0B5036AF8
:10393000026A43F2004422F480520262C4F201049B
:103940004268D0F81CC0A0428C68D1F800E023F493
:10395000005343EA043305D042F60044C4F20104A4
:10396000A04208D1046A23F4004324F48044046292
:10397000CC6843EA0433A0F18044A4F596344FEABE
:10398000B424072C0DD8012505FA04F414F0E50F32
:103990001FBF22F44042D1E9054542EA841242EABF
:1039A000851248F6FF44CFF6FF640CEA040545EAA9
:1039B0000E254260C561496801640362B0BD000024
:1039C00070B5D0F820C0026AA0F1804522F48032A0
:1039D0000262A5F596354268036D0C68D1F808E0DF
:1039E0004FEAB525072D0AD8012606FA05F515F088
:1039F000E50F1EBF4D6922F4803242EA05224FF6E0
:103A00008F75CFF6FE752B402343426003652CF47F
:103A10000036496846EA0E428164026270BD0000C9
:103A200070B5D0F820C0026AA0F1804522F480125F
:103A30000262A5F596354268036D0C68D1F808E07E
:103A40004FEAB525072D0AD8012606FA05F515F027
:103A5000E50F1EBF4D6922F4802242EA852248F616
:103A6000FF75CFF6FF652B4043EA042342600365F0
:103A70002CF40016496846EA0E52C164026270BD19
:103A800010B5D0F820C0036A23F0010EA0F18043E6
:103A9000A3F596334FEAB324072CC0F820E008D8EA
:103AA0000123A34013F0E50F1EBF036A23F00403B4
:103AB0000362836923F0F00343EA02122CF00A0345
:103AC00019438261016210BD80B5D0F820C0D0F8E2
:103AD00020E043F20043C4F2010398422EF01003A9
:103AE000036205D042F60043C4F20103984203D1B9
:103AF000036A23F040030362836923F4704343EABB
:103B000002322CF0A00343EA01118261016280BD00
:103B100080B5416E01B3016844F2142C8A6889684B
:103B2000C0F6000C490F44F21C2E1CF80130C0F600
:103B3000000E1EF80110C2F34262DB00B3FBF1F38A
:103B40001CF802101EF80220C900B1FBF2F1A0F827
:103B50006A30A0F8681080BD0121A0F86A10A0F8B2
:103B6000681080BD80B5816A0A070CD4CA0715D1D8
:103B70008A071ED44A0727D4CA0630D48A0639D405
:103B80004A0657D541E00268D0F838C0536823F49C
:103B9000004343EA0C035360CA07E9D00268D0F837
:103BA0002CC0536823F4003343EA0C0353608A07A4
:103BB000E0D50268D0F830C0536823F4803343EA7C
:103BC0000C0353604A07D7D50268D0F834C0536855
:103BD00023F4802343EA0C035360CA06CED502685F
:103BE000D0F83CC0936823F4805343EA0C039360FD
:103BF0008A06C5D50268D0F840C0936823F4005304
:103C000043EA0C0393604A0614D50268D0F844C016
:103C10005368BCF5801F23F4801343EA0C03536000
:103C200008D1D2F804C0D0F848E02CF4C00343EA2D
:103C30000E035360090658BF80BD0168C06C4A6816
:103C400022F400221043486080BD0000B0B582B06D
:103C500004460020C4F89000FDF7FCFC21680546EE
:103C6000096809071BD56FF07E4C20464FF4001100
:103C700000222B46CDF800C000F0F2F978B100BF69
:103C8000206850E8000F216820F0800041E8000221
:103C9000002AF5D12020C4F88800032031E02068F4
:103CA0000068400725D56FF07E4C20464FF4800118
:103CB00000222B46CDF800C000F0D2F9C8B100BFF9
:103CC000206850E8000F216820F4907041E800025D
:103CD000002AF5D1206850E8020F216820F0010089
:103CE00041E80202002AF5D12020C4F88C0003200C
:103CF00007E02020C4F88800C4F88C000020E066AB
:103D00002067002184F8841002B0B0BD80B5806ABD
:103D1000FEF756FE80BD0000016851E8001F0268F2
:103D200021F4907142E80013002BF5D14FF6FE7C90
:103D3000CEF6FF7C026852E8022F036802EA0C020A
:103D400043E802210029F5D1C16E01290AD100BF43
:103D5000016851E8001F026821F0100142E80013D9
:103D6000002BF5D12021C0F88C100021C1664167DD
:103D70007047000080B500BF016851E8001F02686D
:103D800021F0400142E80013002BF5D12021C0F8BA
:103D9000881000218167FFF729F880BDF0B581B058
:103DA00004462269D4E90213006867690A43E1699D
:103DB0003A43076846F6F316CCF6FF760A433740D7
:103DC0003A43026042684FF2FF4622F440521A43DF
:103DD000426048F20002A369C4F2000290421CBF94
:103DE000276A3B438768C1F2FF1637403B43836035
:103DF000C36A676A23F00F033B43C36244F6FF3391
:103E0000C4F2000398424FF0100314DD44F600475B
:103E1000C4F20007B84221D0904226D043F60007F2
:103E2000C4F20107B84232D141F28803C4F202035E
:103E30001B6887A727E044F20047C4F20007B84296
:103E40001AD044F60007C4F20007B8421FD141F26D
:103E50008803C4F202031B681B0913E041F28803C4
:103E6000C4F202031B689B090CE041F28803C4F210
:103E700002031B689B0A05E041F28803C4F20203B7
:103E80001B689B086EA703F0030357F8233090428A
:103E900042F20040C0F2F40011D0B1F5004F1DD144
:103EA000082B00F26F800025DFE803F00568766CD0
:103EB0006F6C6C6C73000025FDF726FF6CE0082B1F
:103EC0001BD80027DFE803F0051920191D1919195F
:103ED00051000027FDF718FFB8B94BE0082B00F29E
:103EE00081800025DFE803F0057A887E817E7E7E72
:103EF00085000025FDF708FF7EE00020012720B99E
:103F000038E00027FDF728FFA0B3616A44F2FC12F5
:103F1000C0F6000232F811206668B0FBF2F106EB41
:103F2000460399424FF00105C0F080803303994267
:103F30007CD800210023FCF7BFF9090241EA106197
:103F4000000210EB560041F1000132460023FCF75D
:103F5000B3F94FF6FF42A0F54071C0F20F02914253
:103F60000AD821683D46C86060E04FF40040002751
:103F70000028CAD13D4659E0012557E00025FDF74C
:103F8000D7FE09E00020012506E00025FDF7E4FE4C
:103F900002E04FF400400025002847D0616A44F257
:103FA000FC12C0F6000232F811106268B0FBF1F0AA
:103FB000510801EB4000B0FBF2F04FF6EF72A0F1B8
:103FC0001001914208D84FF6F0710140C0F3420051
:103FD00022680844D06029E0012527E00025FDF78C
:103FE000A7FE09E00020012506E00025FDF7B4FE4C
:103FF00002E04FF400400025C0B1616A44F2FC12B7
:10400000C0F6000232F811106268B0FBF1F000EB6C
:104010005200B0FBF2F04FF6EF72A0F110019142A6
:1040200003D8216880B2C86000E001254FF001107C
:104030000021A06661672846A16701B0F0BD00BFFE
:104040000000000004000000020000000800000062
:104050000100000004000000020000000800000051
:104060002DE9F04381B004460068C0690840401A59
:10407000B0FA80F0400990423DD1DDF8208015462D
:104080000E46994608F1010709E000BF2068C069A3
:104090003040801BB0FA80F04009A8422FD1002F99
:1040A000F4D0FDF7D7FA0146B8F1000F4FF0030046
:1040B00026D0A1EB0901414522D8206801684907B3
:1040C000E4D5402EE2D0802EE0D0C16909071AD491
:1040D000C1690905DAD54FF4006101622046FFF796
:1040E0001BFE2020C4F89000002084F884000320E8
:1040F00001B0BDE8F083002001B0BDE8F0830020EE
:1041000001B0BDE8F083082505622046FFF704FEF4
:104110000020C4F8905084F88400012001B0BDE86C
:10412000F083000080B540F28810C2F20000FEF774
:1041300049FC80BDFEE70000002848BF704700F042
:104140001F01012202FA01F14EF200124009CEF2E3
:10415000000242F8201070474EF60C50CEF20000DC
:104160000068C0F3022070474EF6145300F00F02AF
:10417000CEF2000309011A4400F16043B0F1FF3FA1
:10418000C8BF03F564421170704700004EF60C5131
:10419000CEF200010A684FF6FF031A4060F30A22CC
:1041A00042F0806040F0FD7008607047FDF766FAED
:1041B000FFF702FAFFF738F8FFF714F8FFF7B0F847
:1041C000FFF764F9FEF766FFFEE7F1EE100A4FF61F
:1041D000FF71C0F2C03120EA010040F04070E1EE12
:1041E000100A7047000000000000000001020304F4
:1041F0000607080900000000010203040100020094
:104200000400060008000A000C0010002000400016
:1042100080000001010101030701000008040204FD
:1042200008010101484200080000002010000000C1
:104230001402000858420008100000201008000076
:1042400030020008000000000024F400010000001B
:08425000100000000000000056
:04000005080001D915
:00000001FF
