:020000040800F2
:10000000780800209D020008C53E0008453700081A
:10001000C13E0008D50C0008F94A000800000000A5
:10002000000000000000000000000000313F000858
:100030006D0D000800000000F53E0008653F000857
:10004000B7020008B7020008B7020008B7020008AC
:10005000B7020008B7020008B7020008B70200089C
:10006000B7020008B7020008B7020008D90C000860
:10007000B7020008B7020008B7020008B70200087C
:10008000B702000800000000C50C0008B702000815
:10009000B7020008B7020008B7020008B70200085C
:1000A000B7020008E93F0008B7020008B7020008DD
:1000B000F93F0008B7020008B7020008B7020008BD
:1000C000B7020008B7020008B7020008B70200082C
:1000D000B7020008E94A0008B7020008B7020008A2
:1000E000B7020008B7020008B7020008B70200080C
:1000F000B7020008B7020008B702000800000000BD
:1001000000000000B702000800000000B70200086D
:10011000B702000800000000B7020008B70200089C
:10012000B7020008B7020008B7020008B7020008CB
:10013000B70200080000000000000000B70200083D
:10014000B7020008B702000800000000000000002D
:10015000000000000000000000000000000000009F
:10016000000000000000000000000000B7020008CE
:10017000B7020008000000000000000000000000BE
:1001800000000000B70200080000000000000000AE
:10019000000000000000000000000000000000005F
:1001A0000000000000000000B7020008B7020008CD
:1001B000B7020008B7020008B702000800000000FC
:1001C00000000000B702000800000000000000006E
:1001D000B7020008B702000800F002F800F04FF87C
:1001E0000AA090E8000C82448344AAF10107DA4592
:1001F00001D100F044F8AFF2090EBAE80F0013F095
:10020000010F18BFFB1A43F001031847805200008A
:10021000A0520000103A24BF78C878C1FAD852071B
:1002200024BF30C830C144BF04680C607047000070
:100230000023002400250026103A28BF78C1FBD8EF
:10024000520728BF30C148BF0B607047662905F0D0
:10025000A680752900F0E480732900F0C183002096
:1002600070471FB505F08EF800F0BEFB04000020BB
:10027000002105F071F8E0601FBD10B510BD00F061
:10028000B3FC1146FFF7EDFF04F074FC00F0D1FC65
:1002900003B4FFF7F2FF03BC04F06AFC094880478F
:1002A00009480047FEE7FEE7FEE7FEE7FEE7FEE758
:1002B000FEE7FEE7FEE7FEE704480549054A064B70
:1002C00070470000D53F0008D901000878020020DF
:1002D000780800207804002078040020704753EA52
:1002E000020C00F069802DE9F04B4FF00006002B66
:1002F0001FBFB3FA83F503FA05F424FA05F65E404E
:1003000012BF1643B2FA82F502FA05F4C5F12005D0
:100310001EBF22FA05FC44EA0C04203556EA044CC0
:100320004FEA144418BF641C4FF000084FF0000956
:10033000904271EB030C39D3002919BFB1FA81F750
:1003400001FA07F6B0FA80F700FA07F6C7F12007BE
:100350001EBF20FA07FC46EA0C062037B6FBF4FC69
:10036000A7EB0507103F07F01F0BCBF120062CFA77
:1003700006F60CFA0BFB44BFB3460026202FA4BFA1
:100380005E464FF0000B5BEA060C08BF4FF0010B16
:1003900019EB0B0948EB0608ABFB027C06FB02CC11
:1003A0000BFB03CCC01B71EB0C01C1E70B460246F3
:1003B00041464846BDE8F08B13B5084318BF4FF0DF
:1003C000FF300146AFF30080BDE81C40704770B5B8
:1003D0000C460546012A05D02878800600D5EA6932
:1003E000002302E0012305E05B1C934202D2E05CA3
:1003F0000028F9D1A869E618C01AA861286A18442B
:1004000028622846AFF3008004E0D5E9012114F802
:10041000010B9047B442F8D32846AFF3008070BD7B
:100420002DE9F0410646002410687529314616A5CD
:1004300010D0AFF30080002802DA404213A507E095
:1004400031688A0701D512A502E0490704D511A534
:10045000012401E0AFF3008000210A2206F1240705
:1004600009E0B0FBF2FCB0FBF2F302FB1C00303001
:1004700078541846491C0028F3D123462A463046B2
:10048000BDE8F04100F033B8000000002D0000008E
:100490002B000000200000004FF0000200B51346C2
:1004A00094469646203922BFA0E80C50A0E80C5094
:1004B000B1F12001BFF4F7AF090728BFA0E80C5045
:1004C00048BF0CC05DF804EB890028BF40F8042B3E
:1004D00008BF704748BF20F8022B11F0804F18BFAB
:1004E00000F8012B704770477047704770472DE93F
:1004F000F0470D4699469246044600F124080168EB
:10050000880604D5E06921F01001216000E0012097
:10051000A84201DD471B00E00027A1697A1902EB20
:100520000900081AA0612078C00602D42046AFF363
:100530000080002608E0D4E901211AF8060090475F
:10054000206A401C761C20624E45F4DB2078C006F1
:100550000AD52046AFF3008006E0D4E9012130201F
:100560009047206A401C2062381EA7F10107F4DC86
:1005700007E0D4E9012118F805009047206A401CE3
:100580002062281EA5F10105F3DC2046AFF30080B0
:100590002078000602D50220BDE8F0870120FBE7A5
:1005A0002DE9FF4F0C461E464FF0FF378BB0D2E9C6
:1005B0000001DDF860800A908A46C1F30A5505B94A
:1005C0003D46002108464FF00000BAF1000F00F44C
:1005D000400005DA00EB80004FF4400101EA5000D2
:1005E0004FEA9059B9F1010F00DDB9460A9850EA77
:1005F0004A000ED044F61050A5F2FF3545432F14A3
:10060000B8F1000F1ED07542291E1EDDC9F100028F
:100610001CE0B8F1010F4FF0000001D0302103E0E1
:10062000F24305E02154401CB042FBDB304600227F
:10063000002121540B99C1F80880C1E900200FB0B6
:10064000BDE8F08FBD1B6D1CDEE74A4600DA69424B
:1006500006A800F053FA06AB93E8070003AB83E863
:10066000070050460A9904F096FA8DE80700A0F5B5
:1006700000501F3800900398002D0ADD42F21F0140
:100680004A460844002303A90390684604F000FD8D
:1006900009E0A0F500504A461F38002303A9039043
:1006A000684604F00AFD8DE807000004000C03D042
:1006B0004FF0FF30410800E01046B8F1000F03D0C2
:1006C0000022009215461EE0751E05D400F090F938
:1006D000303262556D1EF9D5B3460122084302D06F
:1006E00000227F1C04E02078302801D100227F1EE8
:1006F000002A099784D01DE0112D07DA00F078F95F
:10070000303262556D1C50EA0102F5D1084302D027
:100710000098C8B10EE00021681E05E0235C625C11
:1007200063542254401E491C8142F7DBAB46A81B90
:10073000401E0990002004F80B000B98099AC0F89D
:100740000880C0E9002B7AE711264FF0000857E730
:100750002DE9F04F88460446D21D22F0070191B0E2
:10076000D1E90001CDE90A0104F0DEFD02460B9853
:10077000C00F01D02D2007E02068810701D52B2074
:1007800002E0202101EAC000032A099001D0072AD3
:1007900005DB03464146204600F070F90BE1207866
:1007A000800601D5E06900E00620B8F1650F8146BA
:1007B00006D0B8F1660F18D0B8F1670F70D131E0EC
:1007C0000020B9F1110F009001DB112301E009F1C4
:1007D00001030AAA01A90CA8FFF7E2FEDDE90C70EB
:1007E000002609F10105834647E001204B460090B1
:1007F0004FF000470AAA01A90CA8FFF7D1FEDDE9D6
:100800000DB00C995D46002610B909F101000D18D4
:10081000B9EB050003D4C0F1FF3609F10105A5EBE2
:1008200009002BE0B9F1010F01DA4FF001090020B6
:10083000B9F1110F0090484601DD112300E0034695
:100840000AAA01A90CA8FFF7ABFEDDE90C704D4622
:1008500000268346207800070AD4AB4500DA5D46BF
:1008600001A8012D04DD411911F8011C302907D020
:100870004F4502DA17F1040F04DA012082460FE037
:100880006D1EEEE7002F02DCED1B3E4403E0781CFA
:10089000A84200DD7D1CB81B00F1010A4FF00047A3
:1008A0002078000703D4AA4501DB4FF0FF3A00216E
:1008B000B7F1004F0DF143088DF8431024D002200A
:1008C0002B23002F01DA7F422D230A21021EA0F1E3
:1008D000010000DC5FB197FBF1FC97FBF1F201FB3B
:1008E0001C7C17460CF1300C08F801CDEEE7A8F19E
:1008F000010003702188090501D5452100E065212B
:10090000A0F1010800F8011C09980FA9A1EB080744
:10091000FF1D00B10120411901EBEA70A1693844C3
:10092000081A401EA0612078C00602D42046AFF30A
:100930000080099828B1D4E901219047206A401C21
:1009400020622078C00622D52046AFF300801EE04A
:10095000002E04DBB34502DD01A8805D00E03020FD
:10096000D4E901219047206A401C2062761CAAF13C
:1009700001005FEA000A0AD100F036F8C068016899
:10098000405CD4E901219047206A401C2062281E67
:10099000A5F10105DCDC07E0D4E9012118F8010B21
:1009A0009047206A401C2062381EA7F10107F3DC43
:1009B0002046AFF30080032011B041E610B5436933
:1009C00013B1AFF3008001E0FFF701FD012010BD7E
:1009D000127800F124010A7000224A700122EDE72A
:1009E00011684FF0FF32E9E70048704730000020FF
:1009F00030B5B0F10A0271F100034FEA900E4EEAF1
:100A0000817EB0EB0E0061EB91014FEA101E4EEAC1
:100A1000017E10EB0E0041EB11114FEA102E4EEA51
:100A2000016E10EB0E0041EB11214FEA104E4EEA21
:100A3000014E10EB0E0041EB1141401841F1000155
:100A40004FEAD00040EA41704FEAD1014FEA8104F9
:100A500044EA907410EB800544EB01046D1944EBFB
:100A60000404521BA3414FF0000348BF0A3200D5D3
:100A700030BD401C41F1000130BD00002DE9F041C6
:100A80001F46044603260168072A01F4006004DBC0
:100A900008B116A505E016A503E008B115A500E00C
:100AA00015A521F010002060A069C01EA0610FB143
:100AB000401EA0612046AFF300804FB1D4E9012170
:100AC00038469047206A401C2062C01C206206E025
:100AD000206AFAE7D4E9012115F8010B9047761E48
:100AE000F8D22046AFF30080BDE8F0814E414E00C1
:100AF0006E616E00494E4600696E66002DE9F04752
:100B0000814616468AB0354878440DC88DE80D00F8
:100B100032487844801C03AC0DC884E80D0041F6CF
:100B20009B300844372190FBF1F290FBF1F5A5F1E1
:100B3000800501FB12041B3C02D56442012000E049
:100B40000020DFF898A080460027FA44AAF1BE0AE8
:100B50000EE0E0070AD03246684607EB4701012362
:100B60000AEB810104F0A9FA8DE8070064107F1CEC
:100B7000002CEED1194F7F44AE3F19E0E80715D0A5
:100B800007EB04100DF1180A90E80E008AE80E0039
:100B9000C068F04201D1981908903246012306A995
:100BA00003A804F08AFA03AB83E807006D10641C05
:100BB000002DE3D14FF0010332466946B8F1000F32
:100BC00003A802D004F064FA01E004F076FAC9E95F
:100BD0000001C9F808200AB0BDE8F08714490000F8
:100BE00000487047100000207546FFF7F9FFAE4639
:100BF00005006946534620F00700854618B020B529
:100C0000FFF75AFBBDE820404FF000064FF0000709
:100C10004FF000084FF0000BAC46ACE8C009ACE860
:100C2000C009ACE8C009ACE8C00921F007018D4655
:100C3000704710B50446AFF300802046BDE8104071
:100C4000FFF726BB0000000030B44FF0013C50F825
:100C5000042B51F8043BCCFA52F4D51A20D1FCB93C
:100C600050F8042B51F8043BCCFA52F4D51A17D1A2
:100C7000B4B950F8042B51F8043BCCFA52F4D51A0D
:100C80000ED16CB950F8042B51F8043BCCFA52F455
:100C9000D51A05D1002CDAD030BC4FF000007047D7
:100CA00029BAB1FA81F111F01801D1F12000844084
:100CB000F2D1CA40CB4012F0FF0213F0FF0330BC68
:100CC000D01A704780B540F27800C2F2000000F000
:100CD0009DFC80BDFEE7000080B540F2E400C2F25A
:100CE000000000F0B3FF80BD80B501686FF007021F
:100CF0004CF6CD4352FA81F2CCF6CC43A2FB03234F
:100D000040F2084ED0F844C00622C4F2020E02EBB4
:100D1000131271450EF5836138BF1A0938BF0EF5FD
:100D20007E712CF0030303EB010C02F01F02012182
:100D30000EF58F639140C0E912C3016580BD0000CC
:100D4000416840F6001201F07F010139C4F202024D
:100D500002EB810302F1400C01F01F01012202FAB3
:100D600001F1C0E9153CC165704700007047000003
:100D7000EFF3108072B600BFFEE70000002070475E
:100D800000207047704700002DE9F04381B0044611
:100D90000020009094F85800012802D14FF0020979
:100DA00010E260690D46012184F8581010B1296ADB
:100DB000012919D16868092840D12868A96A4FF427
:100DC000785202EA504021B1EA6A01F07C011143F5
:100DD0000843216844F20003CA6CC0F210431A4071
:100DE0000243CA64606629E0A06E00284FF000004C
:100DF0000AD1AA6A6066A1F10100A16622B102F0DF
:100E00007C01EA6A08431043D5E9002101F01F0183
:100E1000C2F3846202FA01F10843D4E919210139CD
:100E200040EA0200C4E9190108D1216844F2000334
:100E3000CA6CC0F210431A401043C864206802F024
:100E4000C5FC98B92068C16895F8252095F826302A
:100E500021F44011002A4FEA435201D0114304E02B
:100E600095F82430114341EA0351C160206802F033
:100E7000CDFC21680646084602F0A8FC304302D0AB
:100E80004FF00009EEE0A86A60B1E86A50B195F849
:100E9000250001280FD1E06D4FF0010940F020003E
:100EA000E0650FE0206895F82520C168012A04D18B
:100EB00041F0007103E02068C16821F000714FF03B
:100EC0000009C160206895F830200169012A08D125
:100ED000D5E90D2321F4FF711143194341F00201BB
:100EE00001E021F002010161AB68296803F10040D3
:100EF000B0FA80F047092068B3F1004218BF1A46E3
:100F0000FF0702F0B5FC2068394602F067FD206853
:100F100029696B69C268042940F08E804FF6FF781A
:100F20000021C0F2070802F047FC21680746084686
:100F3000002102F041FC7A0390FAA0F12A68B1FA8C
:100F400081F108BFC0F3846192FAA2F0B0FA80F098
:100F5000530308BFC2F38460814203D1206800219B
:100F600002F02EFD2068012102F026FC21680746D0
:100F70000846012102F020FC90FAA0F12A68B1FA9B
:100F800081F117EA080F08BFC0F3846192FAA2F05A
:100F9000B0FA80F012EA080F08BFC2F38460814201
:100FA00003D12068012102F00BFD2068022102F02C
:100FB00003FC216807460846022102F0FDFB90FA77
:100FC000A0F12A68B1FA81F117EA080F08BFC0F34F
:100FD000846192FAA2F0B0FA80F012EA080F08BF1A
:100FE000C2F38460814203D12068022102F0E8FC50
:100FF0002068032102F0E0FB216807460846032130
:1010000002F0DAFB90FAA0F12A68B1FA81F117EA4E
:10101000080F08BFC0F3846192FAA2F0B0FA80F022
:1010200012EA080F08BFC2F3846081421AD1206817
:10103000032102F0C5FC15E0062707EA92072A689B
:10104000BB4002F083FC20682969AA6902F0A8FC71
:101050002A7F2068013AB2FA82F2296952095206BF
:1010600002F08EFC206802F0C5FB00284DD12068FC
:101070002968EA6802F024FCE8680021C4F27F01D4
:10108000884242D1D5F800E04FF080619EFAAEF27E
:101090007346B2FA82F76FF3DF433A462068002BBB
:1010A00008BF4FEA9E62561C01EB826106F01E0CDF
:1010B00001F0F84206F01F010126BCF1090F06FA03
:1010C00001F60DD842EA0601002B08BF4FEA9E67E1
:1010D0007A1C02F01F0202EB420241EA025111E0C7
:1010E000002B08BF4FEA9E67791C01F01F01002307
:1010F00001EB4101CFF6206303EB01513243114371
:1011000041F00071AA6802F0B3FB688848F2080158
:10111000084254D002F032FB29680022CCF221327E
:10112000914204D01022C9F2C002914222D102029F
:1011300020D42168B1F1A04F41D140F4000002F069
:10114000E9FB40F20000C2F20000006842F6635181
:101150008009C0F23E51A0FB0101880900EB40006C
:10116000182101EB800000BF0090009838B3009870
:101170000138F9E70022CCF25272914208BF10F018
:10118000807211D00022CCF68432914208BF10F454
:10119000800114D1216840F20012C5F20002914290
:1011A0000DD040F4800008E0216840F20012C5F242
:1011B0000002914203D040F0807002F0ABFB0020AF
:1011C00084F85800484601B0BDE8F083B0B5054644
:1011D000006840F20011C5F20001884218BFB0BD9E
:1011E000FFF7CCFD04462846092100F01FF824F83B
:1011F000080F284640F20F1100F018F840F2700175
:10120000608045F27840C2F20001C0F60000098813
:10121000C06800EE101A8168B8EE400A204684EDDE
:10122000080A884784ED070AB0BD000040F20F129B
:1012300091420CD040F2152291420CD040F21B3268
:101240000068914214BF80308C300068704700689D
:10125000843000687047006888300068704700007C
:10126000704700007047000070470000F0B581B083
:1012700004460020009094F85800012802D1022072
:1012800001B0F0BD20680D46012184F8581002F02D
:10129000B9FA48B1E06D40F02000E065012000217E
:1012A00084F8581001B0F0BD2068D5E9002102F0A3
:1012B000B9FA206802F0A6FA21680646084602F04C
:1012C00081FA304340F0B880AB68296803F10040F0
:1012D000B0FA80F047092068B3F1004218BF1A46FF
:1012E000FE0702F0B3FA2068314602F071FB206875
:1012F00029696B69C268042940F088804FF6FF773E
:101300000021C0F2070702F051FA2168064608469C
:10131000002102F04BFA720390FAA0F12A68B1FAA8
:1013200081F108BFC0F3846192FAA2F0B0FA80F0B4
:10133000530308BFC2F38460814203D120680021B7
:1013400002F036FB2068012102F030FA21680646DF
:101350000846012102F02AFA90FAA0F12A68B1FAAF
:1013600081F13E4208BFC0F3846192FAA2F0B0FA64
:1013700080F03A4208BFC2F38460814203D1206802
:10138000012102F015FB2068022102F00FFA21680A
:1013900006460846022102F009FA90FAA0F12A68EE
:1013A000B1FA81F13E4208BFC0F3846192FAA2F023
:1013B000B0FA80F03A4208BFC2F38460814203D1A0
:1013C0002068022102F0F4FA2068032102F0EEF90D
:1013D000216806460846032102F0E8F990FAA0F1D8
:1013E0002A68B1FA81F13E4208BFC0F3846192FAE3
:1013F000A2F0B0FA80F03A4208BFC2F384608142A2
:101400001AD12068032102F0D3FA15E0062707EA73
:1014100092072A68BB4002F087FA20682969AA6906
:1014200002F0B6FA2A7F2068013AB2FA82F22969FC
:101430005209520602F09CFA206802F0D7F90028FF
:101440004DD120682968EA6802F024FAE868002192
:10145000C4F27F01884242D1D5F800E04FF08061AC
:101460009EFAAEF27346B2FA82F76FF3DF433A4662
:101470002068002B08BF4FEA9E62561C01EB826178
:1014800006F01E0C01F0F84206F01F010126BCF127
:10149000090F06FA01F60DD842EA0601002B08BF33
:1014A0004FEA9E677A1C02F01F0202EB420241EAF9
:1014B000025111E0002B08BF4FEA9E67791C01F032
:1014C0001F01002301EB4101CFF6206303EB015123
:1014D0003243114341F00071AA6802F0B7F96888FD
:1014E00048F20801084232D002F040F92A6800218F
:1014F000CCF221318A42014604D01020C9F2C0004A
:10150000824207D1080205D42068B0F1A04F2DD047
:101510000020C4E60020CCF25270824208BF11F0D5
:10152000807016D00020CCF6843082424FF000004C
:1015300008BF11F480027FF4B2AE206840F20012BE
:10154000C5F20002904236D041F480000AE000204B
:10155000A5E6206840F20012C5F20002904228D0B1
:1015600041F0807002F0CCF9002098E641F40000D0
:1015700002F0C6F940F20000C2F20000006842F634
:1015800063518009C0F23E51A0FB0101880900EBC4
:1015900040000C2101EB80000090009868B100BF72
:1015A000009801380090009800284FF00000F7D113
:1015B00075E6002073E6002071E600206FE600006B
:1015C00010B5006840F20011C5F20001884218BF52
:1015D00010BDFFF7D3FB0446FFF7D2FB40F27001CA
:1015E000C2F200014A889FED071A00EE102AB8EEF9
:1015F000400A80EE010A8988A281018084ED0B0AED
:1016000010BD00BF00F07F45704700002DE9F0419C
:10161000044600680568466802F0C0F806EA050757
:10162000B90705460CD5E06DC00603D4E06D40F463
:101630000060E0652046FFF7A5FB206802210160FD
:1016400040F200187807C5F2000858BF5FEA07703B
:1016500044D5E06DC00603D4E06D40F40070E06551
:10166000206802F0D7F898B320680146404508BFCB
:101670004FF0A041814218BF0946002D08BF014626
:10168000052D08BF0146092D08BF0146C968890418
:101690001ED4016809071BD502F0B4F840B1E06D13
:1016A00040F01000E065206E40F0010020660FE081
:1016B0002068416821F00C014160E06D20F48070E9
:1016C000E065E06DC00403D4E06D40F00100E0652A
:1016D0002046FFF775FF20680C210160B80658BF4F
:1016E0005FEA476050D5E06DC00603D4E06D40F47A
:1016F0000050E065206802F06DF821680646084653
:1017000002F088F8216825F001030A46414508BF28
:101710004FF0A0428A4218BF1246002D08BF0A4669
:10172000062B08BF0A46D26846B3930103D528B3F7
:1017300012F4005022D1086892021FD410F0400029
:101740001CD0084602F03EF840B1E06D40F01000B9
:10175000E065206E40F0010020660FE020684168DF
:1017600021F060014160E06D20F48050E065E06DA3
:10177000C00503D4E06D40F00100E0652046FFF7AE
:1017800025FD206860210160380606D4F80510D4D4
:10179000B8051BD4F8063AD525E0E06D40F480305A
:1017A000E065204600F03AF9206880210160F805E4
:1017B000EED5E06D40F40030E0652046FFF752FDC5
:1017C00020684FF480710160B805E3D5E06D40F406
:1017D0008020E0652046FFF747FD20684FF4007148
:1017E0000160F80613D5E06B18B12DB301F0CEFF00
:1017F00050B1E06D40F48060E065206E40F0020082
:1018000020662046FFF700FF206810210160780560
:1018100058BFBDE8F0812068E16D41F48041E16589
:10182000216E41F0080121664FF48061016020467D
:10183000FFF716FDBDE8F0812068C06800F00100E8
:101840000028D6D1E0E7000070B582B00446002041
:101850000190CCB1E06D30B9204600F0E1F80020F5
:10186000206684F85800206801F0BCFF10B12068A1
:1018700001F06AFF206801F0C1FF38B1206801F073
:10188000BDFFF0B1002525E00125C3E0206801F08F
:1018900063FF40F20000C2F20000006842F66351AC
:1018A0008009C0F23E51A0FB01018809022101EB31
:1018B000400000BF019001980028DFD00198013856
:1018C000F8E7E06D012540F01000E065206E40F083
:1018D00001002066206801F095FFE16D01F0100124
:1018E0000843E06D03D040F01000012591E020F4A2
:1018F00081700230E065206801F078FF78B94FF020
:10190000A04001F073FF064640F20010C5F200004F
:1019100001F06CFF304302D1606801F0E7FF607FA7
:10192000E16B41EA4030D4E90221084394F82410E5
:101930001043012940EA014106D1A06A0022CFF6F6
:10194000FE7202EB40400143E06A28B100F4787077
:10195000226B084340EA02012068626BC36844F2CC
:101960000706CFF6F07633401943C160016921F0D4
:1019700040611143016101F025FFD8BB94F83800A4
:10198000217F400040EA813220682169C36844F227
:101990000206B3431A43C260026949B142F480327D
:1019A0000261D0F8C02043F6FF739A43114307E069
:1019B00022F480310161D0F8C01043F6FF729143E8
:1019C000C0F8C01094F840200169012A0FD140F2FC
:1019D000FD7204F1440621EA020C4CCE216D42EA6C
:1019E0000C021A433243114341F0010101E021F09E
:1019F0000101016120686169026B012922F00F0178
:101A000002D1226A013A11430163E06D012161F3C1
:101A10000100E065284602B070BD0000704700007C
:101A20002DE9F04397B0044600201690CDE914004C
:101A3000CDE9120001A84421FEF72EFD206840F2F6
:101A40000011C5F20001884202D017B0BDE8F08352
:101A50004FF4004001904FF00050109001A800F0AA
:101A600097FB002818BFFFF783F941F24C00C4F23E
:101A70000200016812AD41F40051016001684FF0AD
:101A8000030901F40051009100990168002741F019
:101A900001010160016801F00101009100990168F4
:101AA00041F004010160016801F004010091009916
:101AB000016841F0020101600068294600F002005F
:101AC00000900098502012904FF09040CDF84C902C
:101AD000149700F07FF940F20046C4F600064FF07C
:101AE000200806F580602946CDE91289149700F098
:101AF00071F948F20400CDE91209304629461497DD
:101B000000F068F940F2E4050820C2F20005C4F2D2
:101B1000020024214FF4807385E8830005F114004E
:101B200080224FF4806680E848012846C5E90372A8
:101B30002F6200F0E1F8002818BFFFF719F9122012
:101B4000002100226565AC6200F08CFA122000F0E2
:101B500085FA17B0BDE8F083002804BF0120704764
:101B600080B590F82510022924D10168D0E910CE63
:101B7000826C0B6823F001030B600B6823F00E03EB
:101B80000B60116821F4807111600EF01F010122B9
:101B900002FA01F1CCF80410D0E913215160416D33
:101BA00031B10A6822F480720A60D0E916124A60E4
:101BB000002102E00421C1630121012280F82520D7
:101BC000002280F82420BDE88040084670470000CD
:101BD00080B590F8251002292DD10168D0E910CEEA
:101BE000826C0B6823F001030B600B6823F00E037B
:101BF0000B60116821F4807111600EF01F02012149
:101C000001FA02F2CCF80420D0E913325A60426D96
:101C100032B1136823F480731360D0E91623536044
:101C200080F82510826B002180F824100AB19047BB
:101C30000021084680BD0421C1630121002280F8F3
:101C4000251080F82420084680BD0000B0B5026849
:101C5000D0E910C4DCF80050136804F01F0E5907D7
:101C600012D5042101FA0EF414EA05010CD0116812
:101C7000890603D4116821F004011160CCF80440F6
:101C8000016BB9B38847B0BD990718D5022101FA95
:101C90000EF414EA050112D01168890606D4116801
:101CA00021F00A011160012180F82510CCF80440D0
:101CB000C16A002280F82420E1B18847B0BD19072D
:101CC00058BFB0BD082101FA0EF1294012D01168A9
:101CD00021F00E011160012101FA0EF2CCF804206E
:101CE000C16380F82510416B0022002980F8242070
:101CF00018BF8847B0BD0000002804BF012070470E
:101D00002DE9F04140F2000C0446C4F2020C0068D8
:101D10004FF6F8330CF58162CBF6FD73904238BF75
:101D200003F5806303EB00024CF6CD43CCF6CC43C5
:101D3000A2FB032304F1080E0CF580616FF003058C
:101D40009EE804413CBF0021C4F2020105EA93036E
:101D5000C4E91013022184F82510016847F6F073D6
:101D6000994304F114071143E8CF41EA080141EA1D
:101D70000E01194329433143394301602046FEF7E0
:101D8000B3FFA06804F14803B0F5804F04BF002002
:101D9000606060680ECB00F07F07013803280F6099
:101DA000536009D82046FEF7CBFF04F1540207CA5E
:101DB000002303604A6003E00020C4E91500E065E9
:101DC00000200121E06384F8251084F82400BDE898
:101DD000F08100002DE9F04F83B00D68002D00F078
:101DE000C88000F138424FEAB22241F20047019226
:101DF000C4F600070622002600244FF00108B8426E
:101E000008BF0522009209E00D68043435FA08F293
:101E100008F1010806F1020600F0AB80A8F1010C00
:101E2000012202FA0CFB15EA0B09EDD0D1F804A04F
:101E30000AF00305A5F1010EBEF1010F11D8876864
:101E40000322CB68B24027EA0202B3401A43826001
:101E50004268CAF3001322EA0B0203FA0CF31A4396
:101E60004260032D02D18A68012A08D0C268032388
:101E70008F68B3409A4307FA06F31A43C260022DF3
:101E800011D16FF0030202EA5C02024404F01C0765
:101E90000F23D2F820E003FA07F50B692EEA0505B7
:101EA000BB402B431362026803234F68B3409A433D
:101EB00007F00303B3401A4317F4403F0260A3D076
:101EC00041F26003C4F202031A6840F2004E42F08D
:101ED00001021A601A68C4F2010E02F001020292B5
:101EE000029A2CF003024FF6084A7244CFF6FF7AAA
:101EF00052F80A3004F00C070F25BD4023EA050C08
:101F0000019B009D052B38BF1D4605FA07F747EAE0
:101F10000C0342F80A30DEF808204B6842EA090751
:101F200040F20C4CDD0258BF22EA0907CEF80870D7
:101F3000C4F2010CDCF800209D0242EA090758BFF8
:101F400022EA0907CCF80070DEF804209D0342EA7B
:101F5000090758BF22EA0907CEF80470DEF800200E
:101F6000DB0342EA090758BF22EA0907CEF80070EE
:101F70004AE703B0BDE8F08F1823002A08BF2823E2
:101F8000C150704740F27020C2F2000000687047F4
:101F900040F2040040F27021C2F20000C2F20001DF
:101FA00000680A68104408607047000080B503208C
:101FB00000F068F80F2000F009F800281CBF01208D
:101FC00080BD00F02FF8002080BD0000B0B540F2C9
:101FD0000401C2F20001096801B3044640F20000A6
:101FE000C2F200004FF47A720068B2FBF1F1B0FB6C
:101FF000F1F000F0B9FD0F2C4FF001050CD858B9E5
:102000004FF0FF3021460022002500F02BF840F26F
:102010000800C2F2000004602846B0BD0125284631
:10202000B0BD000080B582B041F25800C4F2020099
:10203000816841F001018160816801F00101019135
:102040000199016841F080510160006800F0805002
:102050000090009800F092F802B080BD80B502F0C8
:102060004DFD80BD70B514460D46064602F056FD86
:102070002946224601F028FF0146304602F056FD6F
:1020800070BD000080B502F063FD80BDB0F5007F3B
:1020900035D0002866D147F20000C4F20000016884
:1020A000D0F8802001F4C06122F48072B1F5806F15
:1020B000C0F8802021D10168012262F34A21016029
:1020C00040F20001C2F200010968322359434DF683
:1020D0008363C4F21B33A1FB031302EB934100BFE4
:1020E00043694A1E8A4203D213F480611146F7D134
:1020F0004069400544BF032070470020704747F205
:102100000000C4F200000168D0F8802001F4C06132
:1021100042F48072B1F5806FC0F88020EDD1016883
:10212000012262F34A21016040F20001C2F2000183
:102130000968322359434DF68363C4F21B33A1FB74
:10214000031302EB934100BF43694A1E8A4203D244
:1021500013F480611146F7D14069400544BF032064
:102160007047CAE747F20000C4F20000016802228B
:1021700062F34A21016000207047000047F2080026
:10218000C4F20000016841F4804101607047000022
:102190002DE9F04381B08146807841F2880700073D
:1021A000C4F2020701D4002565E057F8300C10F0A6
:1021B00080580BD157F8300C40F0805047F8300C65
:1021C00057F8300C00F080500090009847F200045F
:1021D000C4F20004206840F480702060FFF7D2FE53
:1021E000054600BF206810F4807607D1FFF7CAFECD
:1021F000401B0328F6D3032516B933E000258EB320
:10220000B86810F4407012D0D9F8401088420BD052
:10221000B868B96820F4407041F48031B960B96899
:1022200021F48031B960B860C00703D111E000200B
:10223000C0070ED0FFF7A6FE064641F2893400BF64
:10224000B868800705D4FFF79DFE801BA042F7D336
:1022500003253DB9B868D9F8401020F44070084310
:102260000025B860B8F1000F05D157F8300C20F008
:10227000805047F8300CD9F80000C10712D181070F
:1022800019D4410720D4010727D481062ED4410652
:1022900035D401063CD4C10543D481054AD4410557
:1022A00051D460E03968D9F8042021F003011143CA
:1022B00039608107E5D53968D9F8082021F00C018B
:1022C000114339604107DED53968D9F80C2021F077
:1022D0003001114339600107D7D53968D9F810208A
:1022E00021F0C001114339608106D0D53968D9F891
:1022F000142021F44061114339604106C9D5396881
:10230000D9F8182021F44051114339600106C2D593
:102310003968D9F81C2021F4404111433960C105C6
:10232000BBD53968D9F8202021F4403111433960F8
:102330008105B4D53968D9F8242021F4402111430E
:10234000396041050FD53968D9F8282021F44011AA
:102350001143B2F5801F396005D157F87C1C41F458
:10236000801147F87C1C01050FD53968D9F82C205D
:1023700021F440011143B2F5800F396005D157F8BF
:102380007C1C41F4801147F87C1CC1040FD53968CE
:10239000D9F8302021F040711143B2F1807F3960CB
:1023A00005D157F87C1C41F4801147F87C1C81044E
:1023B0000FD53968D9F8342021F040611143B2F1CA
:1023C000006F396005D157F87C1C41F4801147F843
:1023D0007C1C41040FD53968D9F8382021F04061C0
:1023E0001143B2F1006F396005D157F87C1C41F4FC
:1023F000801147F87C1C00040FD53868D9F83C10D0
:1024000020F040500843B1F1805F386005D157F8A3
:102410007C0C40F4803047F87C0C284601B0BDE8C5
:10242000F08300002DE9F047002800F0CA8042F256
:10243000000AC4F2020A0446DAF800000D4600F071
:102440000F0088420DD2DAF8000020F00F00284378
:10245000CAF80000DAF8000000F00F00A84240F0CF
:10246000B080207841F20808C007C4F202080CD1FD
:102470004FF00009206881072BD4B9F1800F41D1BA
:10248000D8F8000020F0F0003AE06068022800F080
:102490008C80032840F0918058F8080C800140F1AE
:1024A000908001F029FD4BF20041C0F2C441884206
:1024B0000CD9D8F8000010F0F00F00F08E802078D2
:1024C000800703D5A068002800F087804FF000093E
:1024D0008CE0410705D5D8F8001041F4E061C8F858
:1024E0000010000706D5D8F80000072161F30D2081
:1024F000C8F80000D8F80000A16820F0F0000843F8
:10250000C8F80000DAF8000000F00F00A84219D95E
:10251000DAF8000020F00F002843CAF80000FFF7A7
:1025200031FD064641F28837DAF8000000F00F006E
:10253000A84207D0FFF726FD801BB842F4D903203C
:10254000BDE8F0872068410707D5D8F80010E26899
:1025500021F4E0611143C8F80010000708D5D8F84D
:102560000000216920F4605040EAC100C8F8000072
:1025700000F08AF8D8F8001045F23842C1F3031190
:10258000C0F60002515C40F2000201F01F0120FA87
:1025900001F140F20800C2F200000068C2F200023D
:1025A0001160FFF713FDBDE8F08758F8080C8003B1
:1025B0005CBF0120BDE8F08706E058F8080C400534
:1025C00002D40120BDE8F08700F05EF84BF2004134
:1025D000C0F2C44188427FF679AFD8F800000821E4
:1025E00061F307104FF08009C8F80000D8F8000028
:1025F000616820F003000843C8F80000FFF7C2FC40
:10260000064641F2883700BFD8F80000616800F044
:102610000C00B0EB810F3FF42DAFFFF7B3FC801B34
:10262000B842F1D90320BDE8F087000040F2000075
:10263000C2F200000068704780B5FFF7F7FF41F273
:102640000801C4F20201096845F24842C1F30221BF
:10265000C0F60002515C01F01F01C84080BD0000BF
:1026600080B5FFF7E3FF41F20801C4F202010968F7
:1026700045F24842C1F3C221C0F60002515C01F0AC
:102680001F01C84080BD000041F20C01C4F20201EC
:1026900051F8040C00F00C00042842F20040C0F293
:1026A000F40008BF704751F8042C02F00C02082A0D
:1026B0001AD051F8042C02F00C020C2A1CBF002086
:1026C00070470A680A680B68C2F303120132B0FB54
:1026D000F2F00968C3F306225043C1F341610222BC
:1026E00002EB4101B0FBF1F0704700002DE9F04131
:1026F00082B0002800F001810446007841F2000613
:10270000C007C4F2020654D12078800772D4207822
:10271000000700F195802078400700F1B380207811
:10272000800600F10081E569002D00F01882B06894
:1027300000F00C000C2840F05981012D00F0DD80E4
:10274000F068216A00F003028A4240F0D680626A93
:102750006FF00F0300F0F00103EB0212914240F022
:10276000CC80A16A00F4FE42B2EB012F40F0C5809C
:10277000E16A00F07842B2EBC16F40F0BE80226B9C
:102780000023CFF6E07303EB025200F4C0016FF3B5
:102790001402914240F0B180616B4FF07E4202EB37
:1027A000016100F0C06001F07E41884240F0A580E8
:1027B000D5E1B06800F00C01F068082959D0032277
:1027C00081F00C0122EA00000844B0FA80F04009D0
:1027D0004FD16568B5F5A02F00F0D380B5F5803FE7
:1027E00000F0D380306820F480303060306820F40E
:1027F0008020CDE0B068F16800F00C00042866D0BD
:1028000001F0030180F00C0081F002010844B0FAED
:1028100080F040095BD1E1683068002900F0D38086
:1028200040F480703060FFF7ADFB0546306840052E
:1028300000F1FE80FFF7A6FB401B0228F6D930E12D
:102840006169D6F89400002900F0898040F0010009
:10285000C6F89400FFF796FB054600BFD6F8940033
:1028600080073FF558AFFFF78DFB401B0228F5D9D5
:1028700017E1306880037FF547AF606800287FF478
:1028800043AF3AE0B06D10F0805808D1B06D40F021
:102890008050B065B06D00F080500190019847F213
:1028A0000007C4F200073868C0052AD4386840F42D
:1028B00080703860FFF766FB054600BF3868C005CA
:1028C0001FD4FFF75FFB401B0228F7D9E9E030680F
:1028D000400501D5E06880B17068216920F0FE40B4
:1028E00040EA0160706040F20800C2F20000006837
:1028F000FFF76CFB00283FF40AAF012002B0BDE8EF
:10290000F081A568052D00F0B080012D00F0B380A6
:10291000D6F8900020F00100C6F89000D6F890009C
:1029200020F00400ABE0A169D6F89800002900F07F
:10293000878040F00100C6F89800FFF723FB0546AA
:10294000D6F8980080073FF5EEAEFFF71BFB401B63
:1029500002284FF00300F3D902B0BDE8F08120F067
:102960000100C6F89400FFF70DFB0546D6F8940069
:1029700080077FF5D0AEFFF705FB401B0228F5D995
:102980008FE0306840F480203060306840F4803060
:102990003060FFF7F7FA002D054610D0306880034D
:1029A0003FF5B2AEFFF7EEFA401B6428F6D978E0A7
:1029B000FFF7E8FA401B64284FF00300CCD83068DA
:1029C0008003F5D4A0E620F480703060FFF7DAFAD7
:1029D000054600BF306840057FF599AEFFF7D2FA93
:1029E000401B02284FF00300F4D9B5E7306820F00F
:1029F00080703060FFF7C6FA022D05460CD100BF8B
:102A00003068800167D5FFF7BDFA401B02284FF000
:102A10000300F5D9A0E700BF3068800140F198803D
:102A2000FFF7B0FA401B02284FF00300F4D993E7F8
:102A30007068216920F0FE4040EA0160706066E63F
:102A400020F00100C6F89800FFF79CFA054600BF89
:102A5000D6F8980080077FF566AEFFF793FA401B23
:102A600002284FF00300F3D976E7D6F8900040F043
:102A70000400C6F89000D6F8900040F00100C6F8B7
:102A80009000FFF77FFA002D054641F2883715D0F8
:102A9000D6F89000800715D4FFF774FA401BB842AF
:102AA000F6D9032002B0BDE8F08100BFFFF76AFA53
:102AB000401BB8424FF003003FF64EAFD6F89000EF
:102AC0008007F3D4B8F1000F7FF429AEB06D20F089
:102AD0008050B06523E6F06848F20C01C0F29F1107
:102AE00004F1200700EA010C8ECF6FF00F00D4E94B
:102AF0000C5400EB02100022CFF6E07241EA0C0108
:102B000002EB055208436FF314024FF07E4540EA92
:102B1000032005EB0465104305F07E4540EAC760DD
:102B20002843F060306840F080703060F06840F01A
:102B30008070F060FFF726FA0446306880010ED4FA
:102B4000FFF720FA001B02284FF00300F5D903E736
:102B5000F0684FF6FC71CFF6EE610840F06000209F
:102B600002B0BDE8F081000080B501F0E3F980BD5E
:102B7000704700007047000070470000B0B590F843
:102B80003C20012A04BF0220B0BD012280F83C2075
:102B9000D1E90232D1E900CE22F47C5223F4705301
:102BA00043EA020448F2FF73CEF6F0730EEA030222
:102BB000224303F5006404EA0C0442EA040C0C69A5
:102BC00003F5C05222404C6942EA0C02224303F54D
:102BD000605422400C6B03F5F04323401A438B6989
:102BE00040F2000CCC69CEF6FF7C0CEA03431443A0
:102BF000D0F800C043F20042C4F20102944543EA17
:102C0000040305D042F60042C4F20102944516D1F5
:102C10004FF6FF72CDF60F421A40D1E9083ED1E9D6
:102C20000A410025CDF6F04505EA0454224323F07D
:102C300008531A432EF000531A4342EA01030021BD
:102C4000CCF8443080F83C100846B0BD7047000016
:102C5000704700007047000070B590F83C20012AD2
:102C60004FF002024AD0012380F83C3080F83D202A
:102C7000026843F2004C54689368C4F2010C42F6B7
:102C8000004E6245C4F2010E01D0724503D14D6879
:102C900024F470042C434FF68F75CFF6FF550E6861
:102CA0002C4042F6FF35C4F201053443AA42546079
:102CB0000FDCB2F1804F16D040F20046C4F200069D
:102CC000B24210D040F60006C4F20006B2420AD06A
:102CD0000EE0724507D044F20006C4F20106B2428B
:102CE00001D0624504D1896823F0800319439160C3
:102CF0000121002280F83D1080F83C20104670BD74
:102D000070470000002804BF0120704710B504463A
:102D100090F83D0028B9002084F83C00204600F0DF
:102D200023F8022084F83D002068211D01F06CF991
:102D3000012084F8480084F83E0084F83F0084F8BD
:102D4000400084F8410084F8420084F8430084F88D
:102D5000440084F8450084F8460084F8470084F86D
:102D60003D00002010BD000010B582B00068B0F139
:102D7000804F14D042F60041C4F20101884224D1B0
:102D800041F25800C4F202008168192441F4006144
:102D90008160806800F40060019001980DE041F2CC
:102DA0005800C4F2020001681C2441F001010160D6
:102DB000006800F0010000900098204600210022E9
:102DC000FFF750F92046FFF749F902B010BD0000A7
:102DD00010B5044690F83C0001284FF0020008BFEF
:102DE00010BD0B46012184F83C1084F83D0020689A
:102DF00088228168CFF6CE721140816019686F29F0
:102E00000DDD1F22C0F21002914217DCB1F5005F08
:102E100026DA702940D0B1F5805F5BD03AE02F29E7
:102E200018DD4F2921DC302952D0402932D1596890
:102E3000DA6801F007FB2068402149E03F22C0F238
:102E4000100291421CDC2022C0F2100291423FD0BD
:102E500030221BE0E1B310293AD0202938D019E004
:102E600025D0B1F1101F33D014E050292AD06029A9
:102E700010D15968DA6801F009FB2068602127E069
:102E80004022C0F21002914222D07022C0F2100201
:102E900091421DD001201EE0D3E90121DB6801F041
:102EA00039F92068816841F07701816012E0D3E947
:102EB0000121DB6801F02EF92068816841F480412E
:102EC000816007E05968DA6801F0BCFA2068502197
:102ED00001F02CF90020012184F83D10002184F834
:102EE0003C1010BD70470000F0B581B0044600688A
:102EF000C768066906EA0705A90731D4680700F123
:102F00008580280700F19B80E80600F1B080E80783
:102F100006D020686FF001010161204600F086F9BB
:102F200017F0800718BF16F4025006D020686FF41F
:102F3000025101612046FFF71DFE002F18BF16F455
:102F4000807019D1680620D4A80627D4E8022ED4B0
:102F5000A80235D468023CD4280243D401B0F0BDA5
:102F60006FF002010161012121778069800742D061
:102F70002046FFF7B7FF44E020686FF480710161DD
:102F80002046FFF7F5FD6806DED520686FF04001AA
:102F90000161204600F04CF9A806D7D520686FF0F3
:102FA000200101612046FFF7E7FDE802D0D5206847
:102FB0006FF4801101612046FFF74AFEA802C9D5CF
:102FC00020686FF4001101612046FFF73FFE6802A0
:102FD000C2D520686FF4800101612046FFF73AFEF8
:102FE0002802BBD520686FF4000101612046FFF77D
:102FF00087FE01B0F0BD204600F082F8204600F0C8
:1030000013F90020207768077FF57BAF20686FF009
:103010000401016102212177806910F4407F03D00F
:103020002046FFF75FFF05E0204600F069F82046E4
:1030300000F0FAF80020207728077FF565AF2068B8
:103040006FF00801016104212177C069800703D076
:103050002046FFF747FF05E0204600F051F82046E4
:1030600000F0E2F800202077E8067FF550AF2068F6
:103070006FF01001016108212177C06910F4407FD1
:1030800003D02046FFF72EFF05E0204600F038F879
:10309000204600F0C9F800202077E8077FF439AF18
:1030A0003EE7000080B586B0006842F60042C4F2F8
:1030B000010200219042CDE90411CDE902110191F4
:1030C00001D006B080BD41F24C00C4F2020002689B
:1030D00042F004020260006800F0040000900098D2
:1030E000072001900220CDE90201CDE9041040F64D
:1030F0000000C4F6000001A9FEF76CFE06B080BD1A
:1031000070470000B0B5044690F83C00012804BFA9
:103110000220B0BD0D464FEAB2010120052984F816
:103120003C0048D8DFE801F0030B131B2333206871
:10313000294601F007F8206850F8181F1EE02068A3
:10314000294601F041F8206850F8181F26E0206851
:10315000294601F083F8206850F81C1F0EE0206813
:10316000294601F0C5F8206850F81C1F16E02068B9
:10317000294601F007F9206850F8501F41F0080176
:103180000160016821F00401016029690FE02068F5
:10319000294601F027F9206850F8501F41F40061DA
:1031A0000160016821F480610160296909020268F7
:1031B000114301600020002184F83C10B0BD0000E4
:1031C000002804BF0120704710B5044690F83D0068
:1031D00028B9002084F83C00204600F023F80220A3
:1031E00084F83D002068211D00F00EFF012084F8C6
:1031F000480084F83E0084F83F0084F8400084F8DA
:10320000410084F8420084F8430084F8440084F8C4
:10321000450084F8460084F8470084F83D0000200B
:1032200010BD0000704700007047000070470000AC
:103230007047000090F88410012904BF02207047F5
:103240002421C0F8881002681168136823F0010374
:10325000136021F000530021416613602022C0F862
:10326000882080F8841008467047000070470000EE
:1032700070470000B0B5044690F88400012804BFF0
:103280000220B0BD012084F884002420C4F8880006
:1032900020680568026822F001020260826822F05C
:1032A000606211438160204601F014F920680560D6
:1032B0002020C4F88800002084F88400B0BD0000FD
:1032C000B0B5044690F88400012804BF0220B0BDC8
:1032D000012084F884002420C4F888002068056850
:1032E000026822F001020260826822F0604211430B
:1032F0008160204601F0EEF8206805602020C4F8C7
:103300008800002084F88400B0BD000070470000F1
:10331000704700007047000070B503680446D96923
:1033200040F62F001E68D3F808E0084020280CD192
:1033300006F020000EF08052801806D0616F002940
:1033400000F0AE802046884770BD40F60F00084070
:1033500000F08E800120C1F200000EEA000C40F265
:103360002010C0F20040304010EB0C0000F08080D4
:10337000C80718BF16F4807007D001201862D4F86F
:10338000900040F00100C4F8900088070EF00102A0
:1033900008D53AB102201862D4F8900040F0040039
:1033A000C4F89000480708D53AB104201862D4F850
:1033B000900040F00200C4F8900008070CD506F019
:1033C000200050EA0C0007D008201862D4F89000C2
:1033D00040F00800C4F8900008050BD516F0806096
:1033E00008D04FF400601862D4F8900040F020003C
:1033F000C4F89000D4F89000002851D011F02000BB
:103400001EBF06F020000EF0805110EB010040F0CE
:10341000FE802068D4F89010806801F0280100F048
:103420004000401800F0EC80204601F057F9206879
:103430008068400640F1C980206850E8020F21688A
:1034400020F0400041E80202002AF5D1D4F88000C3
:10345000002800F0BA8044F2D161C0F60001816317
:10346000FEF7B6FBE0B1D4F88000816B884770BDF1
:10347000E06E06EA0102D5063FD501283DD11020B5
:1034800018629868400644D4B4F85C00B4F85E1042
:10349000B4F85E20002A1CBF401A5FEA004101D147
:1034A00070BD00BF216851E8001F226821F49071AF
:1034B00042E80013002BF5D14FF6FE71CEF6FF71F6
:1034C000226852E8022F23680A4043E80226002EB1
:1034D000F6D12021C4F88C100021E166616700BF9D
:1034E000216851E8001F226821F0100142E8001312
:1034F000002BF5D10221216755E0C80258D51EF4F2
:10350000800055D04FF4801018622046FFF700FF6E
:1035100070BDD4F88000006841688AB2002A58D093
:10352000B4F85C309A4254D2A4F85E100068800669
:1035300032D400BF206850E8000F216820F480706A
:1035400041E80002002AF5D1206850E8020F216806
:1035500020F0010041E80202002AF5D1206850E87D
:10356000020F216820F0400041E80202002AF5D154
:103570002020C4F88C000020E06600BF206850E8DE
:10358000000F216820F0100041E80002002AF5D168
:10359000D4F88000FEF7E0FA02202067B4F85C005F
:1035A000B4F85E10401A81B22046FFF75FFE70BD8E
:1035B00008061AD506F080000EF40003C01814D0D7
:1035C000A16F00297FF4BEAE6AE72046FFF7A2FE96
:1035D00070BDB4F85C1091427FF462AF0068800661
:1035E0007FF55EAF02202067DEE7500616D40802A2
:1035F00018D516F0804015D02046FFF787FE70BD25
:103600002046FFF787FE0020C4F8900070BD616F70
:1036100000293FF4FEAE20468847FAE6204601F036
:103620008BF870BDC8017FF53BAFB6F1FF3FC8BF57
:1036300070BD2046FFF71CFE70BD000010B5D8B16C
:103640000446D0F8880028B9002084F88400204679
:1036500000F026F82420C4F888002068A16A0268D7
:1036600022F00102026011B1204600F05DFF204609
:1036700001F076F8012801D1012010BD20684168D1
:1036800021F490414160816821F02A018160016844
:1036900041F001010160204600F0BAFF10BD0000BA
:1036A000B0B598B00446002502A844211795CDE98D
:1036B0001555CDE91355FCF7EFFE206843F60001E0
:1036C000C4F20101884201D018B0B0BD0120CDE99B
:1036D000020502A8FEF75CFD002818BFFDF748FBB5
:1036E00041F24C00C4F20200416941F48041416161
:1036F000416901F4804101910199016841F00201A1
:103700000160006813A900F0020001900198C02038
:103710001390022014900020CDE915000720179087
:1037200040F20040C4F60000FEF754FB25200021C3
:103730000022FEF797FC2520FEF790FC18B0B0BDE4
:1037400070470000FEE7000081684FF6C072C5F6C2
:10375000FF7211408160704781684FF6C072C6F6F3
:10376000FF72114001F180518160704740F20830D2
:10377000C5F20000006800F0E070704740F20830C9
:10378000C5F20000006800F0E070704740F20830B9
:10379000C5F20000006800F46040704740F2083055
:1037A000C5F20000006800F01F00704700EB8100C8
:1037B000006E00F0F840704700EB8100006E00F0F2
:1037C000F84070478068C0F3C00070478068C0F35D
:1037D000C0007047C06C00F4C070B0FA80F04009BF
:1037E000704700008068C0F340707047806800F048
:1037F00001007047806800F0010070478068C0F3E6
:10380000007070478068C0F3800070478068C0F324
:1038100080007047C06800F44060B0FA80F0400952
:1038200070470000C1F3012300EB8300D0F830C0E3
:1038300001F01F011F238B40C2F384622CEA0303B3
:1038400002FA01F11943016370470000C1F34063BC
:1038500000EB8300D0F814C0C1F3045107238B4060
:103860002CEA030302FA01F1194341617047000099
:10387000C1F3406300EB8300D0F814C0C1F30451DE
:1038800007238B402CEA030302FA01F1194341613B
:103890007047000080B54FF6FF7ECB43D0F8B0C034
:1038A000C0F2070E02F0180263EA0E032EFA02F2CB
:1038B00003EA0C0311401943C0F8B01080BD0000AA
:1038C00080B54FF6FF7ECB43D0F8B0C0C0F2070EF4
:1038D00002F0180263EA0E032EFA02F203EA0C0366
:1038E00011401943C0F8B01080BD000040F208310B
:1038F000C5F200010A6822F47C1210430860704788
:1039000040F20831C5F200010A6822F0E07210436B
:103910000860704740F20831C5F200010A6822F0E1
:10392000E07210430860704700EB8100D0F860C07F
:103930004FF20001C0F2FF3102F0F84201EA0C013F
:103940001A43114341F000410166704700EB8100CA
:10395000D0F860C04FF20001C0F2FF3102F0F8422F
:1039600001EA0C011A43114341F00041016670471E
:1039700000EB8100016E21F0007111430166704778
:1039800000EB8100016E21F0007111430166704768
:1039900000EB8100016E21F08071114301667047D8
:1039A00000EB8100016E21F08071114301667047C8
:1039B00000EB8100016E21F00041016670470000BC
:1039C00000EB8100016E21F00041016670470000AC
:1039D000426922F00042114341617047426922F07E
:1039E0000042114341617047B0B598B0002401A86E
:1039F0003C21CDE91644CDE91444CDE91244CDE98A
:103A00001044FCF749FD40F2780040F20011C2F288
:103A10000000C5F200014FF440320123042580E884
:103A200016000321C0E90344C0E90535848301621F
:103A300080F82440C0E90B4480F83830C46380F833
:103A40004040FDF701FF002818BFFDF791F940F64F
:103A50000000C2F6306010900620119005201290F0
:103A60007F20CDE9130540F27800C2F2000010A9D2
:103A70001594FDF7FBFB002818BFFDF779F941F21B
:103A80000000C3F2602010900C20119040F27800EA
:103A9000C2F2000010A9FDF7E9FB002818BFFDF7EE
:103AA00067F948F20000C3F6F06010901220119000
:103AB00040F27800C2F2000010A9FDF7D7FB002801
:103AC00018BFFDF755F90820C0F690400190092075
:103AD0007F210290002004910421CDE905100221EC
:103AE000099180210390ADF828008DF82A000B91F0
:103AF0004FF480718DF8340040F278000C91C2F2DE
:103B0000000001A9FDF740F9002818BFFDF730F9C2
:103B10000020C4F25270019040F20F10029040F267
:103B20007800C2F2000001A9FDF72EF9002818BFA5
:103B3000FDF71EF918B0B0BD80B582B041F2480063
:103B4000C4F202000168002241F004010160016832
:103B500001F0040101910199016841F00101016046
:103B60000068002100F00100009000980B20FEF793
:103B700079FA0B20FEF772FA02B080BD2DE9F0430E
:103B800087B0002741F24C000697CDE90477CDE9D4
:103B90000277C4F20200016840F2004841F00401DB
:103BA00001600168C4F6000801F004010191019967
:103BB000016808F5806441F020010160016800227D
:103BC00001F020010191019901684FF4604641F034
:103BD00001010160016801F0010101910199016891
:103BE00041F00201016000684FF4604100F0020002
:103BF000019001982046FEF7BFF94FF09040072151
:103C000000224FF00709FEF7B7F9404601210022D4
:103C10000125FEF7B1F9CDE9026502AE2046314635
:103C2000CDE90477FEF7D6F84FF090403146CDE964
:103C30000295CDE90477FEF7CDF840463146CDE94F
:103C40000255CDE90477FEF7C5F84FF48050CDE971
:103C50000207404631460495FEF7BCF84FF4007069
:103C6000CDE90207204631460495FEF7B3F807B0C8
:103C7000BDE8F08310B59CB0002401A83421CDE943
:103C80001A44CDE91844CDE91644CDE91444CDE9F0
:103C90001244CDE91044CDE90E44FCF7FDFB40F29F
:103CA000441042F60041C2F20000C4F20101202299
:103CB0004FF0800CC0E9001400F1080141F29903B3
:103CC0001CC1C0E9054CFFF71DF8002818BFFDF71F
:103CD0004FF84FF48050189040F24410C2F20000A8
:103CE00018A9FFF775F8002818BFFDF741F840F252
:103CF0004410C2F20000FFF763FA002818BFFDF776
:103D000037F82020159040F244100024C2F2000041
:103D100015A9CDE91644FEF79FFF002818BFFDF74F
:103D200027F87020CDE90E0440F24410C2F20000E2
:103D30000EA90022CDE91044CDE912441494FFF7F6
:103D4000E1F9002818BFFDF713F840F24410C2F261
:103D500000000EA90422FFF7D5F9002818BFFDF7CF
:103D600007F840F24410C2F200000EA90822FFF743
:103D7000C9F9002818BFFCF7FBFF00204FF40051E1
:103D8000CDE906104FF000710590CDE90300CDE9B3
:103D90000100CDE90800CDE90A10CDE90C0040F2A0
:103DA0004410C2F2000001A9FEF7E8FE002818BF87
:103DB000FCF7DEFF40F24410C2F20000FFF772F998
:103DC0001CB010BD80B588B040F290100021C2F246
:103DD000000042F20F7C0791CDE90511CDE90311F6
:103DE000CDE901114FF08042A923C0E9021C016115
:103DF0008021C0E900238161FEF784FF002818BFFD
:103E0000FCF7B6FF4FF48050049040F29010C2F2DD
:103E1000000004A9FEF7DCFF002818BFFCF7A8FF8C
:103E200000200190039040F29010C2F2000001A91E
:103E3000FEF712FF002818BFFCF79AFF08B080BDFC
:103E400080B540F2DC1043F60001C2F20000C4F27B
:103E5000010100234FF00C0C4FF4E13280E80E001A
:103E6000C0E90333C0E905C3C0E90733C0E909333A
:103E7000FFF7E4FB002818BFFCF77AFF40F2DC10E4
:103E8000C2F200000021FFF71BFA002818BFFCF760
:103E90006FFF40F2DC10C2F200000021FFF7EAF9E8
:103EA000002818BFFCF764FF40F2DC10C2F20000EB
:103EB000FFF7C0F9002818BFFCF75AFF80BD0000CB
:103EC000FEE70000FEE7000000F0070080F00703B7
:103ED000042B28BF04234FF0FF3C03380CFA03F3F4
:103EE00038BF0020994381400CFA00F022EA00001C
:103EF000084370477047000041F20C00C4F2020012
:103F00000168016842F20042C1F303110131C0F2BD
:103F1000F4020368B2FBF1F10068C3F306225143D7
:103F2000C0F34160022202EB4000B1FBF0F07047A9
:103F300070470000B0B501380024B4EB106F1CBF0F
:103F40000120B0BD4EF21005CEF2000568604FF0C2
:103F5000FF300F2100F0EAFD0720AC60286020460A
:103F6000B0BD000080B5FEF713F880BD70B594B009
:103F700006AC20463821FCF78FFA00250020059575
:103F8000CDE90355CDE90155FEF780F801200690F3
:103F90004FF480300421079002200F9155210D909D
:103FA0000326CDE91010CDE9120020460E96FEF74B
:103FB0009DFB68B90F20CDE9010601A80421CDE9D8
:103FC00003550595FEF72EFA002804BF14B070BD06
:103FD000FCF7CEFE4EF68850CEF20000016841F4A8
:103FE000700101607047000080B540F24410C2F2D9
:103FF0000000FEF779FF80BD80B540F29010C2F25C
:104000000000FEF771FF80BD80B540F2FF7ED0F862
:1040100000C0C4F2000E704512DD40F60002C4F28A
:104020000002904215D043F20042C4F201029042D5
:104030000FD042F60042C4F20102904209D00DE0D6
:10404000B0F1804F05D040F20042C4F2000290422D
:1040500004D14A682CF0700342EA030C43F2FF32A9
:10406000C4F20102904209DC704516DCB0F1804FC9
:1040700028D040F20042C4F2000221E044F2FF32B4
:10408000C4F20102904211DC43F20042C4F2010288
:10409000904217D044F2000210E040F60002C4F251
:1040A000000290420ED042F6004207E044F60002C1
:1040B000C4F20102904205D044F20042C4F201026F
:1040C000904204D1CA682CF4407342EA030C8A6817
:1040D0000B68D1F814E0C262A0F18042A2F59632DA
:1040E0004FEAB222072A836207D8012303FA02F2B9
:1040F00012F0E50F1CBF0969016302682CF0800112
:1041000042F0040241EA0E010260012242610160B4
:1041100080BD0000D0F808C011432CF47F4C41EA68
:10412000032141EA0C0181607047000082684FF66C
:104130008873CFF6CF731A40114341F007018160B5
:1041400070470000B0B5036A026AA0F1804422F013
:10415000010202624268D0F818C08D68A4F5963456
:10416000D1F800E023F002034FEAB424072C43EA1D
:1041700005030CD80125A54015F0E50F07D0056A09
:1041800023F0080325F004050562CD682B43072CB6
:104190000BD8012505FA04F414F0E50F1FBF22F433
:1041A0004072D1E9054522432A434FF68C74CFF67D
:1041B000FE740CEA040545EA0E0542608561496813
:1041C00041630362B0BD0000B0B5036A026A43F206
:1041D000004422F010020262C4F201044268D0F8E6
:1041E00018C0A0428C68D1F800E023F0200343EA15
:1041F000041305D042F60044C4F20104A04208D1E1
:10420000046A23F0800324F040040462CC6843EA8B
:104210000413A0F18044A4F596344FEAB424072C8B
:104220000DD8012505FA04F414F0E50F1FBF22F4A0
:104230004062D1E9054542EA840242EA850248F635
:10424000FF44CFF6FF640CEA040545EA0E25426000
:104250008561496881630362B0BD0000B0B5036A3F
:10426000026A43F2004422F480720262C4F2010442
:104270004268D0F81CC0A0428C68D1F800E023F45A
:10428000007343EA042305D042F60044C4F201045B
:10429000A04208D1046A23F4006324F48064046219
:1042A000CC6843EA0423A0F18044A4F596344FEA95
:1042B000B424072C0DD8012505FA04F414F0E50FF9
:1042C0001FBF22F44052D1E9054542EA041242EAF6
:1042D00005124FF68C74CFF6FE740CEA040545EA1D
:1042E0000E054260C5614968C1630362B0BD00004C
:1042F000B0B5036A026A43F2004422F480520262BB
:10430000C4F201044268D0F81CC0A0428C68D1F805
:1043100000E023F4005343EA043305D042F600449E
:10432000C4F20104A04208D1046A23F4004324F437
:1043300080440462CC6843EA0433A0F18044A4F5CD
:1043400096344FEAB424072C0DD8012505FA04F45D
:1043500014F0E50F1FBF22F44042D1E9054542EABF
:10436000841242EA851248F6FF44CFF6FF640CEA55
:10437000040545EA0E254260C5614968016403628F
:10438000B0BD000070B5D0F820C0026AA0F1804531
:1043900022F480320262A5F596354268036D0C68FE
:1043A000D1F808E04FEAB525072D0AD8012606FA0C
:1043B00005F515F0E50F1EBF4D6922F4803242EA83
:1043C00005224FF68F75CFF6FE752B4023434260D2
:1043D00003652CF40036496846EA0E4281640262A5
:1043E00070BD000070B5D0F820C0026AA0F1804511
:1043F00022F480120262A5F596354268036D0C68BE
:10440000D1F808E04FEAB525072D0AD8012606FAAB
:1044100005F515F0E50F1EBF4D6922F4802242EA32
:10442000852248F6FF75CFF6FF652B4043EA04234B
:10443000426003652CF40016496846EA0E52C164D6
:10444000026270BD10B5D0F820C0036A23F0010EDF
:10445000A0F18043A3F596334FEAB324072CC0F8AC
:1044600020E008D80123A34013F0E50F1EBF036A24
:1044700023F004030362836923F0F00343EA02128A
:104480002CF00A0319438261016210BD80B5D0F897
:1044900020C0D0F820E043F20043C4F20103984268
:1044A0002EF01003036205D042F60043C4F201036C
:1044B000984203D1036A23F040030362836923F423
:1044C000704343EA02322CF0A00343EA01118261F7
:1044D000016280BD80B5416E01B3016845F2684C50
:1044E0008A688968C0F6000C490F45F2704E1CF8C6
:1044F0000130C0F6000E1EF80110C2F34262DB006C
:10450000B3FBF1F31CF802101EF80220C900B1FB46
:10451000F2F1A0F86A30A0F8681080BD0121A0F87F
:104520006A10A0F8681080BD80B5816A0A070CD4B3
:10453000CA0715D18A071ED44A0727D4CA0630D421
:104540008A0639D44A0657D541E00268D0F838C007
:10455000536823F4004343EA0C035360CA07E9D0CD
:104560000268D0F82CC0536823F4003343EA0C03EC
:1045700053608A07E0D50268D0F830C0536823F44E
:10458000803343EA0C0353604A07D7D50268D0F85A
:1045900034C0536823F4802343EA0C035360CA06F3
:1045A000CED50268D0F83CC0936823F4805343EA28
:1045B0000C0393608A06C5D50268D0F840C09368A2
:1045C00023F4005343EA0C0393604A0614D50268AF
:1045D000D0F844C05368BCF5801F23F4801343EA2D
:1045E0000C03536008D1D2F804C0D0F848E02CF492
:1045F000C00343EA0E035360090658BF80BD01683B
:10460000C06C4A6822F400221043486080BD00005C
:10461000B0B582B004460020C4F89000FDF7B2FCAB
:1046200021680546096809071BD56FF07E4C2046B6
:104630004FF4001100222B46CDF800C000F0F2F933
:1046400078B100BF206850E8000F216820F080009A
:1046500041E80002002AF5D12020C4F88800032098
:1046600031E020680068400725D56FF07E4C204679
:104670004FF4800100222B46CDF800C000F0D2F9A3
:10468000C8B100BF206850E8000F216820F4907086
:1046900041E80002002AF5D1206850E8020F2168A5
:1046A00020F0010041E80202002AF5D12020C4F8E0
:1046B0008C00032007E02020C4F88800C4F88C0098
:1046C0000020E0662067002184F8841002B0B0BDAD
:1046D00080B5806AFEF71EFE80BD0000016851E8CB
:1046E000001F026821F4907142E80013002BF5D1FD
:1046F0004FF6FE7CCEF6FF7C026852E8022F03687C
:1047000002EA0C0243E802210029F5D1C16E012919
:104710000AD100BF016851E8001F026821F01001B2
:1047200042E80013002BF5D12021C0F88C100021A5
:10473000C16641677047000080B500BF016851E85D
:10474000001F026821F0400142E80013002BF5D160
:104750002021C0F8881000218167FEF7F1FF80BD9D
:10476000F0B581B004462269D4E902130068676994
:104770000A43E1693A43076846F6F316CCF6FF763A
:104780000A4337403A43026042684FF2FF4622F440
:1047900040521A43426048F20002A369C4F2000288
:1047A00090421CBF276A3B438768C1F2FF1637401F
:1047B0003B438360C36A676A23F00F033B43C362D2
:1047C00044F6FF33C4F2000398424FF0100314DDA7
:1047D00044F60047C4F20007B84221D0904226D0E8
:1047E00043F60007C4F20107B84232D141F2880310
:1047F000C4F202031B6887A727E044F20047C4F213
:104800000007B8421AD044F60007C4F20007B842C5
:104810001FD141F28803C4F202031B681B0913E095
:1048200041F28803C4F202031B689B090CE041F2C9
:104830008803C4F202031B689B0A05E041F2880367
:10484000C4F202031B689B086EA703F0030357F82A
:104850002330904242F20040C0F2F40011D0B1F592
:10486000004F1DD1082B00F26F800025DFE803F018
:104870000568766C6F6C6C6C73000025FDF7DCFED0
:104880006CE0082B1BD80027DFE803F0051920197E
:104890001D19191951000027FDF7CEFEB8B94BE0DC
:1048A000082B00F281800025DFE803F0057A887E7E
:1048B000817E7E7E85000025FDF7BEFE7EE0002025
:1048C000012720B938E00027FDF7DEFEA0B3616ABA
:1048D00045F25042C0F6000232F811206668B0FB83
:1048E000F2F106EB460399424FF00105C0F08080DB
:1048F000330399427CD800210023FBF7F0FC090226
:1049000041EA1061000210EB560041F1000132460D
:104910000023FBF7E4FC4FF6FF42A0F54071C0F224
:104920000F0291420AD821683D46C86060E04FF40A
:10493000004000270028CAD13D4659E0012557E034
:104940000025FDF78DFE09E00020012506E0002589
:10495000FDF79AFE02E04FF400400025002847D002
:10496000616A45F25042C0F6000232F811106268E6
:10497000B0FBF1F0510801EB4000B0FBF2F04FF654
:10498000EF72A0F11001914208D84FF6F07101408A
:10499000C0F3420022680844D06029E0012527E0E6
:1049A0000025FDF75DFE09E00020012506E0002559
:1049B000FDF76AFE02E04FF400400025C0B1616AD5
:1049C00045F25042C0F6000232F811106268B0FBA6
:1049D000F1F000EB5200B0FBF2F04FF6EF72A0F1F5
:1049E0001001914203D8216880B2C86000E001251F
:1049F0004FF001100021A06661672846A16701B051
:104A0000F0BD00BF00000000040000000200000034
:104A10000800000001000000040000000200000087
:104A2000080000002DE9F04381B004460068C06929
:104A30000840401AB0FA80F0400990423DD1DDF8BC
:104A4000208015460E46994608F1010709E000BF8F
:104A50002068C0693040801BB0FA80F04009A8424D
:104A60002FD1002FF4D0FDF78DFA0146B8F1000FD9
:104A70004FF0030026D0A1EB0901414522D8206860
:104A800001684907E4D5402EE2D0802EE0D0C1690C
:104A900009071AD4C1690905DAD54FF4006101622A
:104AA0002046FFF71BFE2020C4F89000002084F869
:104AB0008400032001B0BDE8F083002001B0BDE810
:104AC000F083002001B0BDE8F08308250562204690
:104AD000FFF704FE0020C4F8905084F88400012001
:104AE00001B0BDE8F083000080B540F2DC10C2F2F6
:104AF0000000FEF711FC80BDFEE70000002848BF63
:104B0000704700F01F01012202FA01F14EF200127B
:104B10004009CEF2000242F8201070474EF60C50C9
:104B2000CEF200000068C0F3022070474EF6145326
:104B300000F00F02CEF2000309011A4400F16043B5
:104B4000B0F1FF3FC8BF03F5644211707047000029
:104B50004EF60C51CEF200010A684FF6FF031A40E0
:104B600060F30A2242F0806040F0FD7008607047F8
:104B7000FEE70000FDF71AFAFFF7F8F9FEF7FEFF6F
:104B8000FEF7DAFFFFF776F8FFF75AF9FEF72CFF8A
:104B9000FFF718F9FEE75FEA400C08BF91F0000F3D
:104BA0004FEA8C234FEAC12243EA51514FEA1C508D
:104BB00018BF00F5F0404FEA300018BF41F0004147
:104BC0005FEA6C5C00F02980BCF1FF3F08BF40F059
:104BD00080407047130C06BF12044FF0100C4FF0CA
:104BE000000C130E04BF12020CF1080C130F04BFCB
:104BF00012010CF1040C930F04BF92000CF1020C93
:104C0000D30F04BF52000CF1010C11464FF000020B
:104C1000A0F11F00A0EB0C00704711F0004F08BF7F
:104C2000704731F000413FF4D5AF0B0C06BF0904CB
:104C30004FF0100C4FF0000C0B0E04BF09020CF1EA
:104C4000080C0B0F04BF09010CF1040C8B0F04BFFF
:104C500089000CF1020CCB0F04BF49000CF1010CD0
:104C6000CCF1200322FA03F341EA030102FA0CF229
:104C7000A0EB0C0000F101007047000023F07F471B
:104C800020F07F4C80EA030000F00040ACEB07030B
:104C900003F57C5303F1FF032DE9804909B44FEA82
:104CA000144324EA03484FEA154B25EA0B4E0FF252
:104CB000042606EB13273E7803FB0667C7F50007BB
:104CC00007FB06F64FEAD64606F102064FEA5437CE
:104CD00007FB066CCCF1005C4FEA1C472CEA074C42
:104CE0000CFB06F507FB06F404EB15464FEA961697
:104CF00049085FEA320234BF00204FF000404FEA1B
:104D0000D13706FB07FC4FEA1C4C0CFB0BF7D21B00
:104D100003FB0CF761EB07010CFB0EF7B0EB074050
:104D200072EB17420CFB08F734BFA2EB0742B2EB61
:104D3000074261EB17414FEA0C444FEA910706FB2B
:104D400007FC4FEA1C4C0CFB0BF7B0EBC74072EBB7
:104D5000573203FB0CF734BFA2EBC742B2EBC7429A
:104D600061EB57310CFB0EF7B0EBC70072EB5772DB
:104D70000CFB08F734BFA2EBC702B2EBC70261EB32
:104D800057714FEA816141EA92114FEA826242EA29
:104D900090124FEA806004EBCC04039F4FEAD137B6
:104DA00006FB07FC4FEA1C4C0CFB0BF7D21B03FB6A
:104DB0000CF761EB07010CFB0EF7B0EB074072EB51
:104DC00017420CFB08F734BFA2EB0742B2EB0742D5
:104DD00061EB17414FEA8C5504EB9C244FEA910795
:104DE00006FB07FC4FEA1C4C0CFB0BF7B0EBC74073
:104DF00072EB573203FB0CF734BFA2EBC742B2EBA6
:104E0000C74261EB57310CFB0EF7B0EBC70072EBFA
:104E100057720CFB08F734BFA2EBC702B2EBC70214
:104E200061EB57714FEA816141EA92114FEA826268
:104E300042EA90124FEA806015EB4C2544F10004E1
:104E40004FEAD13706FB07FC4FEA1C4C0CFB0BF773
:104E5000D21B03FB0CF761EB07010CFB0EF7B0EB69
:104E6000074072EB17420CFB08F734BFA2EB074276
:104E7000B2EB074261EB17414FEA813141EA9241BF
:104E80004FEA823242EA90424FEA80304FEA0C7693
:104E900015EB1C1544F1000448EA03434EEA0B48A5
:104EA0004FF0000EB2EB080C71EB030724BF624613
:104EB00039464EEB0E0E4FF0000B0018524149419F
:104EC0004BEB0B0BB2EB080C71EB03077BF1000B08
:104ED00024BF624639464EEB0E0E4FF0000B001811
:104EE000524149414BEB0B0BB2EB080C71EB030742
:104EF0007BF1000B24BF624639464EEB0E0E51EAA1
:104F0000020718BF46F0010616EB0E7655F10002B7
:104F100054F1000103D5BDE88901BDE80088BDE872
:104F20008901BDE80048B619524141EB0101A3F1E6
:104F30000103704780807F7E7D7C7B7A79787776ED
:104F400076757473727171706F6E6E6D6C6C6B6A66
:104F50006A69686867666665646463636261616004
:104F6000605F5F5E5E5D5D5C5C5B5B5A5A59595881
:104F700058575756565555555454535352525251EB
:104F8000515050504F4F4F4E4E4D4D4D4C4C4C4B41
:104F90004B4B4A4A4A494949484848474747474688
:104FA00046464545454444444443434343424242C4
:104FB000424141419C46002B30D477002BD04FEA30
:104FC00037071CB503B44FF010004FF01001BAF1D1
:104FD000000F06D0BCF1000FDCBF40F0080040F02D
:104FE00008014FF000000FBCBDE810400BF1010BB1
:104FF000BBF1010F08BF5FEA170722BF12F10102E0
:1050000011F101014FF0004143F1000300F00040B5
:1050100043EA00007047F9D35708D0E746EA06464E
:105020004FEA164613F1400F1FDD13F1200FDFBFCB
:1050300016430A46002120335B42BED0C3F120074D
:1050400046EA06464FEA164602FA07F746EA070618
:1050500022FA03F2C3F1200701FA07F742EA070236
:1050600021FA03F14FF00003A7E746EA020646EAF9
:1050700006464FEA164646EA0106BCBF46EA064621
:10508000360C4FF000034FF000024FF0000194E7A0
:105090002DE9804C70B49A46934691E8380007C8D1
:1050A00031EA400C48BF34EA430C03D5FFF7E6FD74
:1050B000FFF780FFF0BCBDE8008C2DE9804C70B498
:1050C0009A46934691E8380007C810F0804F08BF11
:1050D00013F0804F03D100F005F8FFF76BFFF0BC31
:1050E000BDE8008C20F07F4723F07F4C80EA03006E
:1050F00000F0004007EB0C03A3F57C53A3F1FE0383
:1051000092F0000F00F0B38095F0000F00F0778070
:105110002DE901494FEA114021EA00484FEA1446BF
:1051200024EA064700FB06FC08FB06F607FB08F826
:1051300018EB06484CEB164C00FB07F718EB07483A
:105140004CEB17404FEA124B22EA0B4E4FEA154642
:1051500025EA06470BFB06FC0EFB06F607FB0EFED8
:105160001EEB064E4CEB164C0BFB07F71EEB074EE7
:105170004CEB174B18EB0B0840F1000018EB0E0B33
:1051800058EB000840F100008F1A4FF000014FF07B
:1051900000063CBFC943661B14BFB5EB040C0021DD
:1051A0003CBFC943F61B4FEA174427EA04454FEAC0
:1051B0001C472CEA074C04FB076205FB07F70CFBB6
:1051C00005F616EB074642EB174204FB0CFC16EB08
:1051D0000C4642EB1C421BEB060658EB0202414117
:1051E0004EEA8E0E46EA9E0601D5BDE80189B61943
:1051F000524141EB0101A3F10103BDE801894FEAEE
:10520000144524EA05464FEA114721EA074C05FBFD
:1052100007F406FB07F70CFB06F111EB074144EB23
:10522000174405FB0CFC11EB0C4144EB1C444FEA0A
:10523000124722EA074C05FB07F206FB07F70CFBB7
:1052400006F616EB074642EB174205FB0CFC16EB85
:105250000C4642EB1C456A1854F1000148BF7047E8
:10526000B619524141EB0101A3F10103704795F0DA
:10527000000F37D04FEA114221EA02464FEA1447A5
:1052800024EA074C02FB07F106FB07F70CFB06F4C8
:1052900014EB074441EB174102FB0CFC14EB0C44EC
:1052A00041EB1C414FEA154725EA074C02FB07F585
:1052B00006FB07F70CFB06F616EB074645EB174512
:1052C00002FB0CFC16EB0C4645EB1C42121951F18B
:1052D000000148BF7047B619524141EB0101A3F1EB
:1052E000010370474FEA144524EA05464FEA114787
:1052F00021EA074C05FB07F106FB07F70CFB06F25A
:1053000012EB074241EB174105FB0CFC12EB0C4280
:1053100051EB1C414FF0000648BF7047921841EB1B
:105320000101A3F10103704703B401984100009803
:1053300050EAC12018BF04204A0D18BF40F00100F8
:1053400040F2FF72B2EB515F08BF40F0020001284B
:1053500008BF052002B0704710B500290AD00878B0
:10536000002807D005487844FBF76EFC002801D0E0
:10537000002010BD0248784410BD00004601000026
:105380003E010000F1EE100A4FF6FF71C0F2C0318D
:1053900020EA010040F04070E1EE100A7047FBF790
:1053A000D7B9000002400000000000A0000000008B
:1053B00005400000000000C8000000000C40000094
:1053C0000000409C00000000194000000020BCBE0E
:1053D0000000000034400000BFC91B8E0000000424
:1053E000B5400000504BCFD06607E2CF010000006F
:1053F0006C4100003E8251AADFEEA734010000009C
:10540000D9420000DCB5A0E23A301F97FFFFFFFF52
:10541000B4450000FD25A0C8E9A3C14FFFFFFFFF71
:10542000FF3F00000000008000000000FF3F000080
:1054300000000080000000000000000000000000EC
:10544000010203040607080900000000010203042A
:10545000010002000400060008000A000C00100011
:10546000200040008000000101010103070100004D
:10547000080402040801010100000000000000000F
:10548000000000000000000000000000C8540008F8
:10549000000000201000000014020008D85400088A
:1054A0001000002068080000300200081C00000006
:1054B00043000000F8FFFFFF0C0000000E0000009A
:1054C0000F0000002E0000000024F4000100000086
:0854D0001000000000000000C4
:04000005080001D915
:00000001FF
