:020000040800F2
:10000000880A00209D020008CD53000869490008B5
:100010007D510008791000081965000800000000F3
:1000200000000000000000000000000091570008E0
:1000300081110008000000005557000859580008B9
:10004000B7020008B7020008B7020008B7020008AC
:10005000B7020008B7020008B7020008B70200089C
:10006000B7020008B7020008B7020008A510000890
:10007000B7020008B7020008B7020008B70200087C
:10008000B702000800000000BD0E0008B70200081B
:10009000B7020008B7020008B7020008B70200085C
:1000A000B7020008DD580008B7020008B7020008D0
:1000B000B7020008B7020008B7020008B70200083C
:1000C000B7020008B7020008B7020008B70200082C
:1000D000B702000809650008B7020008B702000867
:1000E000B7020008B7020008B7020008B70200080C
:1000F000B7020008B7020008B702000800000000BD
:1001000000000000B702000800000000B70200086D
:10011000B702000800000000B7020008B70200089C
:10012000B7020008B7020008B7020008B7020008CB
:10013000B70200080000000000000000B70200083D
:10014000B7020008B702000800000000000000002D
:10015000000000000000000000000000000000009F
:10016000000000000000000000000000B7020008CE
:10017000B7020008000000000000000000000000BE
:1001800000000000B70200080000000000000000AE
:10019000000000000000000000000000000000005F
:1001A0000000000000000000B7020008B7020008CD
:1001B000B7020008B7020008B702000800000000FC
:1001C00000000000B702000800000000000000006E
:1001D000B7020008B702000800F002F800F04FF87C
:1001E0000AA090E8000C82448344AAF10107DA4592
:1001F00001D100F044F8AFF2090EBAE80F0013F095
:10020000010F18BFFB1A43F00103184740750000A7
:1002100060750000103A24BF78C878C1FAD8520738
:1002200024BF30C830C144BF04680C607047000070
:100230000023002400250026103A28BF78C1FBD8EF
:10024000520728BF30C148BF0B607047662907F0CE
:100250009981752900F00E81732900F0A284002095
:1002600070471FB507F081F900F0B2FC04000020D0
:10027000002107F0EDF8E0601FBD10B510BD00F0E3
:10028000AFFD1146FFF7EDFF06F094F900F0CDFD4C
:1002900003B4FFF7F2FF03BC06F07AF90948804780
:1002A00009480047FEE7FEE7FEE7FEE7FEE7FEE758
:1002B000FEE7FEE7FEE7FEE704480549054A064B70
:1002C00070470000C9580008D901000888040020C0
:1002D000880A00208806002088060020704753EA1C
:1002E000020C00F069802DE9F04B4FF00006002B66
:1002F0001FBFB3FA83F503FA05F424FA05F65E404E
:1003000012BF1643B2FA82F502FA05F4C5F12005D0
:100310001EBF22FA05FC44EA0C04203556EA044CC0
:100320004FEA144418BF641C4FF000084FF0000956
:10033000904271EB030C39D3002919BFB1FA81F750
:1003400001FA07F6B0FA80F700FA07F6C7F12007BE
:100350001EBF20FA07FC46EA0C062037B6FBF4FC69
:10036000A7EB0507103F07F01F0BCBF120062CFA77
:1003700006F60CFA0BFB44BFB3460026202FA4BFA1
:100380005E464FF0000B5BEA060C08BF4FF0010B16
:1003900019EB0B0948EB0608ABFB027C06FB02CC11
:1003A0000BFB03CCC01B71EB0C01C1E70B460246F3
:1003B00041464846BDE8F08B13B5084318BF4FF0DF
:1003C000FF300146AFF30080BDE81C4070470000DD
:1003D0000FB4044910B503AA029800F0E7FB10BC63
:1003E0005DF814FBF80000200FB47CB50C0009AADE
:1003F000009001D02044401E084B7B446946019088
:10040000089800F09CFB05461CB10020694600F0EE
:10041000A9FB28467CBC5DF814FB000071070000B6
:1004200070B50C460546012A05D02878800600D50F
:10043000EA69002302E0012305E05B1C934202D23B
:10044000E05C0028F9D1A869E618C01AA861286AFA
:10045000184428622846AFF3008004E0D5E9012162
:1004600014F8010B9047B442F8D32846AFF300804C
:1004700070BD00002DE9F041064600241068752982
:10048000314616A510D0AFF30080002802DA4042B2
:1004900013A507E031688A0701D512A502E04907D4
:1004A00004D511A5012401E0AFF3008000210A2248
:1004B00006F1240709E0B0FBF2FCB0FBF2F302FB0B
:1004C0001C00303078541846491C0028F3D12346CC
:1004D0002A463046BDE8F04100F0C5B800000000F3
:1004E0002D0000002B000000200000002DE9F04747
:1004F0004FF0000A89460446C0F820A02046E16873
:100500008847002876D0252806D0D4E901219047D5
:10051000206A401C2062F1E7E168204600258847F8
:10052000C4F81CA006460027C4F818A02A2E09D03B
:10053000304606F085FF38B304EB8708303EC8F834
:10054000186019E059F8041B204604EB87029161FA
:10055000E1688847012F064618D1E069002820DAB3
:1005600025F020051DE0D8F8180000EB800006EB10
:1005700040003038C8F818002046E1688847064631
:1005800006F05EFF0028EED1012F0AD02E2E08D1F2
:100590002046E16888477F1C0646022F45F020056B
:1005A000C4DBA069002803DA404245F00105A061E0
:1005B000E80701D025F01005B6B1A6F141001928D1
:1005C00002D8203645F400654A463146204625606B
:1005D0004D46FFF73BFE58B1012806D0ED1D25F032
:1005E000070000F1080989E704E005F1040985E73F
:1005F00030468AE7206ABDE8F0874FF0000200B578
:10060000134694469646203922BFA0E80C50A0E835
:100610000C50B1F12001BFF4F7AF090728BFA0E8E3
:100620000C5048BF0CC05DF804EB890028BF40F8AF
:10063000042B08BF704748BF20F8022B11F0804FF1
:1006400018BF00F8012B704770477047704770471C
:1006500010B500F0C1FA006810BD10B5044600F0F6
:10066000BBFA046010BD2DE9F0470D46994692464D
:10067000044600F124080168880604D5E06921F0E9
:100680001001216000E00120A84201DD471B00E0CD
:100690000027A1697A1902EB0900081AA0612078E5
:1006A000C00602D42046AFF30080002608E0D4E95B
:1006B00001211AF806009047206A401C761C20622F
:1006C0004E45F4DB2078C0060AD52046AFF3008003
:1006D00006E0D4E9012130209047206A401C2062C6
:1006E000381EA7F10107F4DC07E0D4E9012118F86E
:1006F00005009047206A401C2062281EA5F10105D4
:10070000F3DC2046AFF300802078000602D50220FB
:10071000BDE8F0870120FBE72DE9FF4F0C461E46A0
:100720004FF0FF378BB0D2E90001DDF860800A900E
:100730008A46C1F30A5505B93D46002108464FF0E7
:100740000000BAF1000F00F4400005DA00EB800071
:100750004FF4400101EA50004FEA9059B9F1010FFE
:1007600000DDB9460A9850EA4A000ED044F610500F
:10077000A5F2FF3545432F14B8F1000F1ED0754286
:10078000291E1EDDC9F100021CE0B8F1010F4FF077
:10079000000001D0302103E0F24305E02154401C69
:1007A000B042FBDB30460022002121540B99C1F8F6
:1007B0000880C1E900200FB0BDE8F08FBD1B6D1CA3
:1007C000DEE74A4600DA694206A800F08FFA06AB77
:1007D00093E8070003AB83E8070050460A9905F049
:1007E0002EFF8DE80700A0F500501F3800900398F9
:1007F000002D0ADD42F21F014A460844002303A9E6
:100800000390684606F098F909E0A0F500504A46C2
:100810001F38002303A90390684606F0A2F98DE86B
:1008200007000004000C03D04FF0FF30410800E047
:100830001046B8F1000F03D00022009215461EE0CA
:10084000751E05D400F0CCF9303262556D1EF9D515
:10085000B3460122084302D000227F1C04E0207826
:10086000302801D100227F1E002A099784D01DE084
:10087000112D07DA00F0B4F9303262556D1C50EAE0
:100880000102F5D1084302D00098C8B10EE0002162
:10089000681E05E0235C625C63542254401E491CC0
:1008A0008142F7DBAB46A81B401E0990002004F8EC
:1008B0000B000B98099AC0F80880C0E9002B7AE772
:1008C00011264FF0000857E72DE9F04F88460446FF
:1008D000D21D22F0070191B0D1E90001CDE90A0152
:1008E00006F076FA02460B98C00F01D02D2007E0E3
:1008F0002068810701D52B2002E0202101EAC000F9
:10090000032A099001D0072A05DB03464146204609
:1009100000F0ACF90BE12078800601D5E06900E039
:100920000620B8F1650F814606D0B8F1660F18D0E1
:10093000B8F1670F70D131E00020B9F1110F0090CC
:1009400001DB112301E009F101030AAA01A90CA8A6
:10095000FFF7E2FEDDE90C70002609F10105834690
:1009600047E001204B4600904FF000470AAA01A93A
:100970000CA8FFF7D1FEDDE90DB00C995D4600260D
:1009800010B909F101000D18B9EB050003D4C0F14D
:10099000FF3609F10105A5EB09002BE0B9F1010FC4
:1009A00001DA4FF001090020B9F1110F009048461B
:1009B00001DD112300E003460AAA01A90CA8FFF7F4
:1009C000ABFEDDE90C704D4600268346207800071B
:1009D0000AD4AB4500DA5D4601A8012D04DD4119BA
:1009E00011F8011C302907D04F4502DA17F1040F26
:1009F00004DA012082460FE06D1EEEE7002F02DCD4
:100A0000ED1B3E4403E0781CA84200DD7D1CB81BB2
:100A100000F1010A4FF000472078000703D4AA45EF
:100A200001DB4FF0FF3A0021B7F1004F0DF1430811
:100A30008DF8431024D002202B23002F01DA7F42AF
:100A40002D230A21021EA0F1010000DC5FB197FBFB
:100A5000F1FC97FBF1F201FB1C7C17460CF1300C0A
:100A600008F801CDEEE7A8F101000370218809051F
:100A700001D5452100E06521A0F1010800F8011C25
:100A800009980FA9A1EB0807FF1D00B1012041192A
:100A900001EBEA70A1693844081A401EA061207871
:100AA000C00602D42046AFF30080099828B1D4E9EB
:100AB00001219047206A401C20622078C00622D580
:100AC0002046AFF300801EE0002E04DBB34502DDBC
:100AD00001A8805D00E03020D4E901219047206A20
:100AE000401C2062761CAAF101005FEA000A0AD1CC
:100AF00000F06EF8C0680168405CD4E901219047BD
:100B0000206A401C2062281EA5F10105DCDC07E0FC
:100B1000D4E9012118F8010B9047206A401C20629B
:100B2000381EA7F10107F3DC2046AFF30080032055
:100B300011B041E601694A1C02610878704700B5AE
:100B40008FB0CDE901310021059105497944CDE906
:100B5000031011466846FFF7C9FC0FB000BD000046
:100B6000E5FFFFFF0A6802F8010B0A607047D1E950
:100B700000239A4202D2531C0B601070704710B5CC
:100B8000436913B1AFF3008001E0FFF749FC012096
:100B900010BD127800F124010A7000224A7001226F
:100BA000EDE711684FF0FF32E9E70000074B70B541
:100BB0000D467B44FFF7C3FF0446284600F008F9C2
:100BC00010B14FF0FF3070BD204670BDDF590000FE
:100BD0000048704730000020004870471000002097
:100BE00030B5B0F10A0271F100034FEA900E4EEAFF
:100BF000817EB0EB0E0061EB91014FEA101E4EEAD0
:100C0000017E10EB0E0041EB11114FEA102E4EEA5F
:100C1000016E10EB0E0041EB11214FEA104E4EEA2F
:100C2000014E10EB0E0041EB1141401841F1000163
:100C30004FEAD00040EA41704FEAD1014FEA810407
:100C400044EA907410EB800544EB01046D1944EB09
:100C50000404521BA3414FF0000348BF0A3200D5E1
:100C600030BD401C41F1000130BD00002DE9F041D4
:100C70001F46044603260168072A01F4006004DBCE
:100C800008B116A505E016A503E008B115A500E01A
:100C900015A521F010002060A069C01EA0610FB151
:100CA000401EA0612046AFF300804FB1D4E901217E
:100CB00038469047206A401C2062C01C206206E033
:100CC000206AFAE7D4E9012115F8010B9047761E56
:100CD000F8D22046AFF30080BDE8F0814E414E00CF
:100CE0006E616E00494E4600696E66002DE9F04760
:100CF000814616468AB0354878440DC88DE80D0007
:100D000032487844801C03AC0DC884E80D0041F6DD
:100D10009B300844372190FBF1F290FBF1F5A5F1EF
:100D2000800501FB12041B3C02D56442012000E057
:100D30000020DFF898A080460027FA44AAF1BE0AF6
:100D40000EE0E0070AD03246684607EB4701012370
:100D50000AEB810105F005FF8DE8070064107F1C98
:100D6000002CEED1194F7F44AE3F19E0E80715D0B3
:100D700007EB04100DF1180A90E80E008AE80E0047
:100D8000C068F04201D1981908903246012306A9A3
:100D900003A805F0E6FE03AB83E807006D10641CB2
:100DA000002DE3D14FF0010332466946B8F1000F40
:100DB00003A802D005F0C0FE01E005F0D2FEC9E9AB
:100DC0000001C9F808200AB0BDE8F0876869000092
:100DD000007B00F080007047004870471000002042
:100DE0007546FFF7F9FFAE4605006946534620F009
:100DF0000700854618B020B5FFF75EFABDE8204031
:100E00004FF000064FF000074FF000084FF0000BC6
:100E1000AC46ACE8C009ACE8C009ACE8C009ACE835
:100E2000C00921F007018D46704710B50446AFF3A5
:100E300000802046BDE81040FFF72ABA00000000FD
:100E400030B44FF0013C50F8042B51F8043BCCFA7D
:100E500052F4D51A20D1FCB950F8042B51F8043BB8
:100E6000CCFA52F4D51A17D1B4B950F8042B51F872
:100E7000043BCCFA52F4D51A0ED16CB950F8042BBD
:100E800051F8043BCCFA52F4D51A05D1002CDAD033
:100E900030BC4FF00000704729BAB1FA81F111F06F
:100EA0001801D1F120008440F2D1CA40CB4012F0A9
:100EB000FF0213F0FF0330BCD01A704780B540F238
:100EC0007C10C2F2000001F085FA80BD10B5846A82
:100ED000E26DE16D12F0500F05D0C9060ED4616DC0
:100EE000496B884710BD41F40070E06520680168D7
:100EF000090707D4C068800716D40AE0204601F02D
:100F000067FA10BD03F0B8FD70B12068C0688004B6
:100F10000AD4E06D20F48070E065E06DC00403D475
:100F2000E06D40F00100E065204601F009FA10BDD7
:100F300080B5806AC16D41F04001C165016E41F02C
:100F40000401016601F044FA80BD000080B5806AAA
:100F500001F03CFA80BD0000B0B582B000250195DB
:100F60000446006803F074FD002859D120683F2230
:100F70008168C8F20002114209D0E06D012540F0FD
:100F80001000E065206E40F00100206648E003F0AC
:100F9000F5FC03F007FD000226D401F099FF21685B
:100FA0000A68D20739D1054604E000BF2168086805
:100FB000C00734D1084603F04BFD10B9206803F098
:100FC000DDFC01F085FF401B0328EFD3206800689B
:100FD000C007EBD1E06D012540F01000E065206E08
:100FE00040F0010020661BE040F20000C2F2000069
:100FF000006842F663518009C0F23E51A0FB010136
:10100000880900EB40000C2101EB80000190019861
:101010000028C2D001980138F8E7002500E000253B
:10102000284602B0B0BD000010B52DED028B90ED4A
:101030003B0A044606F056F894ED3B1AB0EE408A9F
:10104000B0EE410A05F0F0FE94ED3A1A94ED392A1B
:1010500020EE013A28EE024A28EE011A20EE020A9A
:1010600033EE443A31EE000A84ED353A84ED360A27
:10107000BDEC028B10BD0000FEE7000090ED2E0AD3
:1010800090ED2D1A30EE000A9FED052A31EE000A90
:1010900080EE020A80ED331A80ED340A704700BFFB
:1010A000D7B3DD3F80B540F2E810C2F2000001F096
:1010B0002DFD80BD80B501686FF007024CF6CD4371
:1010C00052FA81F2CCF6CC43A2FB032340F2084E45
:1010D000D0F844C00622C4F2020E02EB131271458E
:1010E0000EF5836138BF1A0938BF0EF57E712CF0FA
:1010F000030303EB010C02F01F0201210EF58F63C5
:101100009140C0E912C3016580BD0000416840F60E
:10111000001201F07F010139C4F2020202EB8103E7
:1011200002F1400C01F01F01012202FA01F1C0E9B5
:10113000153CC1657047000070B5D0E913C4D0F804
:1011400054E0CCF80440BEF1000F1CBFD0E916C437
:10115000CCF80440D0E9106E0468D0F808C00EF056
:101160001F00012505FA00F0706008466360BCF1BD
:10117000100F04BF10460A46A060E26070BD000078
:101180007047000010B52DED028B90ED150A90ED23
:10119000451AB1EE0C2A81EE021A044640F268109C
:1011A000C2F2000090ED002A9FED143A31EE421A8F
:1011B00021EE031A72EE010AC0ED000A04F13000BC
:1011C000C4ED140A04F0AEF9B0EE408AD4ED380A4A
:1011D0009FED0B0A04F1880004F0A4F9D4ED370A5E
:1011E00084ED3A0A04F15C00B0EE480A04F09AF982
:1011F00084ED390ABDEC028B10BD00BF0AD7233C39
:101200000000000090ED352A90ED361A9FED564A09
:10121000BEEE003A22EE035A21EE041A35EE013AF0
:1012200035EE414AB4EE423AB0EE425A90ED080A29
:10123000F1EE10FAC8BFB0EE435AB4EE454AF1EEF3
:1012400010FAB4EE423AB0EE426AC8BFB0EE445A69
:10125000F1EE10FAB8BFB0EE436AB4EE464AF1EED2
:1012600010FAB5EE400AB8BFB0EE446AF1EE10FADB
:10127000B6EE001A70DD35EE467AF6EE000A27EE7D
:10128000017A60EE201AC1EE872A35EE065A25EE65
:10129000011A32EE412A33EE413A34EE411AB4EEED
:1012A000617AF1EE10FA22EE224A23EE225AC4BFEE
:1012B000B0EE453AB0EE442A82EE004A83EE005A80
:1012C00021EE226AC8BFB0EE461A81EE000A80ED18
:1012D000302A80ED321A9FED261A80ED313A34EE35
:1012E000202A9FED224A35EE203AB4EE442AF1EE50
:1012F00010FAB8BFB0EE442AB4EE412AF1EE10FA6B
:10130000B0EE415AB4EE443A30EE200AB8BFB0EE27
:10131000425AF1EE10FAB8BFB0EE443AB4EE413A98
:10132000F1EE10FAB0EE412AB4EE440AB8BFB0EEC6
:10133000432A80ED4A5A80ED4B2AF1EE10FAB8BFED
:10134000B0EE440AB4EE410AF1EE10FAB8BFB0EEC6
:10135000401A80ED4C1A70474FF07C51C0E94A1199
:1013600080ED4C1A704700BFD7B35D3F0AD7A33C4E
:101370001F856B3FEFF3108072B600BFFEE70000E1
:1013800040F22C30C2F200007047000080B50178B6
:1013900041F00401042902D190F82C1001B180BD64
:1013A000818840F2601C40F25A13C2F2000CC2F273
:1013B000000300EE101A9CED001AC28840F2641E71
:1013C0001988B8EE400AC2F2000E31EE000A01EEB2
:1013D000102A9EED002A0131B8EE411A8AB232EE8F
:1013E000011AB2F5806F8CED000A8EED001A19809B
:1013F00038BF80BD9FED092A002120EE020A21EEB0
:10140000021A1980CCF80010CEF80010012180EDEE
:10141000030A80ED041A80F82C1080BD0000803A89
:10142000012904D0E1B900F10C01043002E000F11F
:1014300010010630008891ED000A01EE100AB8EEA6
:10144000411A9FED0A2A31EE400A9FED091A20EE5B
:10145000020A9FED082A20EE010A80EE020A704778
:101460009FED010A704700BF000000003333534076
:1014700000008039CCCC4C3D10B502F097F8044602
:1014800003F0EEFB40F24821C2F20001002818BF31
:1014900001204A68CB68013200EE102A5A1CB8EECF
:1014A000400A01EE102A04FA00F030EE000AB8EE0D
:1014B000411A20EE010A01EE100AB8EE411A80EE40
:1014C000010A4869013001EE100AB8EE411A20EE17
:1014D000010A10BD40F26440C2F2000070470000F3
:1014E00010B5044600889FED172A01EE100A94ED0E
:1014F000060AB8EE411A32EE412A20EE020A80EEC8
:10150000011A94ED030A81EE000A84ED041A05F035
:1015100033FD94ED011A94ED022AB7EE003A83EE02
:10152000011A83EE022A84ED050A20EE011A32EE3A
:10153000011A83EE011A9FED042A31EE020A84EDAE
:10154000070A10BD00008045339388C390ED090A57
:101550009FED061A9FED072A20EE010A9FED041A5F
:1015600020EE010A80EE020A704700BF3333534079
:101570000000803910E9373D704700002DE9F04345
:1015800081B004460020009094F85800012802D150
:101590004FF0020910E260690D46012184F85810ED
:1015A00010B1296A012919D16868092840D1286831
:1015B000A96A4FF4785202EA504021B1EA6A01F078
:1015C0007C0111430843216844F20003CA6CC0F255
:1015D00010431A400243CA64606629E0A06E0028E6
:1015E0004FF000000AD1AA6A6066A1F10100A1666D
:1015F00022B102F07C01EA6A08431043D5E90021D8
:1016000001F01F01C2F3846202FA01F10843D4E938
:101610001921013940EA0200C4E9190108D1216801
:1016200044F20003CA6CC0F210431A401043C8646D
:10163000206803F0F3F998B92068C16895F825206F
:1016400095F8263021F44011002A4FEA435201D088
:10165000114304E095F82430114341EA0351C1607D
:10166000206803F005FA21680646084603F0D6F91B
:10167000304302D04FF00009EEE0A86A60B1E86A9A
:1016800050B195F8250001280FD1E06D4FF0010908
:1016900040F02000E0650FE0206895F82520C16843
:1016A000012A04D141F0007103E02068C16821F0F3
:1016B00000714FF00009C160206895F83020016981
:1016C000012A08D1D5E90D2321F4FF7111431943F3
:1016D00041F0020101E021F002010161AB682968DB
:1016E00003F10040B0FA80F047092068B3F10042EE
:1016F00018BF1A46FF0703F0F7F92068394603F0D0
:10170000A9FA206829696B69C268042940F08E80B3
:101710004FF6FF780021C0F2070803F071F9216845
:1017200007460846002103F06BF97A0390FAA0F10E
:101730002A68B1FA81F108BFC0F3846192FAA2F07D
:10174000B0FA80F0530308BFC2F38460814203D132
:101750002068002103F070FA2068012103F050F99D
:10176000216807460846012103F04AF990FAA0F1E2
:101770002A68B1FA81F117EA080F08BFC0F3846143
:1017800092FAA2F0B0FA80F012EA080F08BFC2F392
:101790008460814203D12068012103F04DFA206862
:1017A000022103F02DF9216807460846022103F0C3
:1017B00027F990FAA0F12A68B1FA81F117EA080F27
:1017C00008BFC0F3846192FAA2F0B0FA80F012EA86
:1017D000080F08BFC2F38460814203D12068022150
:1017E00003F02AFA2068032103F00AF9216807466A
:1017F0000846032103F004F990FAA0F12A68B1FA2F
:1018000081F117EA080F08BFC0F3846192FAA2F0D1
:10181000B0FA80F012EA080F08BFC2F38460814278
:101820001AD12068032103F007FA15E0062707EA1A
:1018300092072A68BB4003F0C5F920682969AA69A4
:1018400003F0EAF92A7F2068013AB2FA82F22969A4
:101850005209520603F0D0F9206803F0FDF8002881
:101860004DD120682968EA6803F066F9E86800212C
:10187000C4F27F01884242D1D5F800E04FF0806188
:101880009EFAAEF27346B2FA82F76FF3DF433A463E
:101890002068002B08BF4FEA9E62561C01EB826154
:1018A00006F01E0C01F0F84206F01F010126BCF103
:1018B000090F06FA01F60DD842EA0601002B08BF0F
:1018C0004FEA9E677A1C02F01F0202EB420241EAD5
:1018D000025111E0002B08BF4FEA9E67791C01F00E
:1018E0001F01002301EB4101CFF6206303EB0151FF
:1018F0003243114341F00071AA6803F0F5F868889B
:1019000048F20801084254D003F054F82968002234
:10191000CCF22132914204D01022C9F2C00291428D
:1019200022D1020220D42168B1F1A04F41D140F46C
:10193000000003F02BF940F20000C2F20000006842
:1019400042F663518009C0F23E51A0FB01018809B3
:1019500000EB4000182101EB800000BF00900098D0
:1019600038B300980138F9E70022CCF25272914264
:1019700008BF10F0807211D00022CCF68432914260
:1019800008BF10F4800114D1216840F20012C5F2A2
:10199000000291420DD040F4800008E0216840F23E
:1019A0000012C5F20002914203D040F0807003F0B3
:1019B000EDF8002084F85800484601B0BDE8F083F7
:1019C0002DE9F0412DED048B0546006840F2001131
:1019D000C5F20001884203D0BDEC048BBDE8F08164
:1019E000FFF7CEFC90ED080A9FEDEC8A044620EE4E
:1019F000080A80ED420A2846092100F051FAA08029
:101A0000284640F20F1100F04BFAE08020460021FA
:101A10000025FFF705FD2046012184ED2D0AFFF783
:101A2000FFFC94ED2D1A94ED082A30EE011AB1EE68
:101A3000411A84ED2E1A22EE481A84ED251A84EDFF
:101A40001A1AB2EE081AB4EE412A40F2581084ED88
:101A50002F0A22EE080AF1EE10FAC2F2000084ED1D
:101A6000260A84ED1B0A0ADA018801318AB2642A47
:101A7000018005D3002101800420207000E0058052
:101A80002078042815D804F1880604F15C05DFE805
:101A900000F0035819B110002046FFF777FC94F8C6
:101AA0002C00002898D003F06BFBBDEC048BBDE844
:101AB000F08100200021002203F07CFEBDEC048BAD
:101AC000BDE8F08140F26C18C2F2000898ED000AFF
:101AD0009FEDEB8AB4EE480AF1EE10FA09DA94EDC4
:101AE0004D1A9FEDE82A21EE021A30EE010A88ED28
:101AF000000A98ED000A40F27417B4EE480AF1EEBD
:101B000010FAC2BF45F2D230C4F27B30C8F80000F0
:101B100098ED000A94ED4D1AC2F2000720EE010A7A
:101B200097ED001A9FEDD99A31EE000AB4EE490AFA
:101B3000F1EE10FA87ED000A40F3C2809FEDD21A51
:101B4000C7E00020D4ED380A9FEDD30AC4F8EC00BA
:101B5000304603F0E7FCD4ED370A84ED3A0A9FEDF6
:101B6000CF0A284603F0DEFC204684ED390AFFF751
:101B700085FA204603F0C6FD2046FFF755FA2046B9
:101B800003F008FE40F24820C2F20000C16894ED64
:101B90004A1A481C00EE100AB8EE400A21EE000A6C
:101BA000BCEEC00A10EE100A00EE101A94ED4B2A9B
:101BB00094ED4C3AB8EE400AB7EE001A30EE010A46
:101BC00022EE001A23EE000ABCEEC11ABCEEC00AD7
:101BD00011EE101A10EE102A03F0ECFD01F078F966
:101BE00040F25411C2F200010968401AB0F5FA7FC0
:101BF00060D2F1E62046FFF741FA204603F0FEFBF3
:101C0000204603F0D3FC204603F07CFD204603F081
:101C100079FC2046FFF708FA204603F0BBFD40F2AE
:101C20004820C2F20000C16894ED4A1A481C00EE38
:101C3000100AB8EE400A21EE000ABCEEC00A10EE0F
:101C4000100A00EE101A94ED4B2A94ED4C3AB8EEBF
:101C5000400AB7EE001A30EE010A22EE001A23EE17
:101C6000000ABCEEC11ABCEEC00A11EE101A10EE4A
:101C7000102A03F09FFD94ED450A9FED801AB0EE07
:101C8000C00AB4EE410A40F27810C2F20000F1EE50
:101C900010FA80F2ED80018801318AB2B2F57A7FC4
:101CA0000180FFF499AE0021018040F25E10C2F283
:101CB0000000018003F09EFABDEC048BBDE8F081CA
:101CC0009FED741AB4EE410AF1EE10FA05DA9FEDB9
:101CD000701A30EE010A87ED000A2046FFF7CEF9B0
:101CE000204603F08BFB204603F060FC3868C4F804
:101CF000EC00204603F006FDD4ED380A9FED660A9D
:101D0000304603F00FFCD4ED370A84ED3A0A9FED1C
:101D1000630A284603F006FC204684ED390AFFF7E3
:101D200083F9204603F036FD40F24820C2F200005D
:101D3000C16894ED4A1A481C00EE100AB8EE400A39
:101D400021EE000ABCEEC00A10EE100A00EE101AD6
:101D500094ED4B2A94ED4C3AB8EE400AB7EE001AD7
:101D600030EE010A22EE001A23EE000ABCEEC11A80
:101D7000BCEEC00A11EE101A10EE102A03F01AFD84
:101D800094ED440A97ED001A30EE410AB4EE490A88
:101D9000F1EE10FA04DD9FED3C1A0AE03ACD133F54
:101DA0009FED3C1AB4EE410AF1EE10FA03DA9FED12
:101DB000381A30EE010A94ED451A98ED002A9FED8D
:101DC000343A31EE421AB0EEC11A40F25E15B4EE6A
:101DD000431AB0EEC00AB5EE001AC2F20005F1EEE9
:101DE00010FA4FF0000240F25C16B4EE410A288867
:101DF0004FF00001B8BF421CC2F20006F1EE10FA2B
:101E0000B4EE482A2A803088B8BF411CF1EE10FA9F
:101E10003180FFF6E1AD01F05BF840F27011C2F2E3
:101E200000010968401AC828FFF4D6AD2888642844
:101E3000FFF4D2AD3088C828FFF4CEAD94ED450A4A
:101E4000B1EE0C1A80EE018AB0EE480A03F0CEFC27
:101E50004CF6CD40C3F6CC5084ED148A84ED158A3F
:101E60006064A06503202070BDEC048BBDE8F081A8
:101E700000210180BDEC048BBDE8F081D2537B4290
:101E8000D2537B43DD7E3C43DB0FC9C0DB0F4940AF
:101E9000DB0FC940DB0F49C09A99193E00000000D2
:101EA00040F20F1291420CD040F2152291420CD018
:101EB00040F21B320068914214BF80308C300068C1
:101EC0007047006884300068704700688830006898
:101ED000704700007047000070B5044602F082FDB4
:101EE00021680646084602F099FD00281CBF022022
:101EF00070BD2068C168C06C002908D410F4C0709F
:101F000005D1E06D40F02000E065012070BD94F83F
:101F10005800012804BF022070BD012084F8580039
:101F20002046FFF719F8054618B1002084F858003C
:101F30004BE0E06D43F20101C00546BF206E20F08A
:101F4000080000202066E06D884300F58050E065C1
:101F5000206840F20011C5F200018842014608BF26
:101F60004FF0A041002E18BF814203D1E26D22F450
:101F70008012E26560220260002284F85820C26864
:101F8000920203D5426842F480624260A269D0F8AE
:101F900004C06FF04003082A08BF6FF0200303EA73
:101FA0000C0343604FF02002436808BF40221A43ED
:101FB0008142426006D0072E0ED80121B14011F0B7
:101FC000C10F09D002F022FD08B1284670BD20687B
:101FD00002F030FD284670BDE06D40F48010E065F1
:101FE000284670BD7047000070470000F0B581B012
:101FF00004460020009094F85800012802D10220E5
:1020000001B0F0BD20680D46012184F8581002F09F
:102010002BFD48B1E06D40F02000E065012000217B
:1020200084F8581001B0F0BD2068D5E9002102F015
:102030002BFD206802F018FD21680646084602F0D4
:10204000E9FC304340F0B880AB68296803F10040F8
:10205000B0FA80F047092068B3F1004218BF1A4671
:10206000FE0702F02FFD2068314602F0EDFD2068EA
:1020700029696B69C268042940F088804FF6FF77B0
:102080000021C0F2070702F0B5FC216806460846A9
:10209000002102F0AFFC720390FAA0F12A68B1FAB5
:1020A00081F108BFC0F3846192FAA2F0B0FA80F027
:1020B000530308BFC2F38460814203D1206800212A
:1020C00002F0B2FD2068012102F094FC216806466E
:1020D0000846012102F08EFC90FAA0F12A68B1FABC
:1020E00081F13E4208BFC0F3846192FAA2F0B0FAD7
:1020F00080F03A4208BFC2F38460814203D1206875
:10210000012102F091FD2068022102F073FC216898
:1021100006460846022102F06DFC90FAA0F12A68FA
:10212000B1FA81F13E4208BFC0F3846192FAA2F095
:10213000B0FA80F03A4208BFC2F38460814203D112
:102140002068022102F070FD2068032102F052FC99
:10215000216806460846032102F04CFC90FAA0F1E3
:102160002A68B1FA81F13E4208BFC0F3846192FA55
:10217000A2F0B0FA80F03A4208BFC2F38460814214
:102180001AD12068032102F04FFD15E0062707EA67
:1021900092072A68BB4002F003FD20682969AA69FA
:1021A00002F032FD2A7F2068013AB2FA82F22969F0
:1021B0005209520602F018FD206802F049FC00287E
:1021C0004DD120682968EA6802F0A0FCE868002187
:1021D000C4F27F01884242D1D5F800E04FF080611F
:1021E0009EFAAEF27346B2FA82F76FF3DF433A46D5
:1021F0002068002B08BF4FEA9E62561C01EB8261EB
:1022000006F01E0C01F0F84206F01F010126BCF199
:10221000090F06FA01F60DD842EA0601002B08BFA5
:102220004FEA9E677A1C02F01F0202EB420241EA6B
:10223000025111E0002B08BF4FEA9E67791C01F0A4
:102240001F01002301EB4101CFF6206303EB015195
:102250003243114341F00071AA6802F033FC6888F0
:1022600048F20801084232D002F09CFB2A680021A3
:10227000CCF221318A42014604D01020C9F2C000BC
:10228000824207D1080205D42068B0F1A04F2DD0BA
:102290000020C4E60020CCF25270824208BF11F048
:1022A000807016D00020CCF6843082424FF00000BF
:1022B00008BF11F480027FF4B2AE206840F2001231
:1022C000C5F20002904236D041F480000AE00020BE
:1022D000A5E6206840F20012C5F20002904228D024
:1022E00041F0807002F048FC002098E641F40000C4
:1022F00002F042FC40F20000C2F20000006842F628
:1023000063518009C0F23E51A0FB0101880900EB36
:1023100040000C2101EB80000090009868B100BFE4
:10232000009801380090009800284FF00000F7D185
:1023300075E6002073E6002071E600206FE60000DD
:1023400070B5006840F20011C5F20001884200D06B
:1023500070BDFFF715F80546FFF7BCF840F24C16C4
:10236000C2F200063188044600EE101AB8EE400AA8
:10237000284685ED090AFFF7E9F87088B18885EDF0
:10238000080A288100EE100A40F27A102180C2F279
:10239000000002889FED0C1A0132B8EE400A93B299
:1023A00020EE010AB3F57A7F85ED0A0A0280CFD3C9
:1023B000013940F6FE7300229942028088BF70BD49
:1023C0002046FFF78DF870BD00008039704700008F
:1023D000704700002DE9F041044600680568466832
:1023E00002F0F8FA06EA0507B90705460CD5E06DD4
:1023F000C00603D4E06D40F40060E0652046FFF7BE
:10240000BBF820680221016040F200187807C5F28D
:10241000000858BF5FEA077044D5E06DC00603D4DA
:10242000E06D40F40070E065206802F025FB98B391
:1024300020680146404508BF4FF0A041814218BFC7
:102440000946002D08BF0146052D08BF0146092D8C
:1024500008BF0146C96889041ED4016809071BD555
:1024600002F002FB40B1E06D40F01000E065206E2C
:1024700040F0010020660FE02068416821F00C0167
:102480004160E06D20F48070E065E06DC00403D42D
:10249000E06D40F00100E0652046FFF751FF206845
:1024A0000C210160B80658BF5FEA476050D5E06D67
:1024B000C00603D4E06D40F40050E065206802F0EF
:1024C000B1FA21680646084602F0D6FA216825F0DE
:1024D00001030A46414508BF4FF0A0428A4218BF97
:1024E0001246002D08BF0A46062B08BF0A46D268CE
:1024F00046B3930103D528B312F4005022D10868E3
:1025000092021FD410F040001CD0084602F082FA5C
:1025100040B1E06D40F01000E065206E40F0010039
:1025200020660FE02068416821F060014160E06DA5
:1025300020F48050E065E06DC00503D4E06D40F00C
:102540000100E0652046FFF73BFA2068602101604A
:10255000380606D4F80510D4B8051BD4F8063AD5C9
:1025600025E0E06D40F48030E065204600F03AF967
:10257000206880210160F805EED5E06D40F4003060
:10258000E0652046FFF72EFD20684FF48071016062
:10259000B805E3D5E06D40F48020E0652046FFF704
:1025A00023FD20684FF400710160F80613D5E06B3D
:1025B00018B12DB302F006FA50B1E06D40F480601E
:1025C000E065206E40F0020020662046FFF700FF25
:1025D000206810210160780558BFBDE8F0812068AF
:1025E000E16D41F48041E165216E41F00801216611
:1025F0004FF4806101602046FFF76CFCBDE8F0817C
:102600002068C06800F001000028D6D1E0E7000093
:1026100070B582B0044600200190CCB1E06D30B9B5
:10262000204600F0E1F80020206684F85800206879
:1026300002F00AFA10B1206802F098F9206802F05E
:102640000FFA38B1206802F00BFAF0B1002525E04E
:102650000125C3E0206802F09BF940F20000C2F2BD
:102660000000006842F663518009C0F23E51A0FBB1
:1026700001018809022101EB400000BF019001988F
:102680000028DFD001980138F8E7E06D012540F01F
:102690001000E065206E40F001002066206802F026
:1026A000E3F9E16D01F010010843E06D03D040F063
:1026B0001000012591E020F481700230E06520686F
:1026C00002F0C6F978B94FF0A04002F0C1F9064611
:1026D00040F20010C5F2000002F0BAF9304302D116
:1026E000606802F03FFA607FE16B41EA4030D4E974
:1026F0000221084394F824101043012940EA0141C3
:1027000006D1A06A0022CFF6FE7202EB40400143E0
:10271000E06A28B100F47870226B084340EA0201B5
:102720002068626BC36844F20706CFF6F076334048
:102730001943C160016921F040611143016102F058
:1027400069F9D8BB94F83800217F400040EA813213
:1027500020682169C36844F20206B3431A43C26089
:10276000026949B142F480320261D0F8C02043F6D8
:10277000FF739A43114307E022F480310161D0F8DE
:10278000C01043F6FF729143C0F8C01094F8402087
:102790000169012A0FD140F2FD7204F1440621EAD9
:1027A000020C4CCE216D42EA0C021A433243114313
:1027B00041F0010101E021F001010161206861693E
:1027C000026B012922F00F0102D1226A013A114362
:1027D0000163E06D012161F30100E065284602B06C
:1027E00070BD0000704700002DE9F04397B004462B
:1027F00000201690CDE91400CDE9120001A8442173
:10280000FDF7FBFE206840F20011C5F2000188428E
:1028100002D017B0BDE8F0834FF4004001904FF0B4
:102820000050109001A800F059FC002818BFFEF7D6
:10283000A1FD41F24C00C4F20200016812AD41F466
:102840000051016001684FF0030901F4005100914B
:1028500000990168002741F001010160016801F061
:10286000010100910099016841F0040101600168D3
:1028700001F0040100910099016841F0020101603A
:102880000068294600F00200009000985020129045
:102890004FF09040CDF84C90149700F041FA40F280
:1028A0000046C4F600064FF0200806F58060294671
:1028B000CDE91289149700F033FA48F20400CDE90B
:1028C000120930462946149700F02AFA40F2E8151A
:1028D0000820C2F20005C4F2020024214FF48073E4
:1028E00085E8830005F1140080224FF4806680E8BB
:1028F00048012846C5E903722F6200F05DF90028FF
:1029000018BFFEF737FD1220002100226565AC627A
:1029100000F04EFB122000F047FB17B0BDE8F0833B
:102920002DE9F04190460E46044602F053F8216826
:102930000746084602F098F818B994F8580001289C
:1029400002D10220BDE8F0810120092F84F858004F
:102950005BD8B84040F22121084256D02046FEF70D
:10296000FBFA30B10546002084F858002846BDE83F
:10297000F0812168E06D40F60172904300F58072AD
:1029800040F20010C5F200008142084608BF4FF037
:10299000A040002FE26518BF884203D1E06D20F40B
:1029A0008010E065E06D40F6CD63C0044FF000009C
:1029B00044BF206E20F006002066606D40F64D7723
:1029C000C0F60003C0F6000740F631750022C0F6DD
:1029D0000005C0E90B371C2345630B6084F85820C1
:1029E0004A68434642F010024A60CA6842F0010257
:1029F000CA604031324600F04DF92168054608466C
:102A000002F056F82846BDE8F081002084F858000E
:102A10000120BDE8F0810000002804BF01207047BC
:102A200080B590F82510022924D10168D0E910CE94
:102A3000826C0B6823F001030B600B6823F00E031C
:102A40000B60116821F4807111600EF01F010122EA
:102A500002FA01F1CCF80410D0E913215160416D64
:102A600031B10A6822F480720A60D0E916124A6015
:102A7000002102E00421C1630121012280F8252008
:102A8000002280F82420BDE88040084670470000FE
:102A900080B590F8251002292DD10168D0E910CE1B
:102AA000826C0B6823F001030B600B6823F00E03AC
:102AB0000B60116821F4807111600EF01F0201217A
:102AC00001FA02F2CCF80420D0E913325A60426DC8
:102AD00032B1136823F480731360D0E91623536076
:102AE00080F82510826B002180F824100AB19047ED
:102AF0000021084680BD0421C1630121002280F825
:102B0000251080F82420084680BD0000B0B502687A
:102B1000D0E910C4DCF80050136804F01F0E590708
:102B200012D5042101FA0EF414EA05010CD0116843
:102B3000890603D4116821F004011160CCF8044027
:102B4000016BB9B38847B0BD990718D5022101FAC6
:102B50000EF414EA050112D01168890606D4116832
:102B600021F00A011160012180F82510CCF8044001
:102B7000C16A002280F82420E1B18847B0BD19075E
:102B800058BFB0BD082101FA0EF1294012D01168DA
:102B900021F00E011160012101FA0EF2CCF804209F
:102BA000C16380F82510416B0022002980F82420A1
:102BB00018BF8847B0BD0000002804BF012070473F
:102BC0002DE9F04140F2000C0446C4F2020C00680A
:102BD0004FF6F8330CF58162CBF6FD73904238BFA7
:102BE00003F5806303EB00024CF6CD43CCF6CC43F7
:102BF000A2FB032304F1080E0CF580616FF00305BE
:102C00009EE804413CBF0021C4F2020105EA93039F
:102C1000C4E91013022184F82510016847F6F07307
:102C2000994304F114071143E8CF41EA080141EA4E
:102C30000E01194329433143394301602046FEF711
:102C400039FAA06804F14803B0F5804F04BF0020B2
:102C5000606060680ECB00F07F07013803280F60CA
:102C6000536009D82046FEF751FA04F1540207CA0E
:102C7000002303604A6003E00020C4E91500E0651A
:102C800000200121E06384F8251084F82400BDE8C9
:102C9000F081000010B5044690F82400012820D0EF
:102CA000012084F8240094F82500012816D1022080
:102CB00084F825000020E063D4F800C0DCF80000B0
:102CC00020F00100CCF800002046FEF735FA20681D
:102CD000226B01683AB141F00E010AE0002084F84D
:102CE0002400022010BD21F004010160016841F0C0
:102CF0000A010160A06C0168C90303D5016841F4B1
:102D000080710160606D18B1016841F480710160EB
:102D10002068016841F001010160002010BD000041
:102D20002DE9F04F83B00D68002D00F0C88000F150
:102D300038424FEAB22241F200470192C4F600073E
:102D40000622002600244FF00108B84208BF0522E1
:102D5000009209E00D68043435FA08F208F1010820
:102D600006F1020600F0AB80A8F1010C012202FA84
:102D70000CFB15EA0B09EDD0D1F804A00AF003050D
:102D8000A5F1010EBEF1010F11D887680322CB68AF
:102D9000B24027EA0202B3401A4382604268CAF393
:102DA000001322EA0B0203FA0CF31A434260032DCC
:102DB00002D18A68012A08D0C26803238F68B34011
:102DC0009A4307FA06F31A43C260022D11D16FF03D
:102DD000030202EA5C02024404F01C070F23D2F84B
:102DE00020E003FA07F50B692EEA0505BB402B43EB
:102DF0001362026803234F68B3409A4307F003034A
:102E0000B3401A4317F4403F0260A3D041F260037D
:102E1000C4F202031A6840F2004E42F001021A6046
:102E20001A68C4F2010E02F001020292029A2CF01A
:102E300003024FF6084A7244CFF6FF7A52F80A307E
:102E400004F00C070F25BD4023EA050C019B009DF3
:102E5000052B38BF1D4605FA07F747EA0C0342F871
:102E60000A30DEF808204B6842EA090740F20C4CB1
:102E7000DD0258BF22EA0907CEF80870C4F2010C3F
:102E8000DCF800209D0242EA090758BF22EA090740
:102E9000CCF80070DEF804209D0342EA090758BF11
:102EA00022EA0907CEF80470DEF80020DB0342EACC
:102EB000090758BF22EA0907CEF800704AE703B0B5
:102EC000BDE8F08F1823002A08BF2823C15070479F
:102ED00040F28440C2F200000068704740F20400F3
:102EE00040F28441C2F20000C2F2000100680A68A8
:102EF000104408607047000080B5032000F068F8B7
:102F00000F2000F009F800281CBF012080BD00F050
:102F10002FF8002080BD0000B0B540F20401C2F2DD
:102F20000001096801B3044640F20000C2F200004B
:102F30004FF47A720068B2FBF1F1B0FBF1F000F0EF
:102F4000B9FD0F2C4FF001050CD858B94FF0FF30E8
:102F500021460022002500F02BF840F20800C2F2C2
:102F6000000004602846B0BD01252846B0BD000021
:102F700080B582B041F25800C4F20200816841F08D
:102F800001018160816801F00101019101990168ED
:102F900041F080510160006800F08050009000987E
:102FA00000F092F802B080BD80B503F0B7FA80BDA2
:102FB00070B514460D46064603F0C0FA294622466F
:102FC00002F006FA0146304603F0C0FA70BD000078
:102FD00080B503F0CDFA80BDB0F5007F35D0002874
:102FE00066D147F20000C4F200000168D0F88020EA
:102FF00001F4C06122F48072B1F5806FC0F88020C6
:1030000021D10168012262F34A21016040F20001EE
:10301000C2F200010968322359434DF68363C4F2BA
:103020001B33A1FB031302EB934100BF43694A1E0C
:103030008A4203D213F480611146F7D140694005FA
:1030400044BF032070470020704747F20000C4F2DD
:1030500000000168D0F8802001F4C06142F4807261
:10306000B1F5806FC0F88020EDD10168012262F3D4
:103070004A21016040F20001C2F2000109683223D6
:1030800059434DF68363C4F21B33A1FB031302EBD8
:10309000934100BF43694A1E8A4203D213F4806100
:1030A0001146F7D14069400544BF03207047CAE785
:1030B00047F20000C4F200000168022262F34A21D4
:1030C000016000207047000047F20800C4F20000D1
:1030D000016841F480410160704700002DE9F04330
:1030E00081B08146807841F288070007C4F2020768
:1030F00001D4002565E057F8300C10F080580BD152
:1031000057F8300C40F0805047F8300C57F8300C2E
:1031100000F080500090009847F20004C4F20004D0
:10312000206840F480702060FFF7D2FE054600BFA3
:10313000206810F4807607D1FFF7CAFE401B0328F1
:10314000F6D3032516B933E000258EB3B86810F422
:10315000407012D0D9F8401088420BD0B868B968D6
:1031600020F4407041F48031B960B96821F48031B5
:10317000B960B860C00703D111E00020C0070ED0CD
:10318000FFF7A6FE064641F2893400BFB868800703
:1031900005D4FFF79DFE801BA042F7D303253DB960
:1031A000B868D9F8401020F4407008430025B86092
:1031B000B8F1000F05D157F8300C20F0805047F8D7
:1031C000300CD9F80000C10712D1810719D441078A
:1031D00020D4010727D481062ED4410635D4010618
:1031E0003CD4C10543D481054AD4410551D460E0A3
:1031F0003968D9F8042021F00301114339608107AF
:10320000E5D53968D9F8082021F00C01114339605F
:103210004107DED53968D9F80C2021F0300111437F
:1032200039600107D7D53968D9F8102021F0C001DD
:10323000114339608106D0D53968D9F8142021F4BA
:103240004061114339604106C9D53968D9F8182061
:1032500021F44051114339600106C2D53968D9F8CB
:103260001C2021F4404111433960C105BBD53968A8
:10327000D9F8202021F44031114339608105B4D5BB
:103280003968D9F8242021F44021114339604105DF
:103290000FD53968D9F8282021F440111143B2F52F
:1032A000801F396005D157F87C1C41F4801147F824
:1032B0007C1C01050FD53968D9F82C2021F4400178
:1032C0001143B2F5800F396005D157F87C1C41F4E9
:1032D000801147F87C1CC1040FD53968D9F830201B
:1032E00021F040711143B2F1807F396005D157F868
:1032F0007C1C41F4801147F87C1C81040FD539688F
:10330000D9F8342021F040611143B2F1006F3960E7
:1033100005D157F87C1C41F4801147F87C1C41040E
:103320000FD53968D9F8382021F040611143B2F146
:10333000006F396005D157F87C1C41F4801147F8C3
:103340007C1C00040FD53868D9F83C1020F04050A0
:103350000843B1F1805F386005D157F87C0C40F428
:10336000803047F87C0C284601B0BDE8F0830000AF
:103370002DE9F047002800F0CA8042F2000AC4F2AA
:10338000020A0446DAF800000D4600F00F008842F9
:103390000DD2DAF8000020F00F002843CAF8000030
:1033A000DAF8000000F00F00A84240F0B08020786A
:1033B00041F20808C007C4F202080CD14FF000091E
:1033C000206881072BD4B9F1800F41D1D8F80000D3
:1033D00020F0F0003AE06068022800F08C800328BA
:1033E00040F0918058F8080C800140F1908002F084
:1033F000B3F94BF20041C0F2C44188420CD9D8F86D
:10340000000010F0F00F00F08E802078800703D5C8
:10341000A068002800F087804FF000098CE0410789
:1034200005D5D8F8001041F4E061C8F80010000795
:1034300006D5D8F80000072161F30D20C8F8000078
:10344000D8F80000A16820F0F0000843C8F8000098
:10345000DAF8000000F00F00A84219D9DAF80000ED
:1034600020F00F002843CAF80000FFF731FD0646A0
:1034700041F28837DAF8000000F00F00A84207D0C8
:10348000FFF726FD801BB842F4D90320BDE8F08782
:103490002068410707D5D8F80010E26821F4E06100
:1034A0001143C8F80010000708D5D8F800002169BA
:1034B00020F4605040EAC100C8F8000000F08AF82B
:1034C000D8F8001047F27C62C1F30311C0F6000285
:1034D000515C40F2000201F01F0120FA01F140F2BC
:1034E0000800C2F200000068C2F200021160FFF79B
:1034F00013FDBDE8F08758F8080C80035CBF01207D
:10350000BDE8F08706E058F8080C400502D4012019
:10351000BDE8F08700F05EF84BF20041C0F2C44114
:1035200088427FF679AFD8F80000082161F30710D0
:103530004FF08009C8F80000D8F80000616820F05A
:1035400003000843C8F80000FFF7C2FC064641F23A
:10355000883700BFD8F80000616800F00C00B0EBBD
:10356000810F3FF42DAFFFF7B3FC801BB842F1D9B8
:103570000320BDE8F087000040F20000C2F2000026
:103580000068704780B5FFF7F7FF41F20801C4F209
:103590000201096847F28C62C1F30221C0F6000201
:1035A000515C01F01F01C84080BD000080B5FFF7ED
:1035B000E3FF41F20801C4F20201096847F28C629C
:1035C000C1F3C221C0F60002515C01F01F01C840E6
:1035D00080BD000041F20C01C4F2020151F8040C5C
:1035E00000F00C00042842F20040C0F2F40008BFD2
:1035F000704751F8042C02F00C02082A1AD051F836
:10360000042C02F00C020C2A1CBF002070470A6830
:103610000A680B68C2F303120132B0FBF2F00968CA
:10362000C3F306225043C1F34161022202EB410180
:10363000B0FBF1F0704700002DE9F04182B00028A6
:1036400000F001810446007841F20006C007C4F290
:10365000020654D12078800772D42078000700F148
:1036600095802078400700F1B3802078800600F133
:103670000081E569002D00F01882B06800F00C00B0
:103680000C2840F05981012D00F0DD80F068216A9E
:1036900000F003028A4240F0D680626A6FF00F03A6
:1036A00000F0F00103EB0212914240F0CC80A16ADD
:1036B00000F4FE42B2EB012F40F0C580E16A00F059
:1036C0007842B2EBC16F40F0BE80226B0023CFF690
:1036D000E07303EB025200F4C0016FF31402914255
:1036E00040F0B180616B4FF07E4202EB016100F06F
:1036F000C06001F07E41884240F0A580D5E1B0680D
:1037000000F00C01F068082959D0032281F00C0167
:1037100022EA00000844B0FA80F040094FD1656801
:10372000B5F5A02F00F0D380B5F5803F00F0D38031
:10373000306820F480303060306820F48020CDE0A4
:10374000B068F16800F00C00042866D001F00301B5
:1037500080F00C0081F002010844B0FA80F04009CA
:103760005BD1E1683068002900F0D38040F48070BC
:103770003060FFF7ADFB05463068400500F1FE8084
:10378000FFF7A6FB401B0228F6D930E16169D6F8A5
:103790009400002900F0898040F00100C6F89400F0
:1037A000FFF796FB054600BFD6F8940080073FF56B
:1037B00058AFFFF78DFB401B0228F5D917E13068A1
:1037C00080037FF547AF606800287FF443AF3AE09D
:1037D000B06D10F0805808D1B06D40F08050B065E9
:1037E000B06D00F080500190019847F20007C4F2DC
:1037F00000073868C0052AD4386840F48070386003
:10380000FFF766FB054600BF3868C0051FD4FFF709
:103810005FFB401B0228F7D9E9E03068400501D57D
:10382000E06880B17068216920F0FE4040EA0160E4
:10383000706040F20800C2F200000068FFF76CFB05
:1038400000283FF40AAF012002B0BDE8F081A5686E
:10385000052D00F0B080012D00F0B380D6F8900067
:1038600020F00100C6F89000D6F8900020F0040087
:10387000ABE0A169D6F89800002900F0878040F0FD
:103880000100C6F89800FFF723FB0546D6F898001C
:1038900080073FF5EEAEFFF71BFB401B02284FF001
:1038A0000300F3D902B0BDE8F08120F00100C6F8B2
:1038B0009400FFF70DFB0546D6F8940080077FF5CE
:1038C000D0AEFFF705FB401B0228F5D98FE030682A
:1038D00040F480203060306840F480303060FFF782
:1038E000F7FA002D054610D0306880033FF5B2AEE0
:1038F000FFF7EEFA401B6428F6D978E0FFF7E8FA04
:10390000401B64284FF00300CCD830688003F5D406
:10391000A0E620F480703060FFF7DAFA054600BFB9
:10392000306840057FF599AEFFF7D2FA401B0228B8
:103930004FF00300F4D9B5E7306820F080703060B4
:10394000FFF7C6FA022D05460CD100BF3068800192
:1039500067D5FFF7BDFA401B02284FF00300F5D9E9
:10396000A0E700BF3068800140F19880FFF7B0FA0F
:10397000401B02284FF00300F4D993E770682169D7
:1039800020F0FE4040EA0160706066E620F0010031
:10399000C6F89800FFF79CFA054600BFD6F89800D5
:1039A00080077FF566AEFFF793FA401B02284FF0C1
:1039B0000300F3D976E7D6F8900040F00400C6F88B
:1039C0009000D6F8900040F00100C6F89000FFF794
:1039D0007FFA002D054641F2883715D0D6F89000C1
:1039E000800715D4FFF774FA401BB842F6D90320BC
:1039F00002B0BDE8F08100BFFFF76AFA401BB84291
:103A00004FF003003FF64EAFD6F890008007F3D496
:103A1000B8F1000F7FF429AEB06D20F08050B06592
:103A200023E6F06848F20C01C0F29F1104F1200770
:103A300000EA010C8ECF6FF00F00D4E90C5400EBBC
:103A400002100022CFF6E07241EA0C0102EB0552AF
:103A500008436FF314024FF07E4540EA032005EB64
:103A60000465104305F07E4540EAC7602843F060D6
:103A7000306840F080703060F06840F08070F06036
:103A8000FFF726FA0446306880010ED4FFF720FACB
:103A9000001B02284FF00300F5D903E7F0684FF64A
:103AA000FC71CFF6EE610840F060002002B0BDE886
:103AB000F081000080B501F0B7FE80BD70470000C6
:103AC0007047000070470000B0B590F83C20012A14
:103AD00004BF0220B0BD012280F83C20D1E90232AF
:103AE000D1E900CE22F47C5223F4705343EA02045D
:103AF00048F2FF73CEF6F0730EEA0302224303F599
:103B0000006404EA0C0442EA040C0C6903F5C05298
:103B100022404C6942EA0C02224303F560542240E1
:103B20000C6B03F5F04323401A438B6940F2000C01
:103B3000CC69CEF6FF7C0CEA03431443D0F800C0F6
:103B400043F20042C4F20102944543EA040305D063
:103B500042F60042C4F20102944516D14FF6FF72BC
:103B6000CDF60F421A40D1E9083ED1E90A410025BD
:103B7000CDF6F04505EA0454224323F008531A43D6
:103B80002EF000531A4342EA01030021CCF84430DE
:103B900080F83C100846B0BD704700007047000038
:103BA0007047000070B590F83C20012A4FF00202E7
:103BB0004AD0012380F83C3080F83D20026843F26F
:103BC000004C54689368C4F2010C42F6004E624502
:103BD000C4F2010E01D0724503D14D6824F4700483
:103BE0002C434FF68F75CFF6FF550E682C4042F6EA
:103BF000FF35C4F201053443AA4254600FDCB2F130
:103C0000804F16D040F20046C4F20006B24210D0F7
:103C100040F60006C4F20006B2420AD00EE0724539
:103C200007D044F20006C4F20106B24201D0624558
:103C300004D1896823F08003194391600121002297
:103C400080F83D1080F83C20104670BD70470000A1
:103C5000002804BF0120704710B5044690F83D00CD
:103C600028B9002084F83C00204600F023F8022008
:103C700084F83D002068211D01F038FE012084F801
:103C8000480084F83E0084F83F0084F8400084F83F
:103C9000410084F8420084F8430084F8440084F82A
:103CA000450084F8460084F8470084F83D00002071
:103CB00010BD000080B582B0006842F60041C4F239
:103CC0000101884201D002B080BD41F26000C4F21F
:103CD00002000168002241F40061016000680021D7
:103CE00000F40060019001981920FFF761F9192094
:103CF000FFF75AF902B080BD90F83D1001291CBFB2
:103D000001207047022180F83D10016842F6FF3221
:103D1000C868C4F20102914240F00100C8600FDCA3
:103D2000B1F1804F1ED040F20040C4F20000814249
:103D300018D040F60000C4F20000814212D024E006
:103D400042F60040C4F2010081420BD044F2000070
:103D5000C4F20100814205D043F20040C4F20100E8
:103D6000814212D188680722C0F201020240062A6D
:103D70004FF000000ED0B2F5803F08BF70470868D2
:103D800040F00100086000207047086840F0010022
:103D9000086000207047000010B5044690F83C0011
:103DA00001284FF0020008BF10BD0B46012184F826
:103DB0003C1084F83D00206888228168CFF6CE72DE
:103DC0001140816019686F290DDD1F22C0F21002B9
:103DD000914217DCB1F5005F26DA702940D0B1F5C9
:103DE000805F5BD03AE02F2918DD4F2921DC302994
:103DF00052D0402932D15968DA6801F0A7FF206813
:103E0000402149E03F22C0F2100291421CDC2022F6
:103E1000C0F2100291423FD030221BE0E1B31029E2
:103E20003AD0202938D019E025D0B1F1101F33D075
:103E300014E050292AD0602910D15968DA6801F0BD
:103E4000A9FF2068602127E04022C0F210029142C1
:103E500022D07022C0F2100291421DD001201EE03B
:103E6000D3E90121DB6801F0D9FD2068816841F0C8
:103E70007701816012E0D3E90121DB6801F0CEFD1A
:103E80002068816841F48041816007E05968DA6800
:103E900001F05CFF2068502101F0CCFD00200121E1
:103EA00084F83D10002184F83C1010BD70470000DC
:103EB000F0B581B004460068C768066906EA0705E0
:103EC000A90731D4680700F18580280700F19B809D
:103ED000E80600F1B080E80706D020686FF0010125
:103EE0000161204600F038FA17F0800718BF16F479
:103EF000025006D020686FF4025101612046FFF79E
:103F0000DFFD002F18BF16F4807019D1680620D489
:103F1000A80627D4E8022ED4A80235D468023CD4DF
:103F2000280243D401B0F0BD6FF00201016101210C
:103F300021778069800742D02046FFF7B7FF44E031
:103F400020686FF4807101612046FFF7B7FD6806B5
:103F5000DED520686FF040010161204600F00CFAC8
:103F6000A806D7D520686FF0200101612046FFF731
:103F7000A9FDE802D0D520686FF4801101612046C8
:103F8000FFF70CFEA802C9D520686FF4001101618B
:103F90002046FFF701FE6802C2D520686FF4800159
:103FA00001612046FFF7FCFD2802BBD520686FF4B5
:103FB000000101612046FFF749FE01B0F0BD204637
:103FC00000F082F8204600F013F9002020776807FF
:103FD0007FF57BAF20686FF004010161022121773A
:103FE000806910F4407F03D02046FFF75FFF05E0B3
:103FF000204600F069F8204600F0FAF8002020770B
:1040000028077FF565AF20686FF008010161042182
:104010002177C069800703D02046FFF747FF05E0FE
:10402000204600F051F8204600F0E2F8002020770A
:10403000E8067FF550AF20686FF01001016108219C
:104040002177C06910F4407F03D02046FFF72EFF90
:1040500005E0204600F038F8204600F0C9F80020BE
:104060002077E8077FF439AF3EE7000080B586B0DF
:10407000006842F60042C4F2010200219042CDE9FC
:104080000411CDE90211019101D006B080BD41F2C9
:104090004C00C4F20200026842F0040202600068B0
:1040A00000F00400009000980F2001900220CDE95C
:1040B0000201CDE9041040F60000C4F6000001A999
:1040C000FEF72EFE06B080BD70470000B0B5044676
:1040D00090F83C00012804BF0220B0BD0D464FEA15
:1040E000B2010120052984F83C0048D8DFE801F03E
:1040F000030B131B23332068294601F0A7FC20681B
:1041000050F8181F1EE02068294601F0E1FC2068E5
:1041100050F8181F26E02068294601F023FD20688A
:1041200050F81C1F0EE02068294601F065FD20684C
:1041300050F81C1F16E02068294601F0A7FD2068F2
:1041400050F8501F41F008010160016821F004019E
:10415000016029690FE02068294601F0C7FD206849
:1041600050F8501F41F400610160016821F4806142
:1041700001602969090202681143016000200021E1
:1041800084F83C10B0BD0000002804BF0120704737
:1041900010B5044690F83D0028B9002084F83C0092
:1041A000204600F023F8022084F83D002068211DFD
:1041B00001F09CFB012084F8480084F83E0084F85C
:1041C0003F0084F8400084F8410084F8420084F8FD
:1041D000430084F8440084F8450084F8460084F8DD
:1041E000470084F83D00002010BD0000704700002B
:1041F00070470000B0B5044659B1081F4FEAB0003F
:10420000032809D8DFE800F0020B0E1104F13F008B
:104210000DE004F13E000AE004F1430007E004F180
:10422000400004E004F1410001E004F142000078A4
:1042300001281CBF0120B0BD61B1081F4FEAB000CA
:1042400003280BD8DFE800F0020E1216022084F8D3
:104250003F0012E0022084F83E000EE0022084F8C5
:1042600043000AE0022084F8400006E0022084F8BF
:10427000410002E0022084F842002068012201256A
:1042800001F0BAFB2168A1F18040A0F596304FEA19
:10429000B02242F6FF30062AC4F201003FD805FAE8
:1042A00002F212F0650F3AD04A6C814242F40042A9
:1042B0004A640FDCB1F1804F1ED040F20040C4F2DE
:1042C0000000814218D040F60000C4F20000814294
:1042D00012D03BE042F60040C4F2010081420BD014
:1042E00044F20000C4F20100814205D043F20040D4
:1042F000C4F20100814229D188680722C0F201027C
:104300000240062A4FF0000025D0B2F5803F08BFDA
:10431000B0BD086840F0010008600020B0BD8142D7
:10432000C8DD43F6FF72C4F20102914202DC42F69C
:104330000040D7E744F20002C4F201029142DBD010
:1043400044F60002C4F201029142ADD0086840F088
:10435000010008600020B0BD80B5006842F6004151
:10436000C4F20101884218BF80BD40F27C10C2F245
:104370000000FDF7B1FD80BD7047000090F884108B
:10438000012904BF022070472421C0F88810026868
:104390001168136823F00103136021F0005300211A
:1043A000416613602022C0F8882080F884100846F7
:1043B000704700007047000070470000B0B5044629
:1043C00090F88400012804BF0220B0BD012084F8C9
:1043D00084002420C4F8880020680568026822F060
:1043E00001020260826822F060621143816020460F
:1043F00001F080FD206805602020C4F888000020BE
:1044000084F88400B0BD0000B0B5044690F8840084
:10441000012804BF0220B0BD012084F884002420BC
:10442000C4F8880020680568026822F00102026072
:10443000826822F0604211438160204601F05AFDFB
:10444000206805602020C4F88800002084F88400DB
:10445000B0BD0000704700007047000070470000CA
:1044600070B503680446D96940F62F001E68D3F87A
:1044700008E0084020280CD106F020000EF0805201
:10448000801806D0616F002900F0AE802046884772
:1044900070BD40F60F00084000F08E800120C1F290
:1044A00000000EEA000C40F22010C0F20040304044
:1044B00010EB0C0000F08080C80718BF16F4807065
:1044C00007D001201862D4F8900040F00100C4F831
:1044D000900088070EF0010208D53AB10220186258
:1044E000D4F8900040F00400C4F89000480708D5C4
:1044F0003AB104201862D4F8900040F00200C4F8E9
:10450000900008070CD506F0200050EA0C0007D0F8
:1045100008201862D4F8900040F00800C4F8900019
:1045200008050BD516F0806008D04FF400601862C3
:10453000D4F8900040F02000C4F89000D4F8900027
:10454000002851D011F020001EBF06F020000EF010
:10455000805110EB010040F0FE802068D4F89010EC
:10456000806801F0280100F04000401800F0EC8065
:10457000204601F0C3FD20688068400640F1C980F4
:10458000206850E8020F216820F0400041E8020254
:10459000002AF5D1D4F88000002800F0BA8046F255
:1045A000F101C0F600018163FEF772FAE0B1D4F8C0
:1045B0008000816B884770BDE06E06EA0102D50677
:1045C0003FD501283DD1102018629868400644D498
:1045D000B4F85C00B4F85E10B4F85E20002A1CBF8A
:1045E000401A5FEA004101D170BD00BF216851E867
:1045F000001F226821F4907142E80013002BF5D1CE
:104600004FF6FE71CEF6FF71226852E8022F236842
:104610000A4043E80226002EF6D12021C4F88C106F
:104620000021E166616700BF216851E8001F226830
:1046300021F0100142E80013002BF5D1022121677F
:1046400055E0C80258D51EF4800055D04FF48010B4
:1046500018622046FFF700FF70BDD4F880000068A4
:1046600041688AB2002A58D0B4F85C309A4254D2D9
:10467000A4F85E100068800632D400BF206850E8BD
:10468000000F216820F4807041E80002002AF5D173
:10469000206850E8020F216820F0010041E8020282
:1046A000002AF5D1206850E8020F216820F0400070
:1046B00041E80202002AF5D12020C4F88C00002035
:1046C000E06600BF206850E8000F216820F010006D
:1046D00041E80002002AF5D1D4F88000FEF79CF9E9
:1046E00002202067B4F85C00B4F85E10401A81B272
:1046F0002046FFF75FFE70BD08061AD506F0800061
:104700000EF40003C01814D0A16F00297FF4BEAED0
:104710006AE72046FFF7A2FE70BDB4F85C10914234
:104720007FF462AF006880067FF55EAF02202067ED
:10473000DEE7500616D4080218D516F0804015D0D2
:104740002046FFF787FE70BD2046FFF787FE00205A
:10475000C4F8900070BD616F00293FF4FEAE2046A2
:104760008847FAE6204601F0F7FC70BDC8017FF5E6
:104770003BAFB6F1FF3FC8BF70BD2046FFF71CFE40
:1047800070BD000010B5D8B10446D0F8880028B933
:10479000002084F88400204600F026F82420C4F885
:1047A00088002068A16A026822F00102026011B14B
:1047B000204601F0C9FB204601F0E2FC012801D1AE
:1047C000012010BD2068416821F49041416081685A
:1047D00021F02A018160016841F001010160204659
:1047E00001F026FC10BD0000B0B598B004460025CD
:1047F00002A844211795CDE91555CDE91355FBF7CE
:10480000FCFE206843F60001C4F20101884201D099
:1048100018B0B0BD0120CDE9020502A8FEF75EFC8C
:10482000002818BFFCF7A6FD41F24C00C4F20200BC
:10483000416941F480414161416901F48041019144
:104840000199016841F002010160006813A900F0BC
:10485000020001900198C0201390022014900020C3
:10486000CDE915000720179040F20040C4F6000083
:10487000FEF756FA252000210022FEF799FB25209D
:10488000FEF792FB18B0B0BD2DE9F04182B00446AE
:10489000D0F88800202855D10E4600294FF001009D
:1048A0004DD01746002A4AD04FF0000821201D465F
:1048B000C4F89080C4F88800FEF70AFBA4F854708E
:1048C000A4F85670A1680746B1F5805F26D120692B
:1048D000002814BF3046B04606461FE0204680211F
:1048E00000223B46009501F0ADFD78BB26B116F8DD
:1048F000010B2168886206E038F8020B21686FF32B
:104900005F2088620026D4F8880000F0210021286A
:1049100023D1B4F856000138A4F85600B4F8560074
:104920000028DBD12046402100223B46009501F0C3
:1049300089FD2021C4F88810002818BF032002B088
:10494000BDE8F081022002B0BDE8F0812020C4F86B
:104950008800032002B0BDE8F081012002B0BDE86C
:10496000F081000070470000FEE7000081684FF60C
:10497000C072C5F6FF7211408160704781684FF6C2
:10498000C072C7F6FF7211400131816070470000AC
:1049900081684FF6C072C6F6FF72114001F1805176
:1049A0008160704740F20830C5F20000006800F0F6
:1049B000E070704740F20830C5F20000006800F077
:1049C000E070704740F20830C5F20000006800F463
:1049D0006040704740F20830C5F20000006800F007
:1049E0001F00704740F20830C5F20000006800F078
:1049F0001F00704700EB8100006E00F0F840704728
:104A000000EB8100006E00F0F8407047C06800F0D5
:104A1000007070478068C0F3C00070478068C0F3C2
:104A2000C0007047C06C00F4C070B0FA80F040095C
:104A30007047000081684FF6C072C7F6FF721140E0
:104A400008318160704700008068C0F34070704793
:104A5000806800F001007047806800F00100704736
:104A60008068C0F3007070478068C0F380007047B2
:104A70008068C0F380007047C06800F44060B0FAFE
:104A800080F0400970470000C1F3012300EB830070
:104A9000D0F830C001F01F011F238B40C2F38462A5
:104AA0002CEA030302FA01F1194301637047000085
:104AB00081684FF6C072C7F6FF7211400431816001
:104AC00070470000C1F3406300EB8300D0F814C0CE
:104AD000C1F3045107238B402CEA030302FA01F1CE
:104AE0001943416170470000C1F3406300EB83004C
:104AF000D0F814C0C1F3045107238B402CEA030300
:104B000002FA01F1194341617047000080B54FF688
:104B1000FF7ECB43D0F8B0C0C0F2070E02F01802FF
:104B200063EA0E032EFA02F203EA0C031140194362
:104B3000C0F8B01080BD000080B54FF6FF7ECB43BB
:104B4000D0F8B0C0C0F2070E02F0180263EA0E03FC
:104B50002EFA02F203EA0C0311401943C0F8B01018
:104B600080BD000040F20831C5F200010A6822F45D
:104B70007C1210430860704740F20831C5F2000112
:104B80000A6822F0E07210430860704740F2083172
:104B9000C5F200010A6822F0E07210430860704715
:104BA00000EB8100D0F860C04FF20001C0F2FF318D
:104BB00002F0F84201EA0C011A43114341F00041AE
:104BC0000166704700EB8100D0F860C04FF2000131
:104BD000C0F2FF3102F0F84201EA0C011A4311431E
:104BE00041F000410166704700EB8100016E21F049
:104BF000007111430166704700EB8100016E21F0E6
:104C0000007111430166704700EB8100016E21F0D5
:104C1000807111430166704700EB8100016E21F045
:104C2000807111430166704700EB8100016E21F035
:104C3000004101667047000000EB8100016E21F029
:104C40000041016670470000426922F000421143B2
:104C500041617047426922F000421143416170474F
:104C600041F20800C4F20200006800F4605070478E
:104C700010B5007840F60004C4F60004012816D0F0
:104C800002281ED003282CD120464FF400510022C8
:104C9000FEF718F920464FF480410022FEF712F982
:104CA00020464FF400410022FEF70CF910BD2046CB
:104CB0004FF400510022FEF705F920464FF48041E1
:104CC00008E020464FF480410022FEF7FBF8204622
:104CD0004FF400510122FEF7F5F820464FF4004151
:104CE0000EE020464FF400410022FEF7EBF820468C
:104CF0004FF400510122FEF7E5F820464FF48041C1
:104D00000122FEF7DFF810BDB0B598B0002401A86D
:104D10003C21CDE91644CDE91444CDE91244CDE956
:104D20001044FBF76AFC40F27C1040F20011C2F222
:104D30000000C5F200014FF4403280E816004FF445
:104D400080710123042581830321C0E90344C0E964
:104D50000535016280F82440C0E90B4480F8383002
:104D6000C46380F84040FDF753FC002818BFFCF7EF
:104D700001FB40F60000C2F6306010900620119052
:104D8000052012907F20CDE9130540F27C10C2F27D
:104D9000000010A91594FDF729F9002818BFFCF7A9
:104DA000E9FA41F20000C3F2602010900C2011904B
:104DB00040F27C10C2F2000010A9FDF717F900289C
:104DC00018BFFCF7D7FA48F20000C3F6F060109065
:104DD0001220119040F27C10C2F2000010A9FDF7E1
:104DE00005F9002818BFFCF7C5FA0820C0F6904066
:104DF000019009207F210290002004910421CDE937
:104E00000510022103900991ADF828008DF82A00C1
:104E100080218DF8340040F27C10CDE90B11C2F2F4
:104E2000000001A9FCF7AAFB002818BFFCF7A2FAB2
:104E30000020C4F25270019040F20F10029040F234
:104E40007C10C2F2000001A9FCF798FB002818BFF3
:104E5000FCF790FA18B0B0BD80B582B041F24800BE
:104E6000C4F202000168002241F0040101600168FF
:104E700001F0040101910199016841F00101016013
:104E80000068002100F00100009000980B20FEF760
:104E90008FF80B20FEF788F802B080BD2DE9F043B3
:104EA00087B0002741F24C000697CDE90477CDE9A1
:104EB0000277C4F20200016840F2004841F00401A8
:104EC00001600168C4F6000801F004010191019934
:104ED000016808F5806441F020010160016800224A
:104EE00001F020010191019901684FF4604641F001
:104EF00001010160016801F001010191019901685E
:104F000041F00201016000684FF4604100F00200CE
:104F1000019001982046FDF7D5FF4FF09040072102
:104F200000224FF00709FDF7CDFF40460121002286
:104F30000125FDF7C7FFCDE9026502AE20463146E7
:104F4000CDE90477FDF7ECFE4FF090403146CDE916
:104F50000295CDE90477FDF7E3FE40463146CDE901
:104F60000255CDE90477FDF7DBFE4FF48050CDE923
:104F70000207404631460495FDF7D2FE4FF400701B
:104F8000CDE90207204631460495FDF7C9FE07B07A
:104F9000BDE8F08310B59CB0002401A83421CDE910
:104FA0001A44CDE91844CDE91644CDE91444CDE9BD
:104FB0001244CDE91044CDE90E44FBF71EFB40F24C
:104FC000482042F60041C2F20000C4F20101202252
:104FD0004FF0800CC0E9001400F1080141F29A037F
:104FE0001CC1C0E9054CFEF733FE002818BFFCF7D2
:104FF000C1F94FF48050189040F24820C2F20000EE
:1050000018A9FEF7C9FE002818BFFCF7B3F940F253
:105010004820C2F20000FFF7B7F8002818BFFCF7DD
:10502000A9F92020159040F248200024C2F2000087
:1050300015A9CDE91644FEF7B5FD002818BFFCF709
:1050400099F97020CDE90E0440F24820C2F2000028
:105050000EA90022CDE91044CDE912441494FFF7C3
:1050600035F8002818BFFCF785F940F24820C2F255
:1050700000000EA90422FFF729F8002818BFFCF74A
:1050800079F940F24820C2F200000EA90822FFF789
:105090001DF8002818BFFCF76DF940F24820C2F255
:1050A00000000EA90C22FFF711F8002818BFFCF72A
:1050B00061F900204FF40051CDE906104FF0007166
:1050C0000590CDE90300CDE90100CDE90800CDE967
:1050D0000A10CDE90C0040F24820C2F2000001A9FC
:1050E000FEF7F2FC002818BFFCF744F940F2482014
:1050F000C2F20000FEF7BAFF1CB010BD80B540F24E
:10510000942043F60001C2F20000C4F20101002322
:105110004FF00C0C4FF4E13280E80E00C0E903338D
:10512000C0E905C3C0E90733C0E90933FFF72AFB2B
:10513000002818BFFCF71EF940F29420C2F20000CC
:105140000021FFF761F9002818BFFCF713F940F2BE
:105150009420C2F200000021FFF730F9002818BFA8
:10516000FCF708F940F29420C2F20000FFF706F9BC
:10517000002818BFFCF7FEF880BD0000FEE7000025
:1051800010B5FCF7FDF80446FDF7A2FE40F25411FD
:10519000C2F2000108600120207010BD80B540F20D
:1051A0000040C4F6000001210022FDF78BFE4FF005
:1051B000904002210022FDF785FE4FF0904004212F
:1051C0000022FDF77FFE80BD80B540F20040C4F6AE
:1051D000000001210122FDF775FE4FF090400221F1
:1051E0000122FDF76FFE4FF0904004210122FDF7F0
:1051F00069FE80BDB0B5FCF7C3F8044640F27410F8
:10520000C2F200000025056040F26C1040F6DB7130
:10521000C2F20000C4F2C9010160FDF759FE40F27C
:105220007011C2F20001086040F25E10C2F200008C
:10523000058040F25C10C2F2000005800220207060
:10524000B0BD000070B50026044646600C30212138
:105250002681C4E92D66C4F8BC6004F1CC05FBF7D7
:10526000CCF928462421FBF7C8F94CF6CD400022A2
:105270000023C3F64C5041F26F21C4F2A002CCF2DD
:10528000A00304F1300CC3F683218CE84300C4E989
:105290000F324CF6CD404FF082424FF041436665ED
:1052A000C3F64C6041F26F21C4E91A32C4E92532D9
:1052B0000022C3F60331C4E91660C4E9216000206E
:1052C000C4F26012002304F5847CC4E91816C4E912
:1052D0002316C4F296400021C4F27A438CE84C00B5
:1052E00004F58E72C4F8B060C4F2C821C4E93C660B
:1052F000C4E93E66C4E94066C4E9456643C2C4E900
:105300004A66C4F83061FCF7B7F8042084ED4D0A12
:10531000207040F27C14C2F2000440F24C11C2F240
:10532000000120460322FDF7FBFA2046FCF7D4FDDE
:1053300040F24824C2F2000420460021FEF75AFF42
:1053400020460421FEF756FF20460821FEF752FFB3
:105350002046FEF7D1FC70BDB0B50446FDF7B8FDA0
:1053600040F22835C2F200052968401A032838BFE8
:10537000B0BDFDF7ADFD94ED0A0A9FED131A28604C
:1053800020EE010AB1EE0C1A80EE010A94ED151A16
:1053900030EE411AB6EE000AB4EE401AF1EE10FA01
:1053A0000ADCBEEE002AB4EE421AB0EE410AF1EE7B
:1053B00010FAB8BFB0EE420A94ED151A30EE010AA9
:1053C00084ED150AB0BD00BF00007A44FEE700007E
:1053D00000F0070080F00703042B28BF04234FF0E0
:1053E000FF3C03380CFA03F338BF00209943814097
:1053F0000CFA00F022EA00000843704790ED404AA2
:1054000090ED356A90ED3C0A9FED3B1A36EE444A2A
:105410009FED3A6A90ED4D2A20EE013A24EE064ABD
:1054200034EE433AD0ED360A22EE033A90ED414A8B
:1054300030EE030A90ED3D3A30EEC44A90ED335A17
:1054400023EE011A24EE064A34EE411A90ED347A26
:1054500080ED3C0A22EE011A30EE450AB7EE002A32
:1054600033EE011AB4EE420A80ED3D1AF1EE10FA65
:1054700031EE471A02DD90ED420A0CE0BFEE004A21
:10548000B4EE440A90ED423AF1EE10FAACBF20EED1
:10549000030AB1EE430AB4EE421AF1EE10FA02DD4D
:1054A00090ED421A0CE0BFEE003AB4EE431A90EDD4
:1054B000422AF1EE10FAACBF21EE021AB1EE421A06
:1054C00090ED3E2A9FED0E4A80ED400A30EE420AF2
:1054D00090ED3F3A20EE040A32EE000A80ED3E0ADB
:1054E00031EE430A20EE040A33EE000A80ED411A41
:1054F00080ED3F0A704700BF16F28B4543D6A946A0
:10550000CDCCCC3D80B540F2F002C2F20002116871
:1055100009B1884780BD41F28510C0F600001060D7
:1055200080BD000090ED041A90ED052A30EE600A6F
:10553000B4EE412AF1EE10FA10DA90ED033AB4EE2F
:10554000432AF1EE10FA09DD90ED012A90ED0A3AB6
:1055500020EE022A33EE022A80ED0A2A90ED002A7C
:1055600090ED064A90ED023A90ED0A5A20EE022A9A
:1055700030EE444A32EE052A23EE043A32EE032A94
:10558000B4EE412AF1EE10FA80ED060A08DC90ED47
:10559000031AB4EE412AF1EE10FAA8BFB0EE421A97
:1055A000B0EE410A80ED051A7047000010B52DEDF0
:1055B000068B90ED3EAA90ED3F9A2AEE0A0A29EE5C
:1055C000091A30EE010AB1EEC08A0446B4EE488AE8
:1055D000F1EE10FA80F18480B5EE000AB4EE408A54
:1055E000F1EE10FA4EDD94ED440A01F01DFC94ED4D
:1055F000441A2AEE40AAB0EE410A01F073FD29EEEA
:10560000000A3AEE400A80EE081A94ED480A94ED3A
:105610004D3A94ED492A20EE010A23EE000A32EEBB
:10562000002A9FED320A84ED461AB4EE402AF1EECC
:1056300010FAB0EE403A84ED492A08DC9FED2C3A8E
:10564000B4EE432AF1EE10FAA8BFB0EE423A94ED60
:10565000472A84ED493A21EE021A33EE011AB4EEDC
:10566000401AF1EE10FA84ED451A08DC9FED200A8D
:10567000B4EE401AF1EE10FAA8BFB0EE410A84ED84
:10568000450A02E00020C4F8180194ED450A94EDA3
:105690004D1A94ED442A20EE010A32EE000A9FEDE5
:1056A000151A9FED152A30EE011AB4EE420A9FED4D
:1056B000142AF1EE10FAC8BFB0EE410A9FED0F1A9E
:1056C000B4EE420A30EE011AF1EE10FAB8BFB0EEB5
:1056D000410A84ED440A84ED3B0ABDEC068B10BD03
:1056E00001F0C8FDB0EE408A76E700BF0080BB4401
:1056F0000080BBC4DB0FC9C0DB0F4940DB0FC940D2
:10570000DB0F49C010B52DED028B90ED3B0A04462E
:1057100001F0E8FC94ED3B1AB0EE408AB0EE410A8D
:1057200001F082FB94ED331A94ED342A20EE013A15
:1057300028EE024A20EE020A28EE011A33EE043A5D
:1057400030EE410A84ED370A84ED383ABDEC028B25
:1057500010BD00007047000041F20C00C4F20200CE
:105760000168016842F20042C1F303110131C0F245
:10577000F4020368B2FBF1F10068C3F3062251435F
:10578000C0F34160022202EB4000B1FBF0F0704731
:105790007047000080B540F2F402C2F200021168C6
:1057A00009B1884780BD41F20520C0F600001060B5
:1057B00080BD000080B540F2482CC2F2000CDCF83D
:1057C0000CE0DCF800C00EF10103834238BF18463C
:1057D0008B4238BF1946934238BF1A46CCF8340082
:1057E000CCF83810CCF83C2080BD000040F26810A6
:1057F000C2F2000080ED000A7047000004288FBF4D
:1058000002A040B203A151F8200070474552524F08
:10581000520000002B770008317700083B77000822
:105820003777000844770008B0B501380024B4EB9E
:10583000106F1CBF0120B0BD4EF21005CEF2000566
:1058400068604FF0FF300F2100F080FE0720AC6051
:1058500028602046B0BD000080B5FDF73FFB80BD4D
:1058600070B594B006AC20463821FAF7C6FE002584
:1058700000200595CDE90355CDE90155FDF7ACFBB9
:10588000012006904FF480300421079002200F91F0
:1058900055210D900326CDE91010CDE912002046C8
:1058A0000E96FDF7C9FE68B90F20CDE9010601A8E3
:1058B0000421CDE903550595FDF75AFD002804BFE5
:1058C00014B070BDFBF756FD4EF68850CEF20000C6
:1058D000016841F4700101607047000080B540F23A
:1058E0004820C2F20000FEF7E3FA80BD80B540F226
:1058F000FF7ED0F800C0C4F2000E704512DD40F605
:105900000002C4F20002904215D043F20042C4F2F9
:10591000010290420FD042F60042C4F201029042CE
:1059200009D00DE0B0F1804F05D040F20042C4F242
:105930000002904204D14A682CF0700342EA030C42
:1059400043F2FF32C4F20102904209DC704516DCDA
:10595000B0F1804F28D040F20042C4F2000221E0B2
:1059600044F2FF32C4F20102904211DC43F20042E1
:10597000C4F20102904217D044F2000210E040F657
:105980000002C4F2000290420ED042F6004207E04C
:1059900044F60002C4F20102904205D044F20042F3
:1059A000C4F20102904204D1CA682CF4407342EA66
:1059B000030C8A680B68D1F814E0C262A0F180423F
:1059C000A2F596324FEAB222072A836207D8012352
:1059D00003FA02F212F0E50F1CBF096901630268C5
:1059E0002CF0800142F0040241EA0E010260012223
:1059F0004261016080BD000080B501F01F014FF0E1
:105A0000010CD0F820E00CFA01F32EEA0303036244
:105A1000036A02FA01F11943016280BDD0F808C09F
:105A200011432CF47F4C41EA032141EA0C018160CF
:105A30007047000082684FF68873CFF6CF731A4024
:105A4000114341F00701816070470000B0B5036A5F
:105A5000026AA0F1804422F0010202624268D0F89A
:105A600018C08D68A4F59634D1F800E023F0020345
:105A70004FEAB424072C43EA05030CD80125A540BE
:105A800015F0E50F07D0056A23F0080325F004059B
:105A90000562CD682B43072C0BD8012505FA04F4C9
:105AA00014F0E50F1FBF22F44072D1E905452243EF
:105AB0002A434FF68C74CFF6FE740CEA040545EACF
:105AC0000E0542608561496841630362B0BD000014
:105AD000B0B5036A026A43F2004422F01002026287
